:100000000C94C7000C94E6000C94E6000C94E600F7
:100010000C94E6000C94E6000C94E6000C94E600C8
:100020000C94E6000C943E070C94E6000C94E60059
:100030000C94E6000C94E6000C94E6000C94E705A2
:100040000C94E6000C94E6000C94E6000C94E60098
:100050000C94E6000C94DA130C94E6000C94E60081
:100060000C94E6000C94E6000C94E6000C94E60078
:100070000C94E6000C94E6000C94E6000C94E60068
:100080000C94E6000C94E6000C94E6006E616E00A1
:10009000696E660000407A10F35A00A0724E18098B
:1000A0000010A5D4E80000E87648170000E40B54DF
:1000B000020000CA9A3B000000E1F50500008096AE
:1000C0009800000040420F000000A08601000000E0
:1000D000102700000000E80300000000640000009A
:1000E00000000A00000000000100000000002C7663
:1000F000D888DC674F0823DFC1DFAE59E1B1B7967E
:10010000E5E3E453C63AE651997696E8E6C28426DA
:10011000EB898C9B62ED407C6FFCEFBC9C9F40F2B6
:10012000BAA56FA5F490055A2AF75C936B6CF96732
:100130006DC11BFCE0E40D47FEF520E6B500D0EDF7
:10014000902E0300943577050080841E080000205F
:100150004E0A000000C80C333333330F986E1283FD
:100160001141EF8D2114893BE65516CFFEE6DB18D1
:10017000D1844B381BF77C1D901DA4BBE424203296
:1001800084725E228100C9F124ECA1E53D2711248F
:100190001FBECFEFD0E1DEBFCDBF12E0A0E0B1E0E7
:1001A000E8E7F8E300E00BBF02C007900D92AC381F
:1001B000B107D9F714E0ACE8B2E001C01D92A43F4A
:1001C000B107E1F70E94DB0A0C943A1C0C94000082
:1001D000982F462F3091D504A091D5048091D40456
:1001E000F091D4042091D304E091D304933009F426
:1001F00059C0943030F4992371F0913009F0CEC099
:1002000023C0963009F48BC0973009F49EC0943017
:1002100009F0C4C060C0623049F48091D5048E30CA
:1002200008F0BCC08091D504865F0BC0643009F033
:10023000B5C08091D5048A3008F4B0C08091D5044F
:100240008A508093D50408955AE0832F652F0E9429
:10025000581A292F30E08A2F0E94581A423081F410
:100260002330310554F0482F50E0423051050CF056
:1002700095C02930310509F491C02F5F3F4F09C067
:10028000443009F08BC02115310509F487C0215095
:100290003040880F982F990F990F980F920F9093D5
:1002A000D5040895623049F48091D404823308F073
:1002B00075C08091D404865F0BC0643009F06EC0B5
:1002C0008091D4048A3008F469C08091D4048A50A3
:1002D0008093D40408955AE0652F0E94581A292F5C
:1002E00030E08F2F0E94581A423039F429303105FE
:1002F00009F454C02F5F3F4F09C0443009F04EC08D
:100300002115310509F44AC021503040880F982F3B
:10031000990F990F980F920F9093D404089562301B
:1003200041F48091D3048233C8F58091D304865F71
:1003300009C0643099F58091D3048A3078F18091B6
:10034000D3048A508093D30408955AE0822F652FF6
:100350000E94581A292F30E08E2F0E94581A4230DE
:1003600071F429303105D1F02F5F3F4F880F982F5E
:10037000990F990F980F920F9093D30408954430DA
:1003800069F42115310551F021503040880F982F24
:10039000990F990F980F920F9093D30408958CE0C2
:1003A00080937000E1E7F0E080818C7F8083089586
:1003B00054EA40EA34E8509374002091740027FF17
:1003C000FCCF20917100287F283009F040C0409375
:1003D0007300309374002091740027FFFCCF2091AC
:1003E0007100287F283139F79093730094E8909337
:1003F00074009091740097FFFCCF90917100987FEA
:10040000983229F58093730084E88093740080917A
:10041000740087FFFCCF80917100887F8832B9F427
:100420006093730084E8809374008091740087FF68
:10043000FCCF80917100887F883259F484E98093E1
:1004400074008091740084FDFCCF81E0089580E009
:10045000089580E0089554EA40EA34E85093740027
:100460002091740027FFFCCF20917100287F283055
:1004700009F05BC0409373003093740020917400C6
:1004800027FFFCCF20917100287F283139F7909306
:10049000730094E8909374009091740097FFFCCFE0
:1004A00090917100987F983209F03FC0809373005B
:1004B00084E8809374008091740087FFFCCF809162
:1004C0007100887F883289F584EA80937400809176
:1004D000740087FFFCCF80917100887F803129F5FF
:1004E00081EA8093730084E88093740080917400A3
:1004F00087FFFCCF80917100887F8034B1F484E85D
:10050000809374008091740087FFFCCF809171000C
:10051000887F883561F48091730094E9909374002A
:100520009091740094FDFCCF089580E0089580E0E0
:1005300008958AB3807F8ABBA89AA99882E08A9599
:10054000F1F700C0AA9A92E09A95F1F700C089B33A
:100550008295807F92E09A95F1F700C0AA9895E085
:100560009A95F1F70000AA9A92E09A95F1F700C0E7
:1005700099B392E09A95F1F700C0AA9895E09A9500
:10058000F1F7000087FDDECFA8988AB38F608ABBA1
:100590000895282F22952F708F70662311F4A99843
:1005A00001C0A99A92E09A95F1F700C0AA9A9BB36C
:1005B000907F922B9BBB95E09A95F1F70000AA984B
:1005C00095E09A95F1F70000AA9A9BB3907F982B3B
:1005D0009BBB85E08A95F1F70000AA9895E09A9573
:1005E000F1F700000E9499020895DF93CF930F92D4
:1005F000CDB7DEB72FEF36E741E021503040404025
:10060000E1F700C000009AB39F609ABBA29AA19A3A
:10061000A09A9BB3907F9BBBAA98A898A99800C06A
:1006200000C00000AA9AD99A35E03A95F1F7000087
:10063000AA9845E04A95F1F7000089830E94990243
:1006400089818C6060E00E94C90288E260E00E94BB
:10065000C9020F90CF91DF910895EF92FF92CF934F
:10066000DF93E82EE7017E01F92EE70103C061E088
:100670000E94C90289918823D1F7DF91CF91FF9021
:10068000EF900895EF92FF920F931F93DF93CF9314
:1006900000D000D00F92CDB7DEB79B01FE0131969E
:1006A00045E0DF011D924A95E9F7FE0136960AE022
:1006B00010E005C0B8010E94781A8293CB01009720
:1006C000C9F7BFEF2F3F3B0751F4FE01319680E0A1
:1006D00090E001C0019621912223E1F304C085E05E
:1006E00090E0821B930B8E010F5F1F4F080F191FA5
:1006F0007C010AC0F80181918F01805D61E00E9458
:10070000C9020894E11CF11CF5E0EF16F10494F322
:100710000F900F900F900F900F90CF91DF911F913E
:100720000F91FF90EF900895883230F4611180644A
:10073000806860E00E94C9020895CF93DF93EA01C8
:100740000E949403CE010E942D03DF91CF91089562
:10075000109271008CE0809370009091700081E0A5
:100760009B3008F480E0089584EA809374008091BF
:10077000740087FFFCCF80917100887F883041F042
:1007800090917100987F81E0903119F480E0089594
:1007900080E0089594EA909374009091740097FF1C
:1007A000FCCF90917100987F983011F0903191F4C6
:1007B0008093730084E8809374008091740087FFB5
:1007C000FCCF90917100983139F081E0983429F490
:1007D00080E0089582E0089580E0089584EA80939F
:1007E00074008091740087FFFCCF90917100987F16
:1007F00081E0903109F480E0089580FF02C040E478
:1008000001C048E18093730084E880937400809174
:1008100074008064809374008091740087FFFCCF23
:100820002091710030E0287F307050E081E0241783
:10083000350709F480E0089580FF02C048E401C054
:1008400040E28093730084E8809374008091740088
:1008500087FFFCCF2091710030E0287F307050E09E
:1008600081E02417350709F480E008958093730030
:1008700084EC809374008091740087FFFCCF80919A
:100880007100887F883241F090917100987F81E0FB
:10089000983219F480E0089580E008958093730001
:1008A00084E8809374008091740087FFFCCF90915E
:1008B0007100987F81E0903309F480E0089584EC22
:1008C000809374008091740087FFFCCF8091710049
:1008D000887F803519F48091730008958EE708951C
:1008E00084E8809374008091740087FFFCCF80912E
:1008F0007100887F883519F48091730008958EE720
:10090000089584E9809374008091740084FDFCCF85
:1009100008951F93CF93DF9380EA0E94CA03182F94
:1009200080E00E943604182B80E00E943604812B60
:10093000813041F0C0E0D0E00AC08FEF0E94360461
:10094000813021F40E94810481E006C02196D7FF06
:10095000F4CF0E94810480E0DF91CF911F91089530
:10096000CF92DF92EF92FF920F931F93DF93CF937B
:1009700000D0CDB7DEB7082F6B01F42EE22E5A83DC
:1009800099830E94B403182FEFEDFEE23197F1F73F
:1009900000C0000080EA0E94FD03182B9981892F76
:1009A0000E943604182B802F0E943604182B0E94B8
:1009B000EE03182B81EA0E94FD03182B5A811123A4
:1009C000B1F00E9481041EC0EE2019F00E945F0465
:1009D00002C00E947004F80180830F5F1F4FF8016E
:1009E00080818E3731F40E9481041EE70BC00F2DE9
:1009F000152F802F8F1990E08C159D0528F30E94EC
:100A000081041C2D812F0F900F90CF91DF911F91AA
:100A10000F91FF90EF90DF90CF9008959695982FCB
:100A200088279795879560E870E040E050E020E0E7
:100A30000E94B00480E090E00895EF92FF920F933F
:100A40001F93DF93CF930F92CDB7DEB7182F062FEA
:100A5000F42E81EA99830E94CA039981882351F474
:100A6000892F0E943604E82E812F0E9436048E2999
:100A7000813021F40E9481048DE712C0FF2021F013
:100A8000802F0E94360403C0802F0E944E048130C4
:100A900021F40E94810481E003C00E94810480E06F
:100AA0000F90CF91DF911F910F91FF90EF900895DC
:100AB000DF92EF92FF920F931F93CF93DF937C010E
:100AC0008B01EA01DD240EC0EC0FFD1FC701608120
:100AD00041E00E941D05882321F00E94810481E0ED
:100AE00007C0D394ED2DF0E0E017F10768F380E044
:100AF000DF91CF911F910F91FF90EF90DF900895BC
:100B0000EF92FF920F931F93DF93CF930F92CDB786
:100B1000DEB77B018C011695102F002717950795DE
:100B200020E0F701E20FF11DC801608141E0298357
:100B30000E941D052981882321F00E94810481E003
:100B400004C02F5F203869F780E00F90CF91DF91CC
:100B50001F910F91FF90EF900895FF920F931F93B5
:100B6000DF93CF930F92CDB7DEB7182FF62E80EA22
:100B700099830E94CA0399818823D1F4892F0E9406
:100B80003604082F812F0E943604082B0E94EE03A2
:100B9000082B81EA0E94FD03802B813049F0FF2061
:100BA00019F00E945F0402C00E9470048E3721F485
:100BB0000E9481048DE704C089830E948104898199
:100BC0000F90CF91DF911F910F91FF9008951F9289
:100BD0000F920FB60F920BB60F9211242F933F93E3
:100BE0008F939F93EF93FF9380912A03882309F4B7
:100BF00038C120912A0331E030932A0381B18093D8
:100C0000DC048091DC0480728093DB048091DC043E
:100C1000807880931C038091DC0480748093E604C8
:100C20008091E6048823B9F48091E504882399F43F
:100C300080919A0290919B02019690939B028093DF
:100C40009A0280919A0290919B0285369105B8F1A3
:100C50003093E50434C08091E604882311F01092AB
:100C6000E50480919A0290919B028F30910528F4BF
:100C700010929B0210929A0222C080919A02909147
:100C80009B028031910568F080919A0290919B02BD
:100C90008436910530F410929B0210929A0286E0FD
:100CA0000CC080919A0290919B028536910538F094
:100CB00010929B0210929A0287E08093EF04809139
:100CC000DB04882351F4809196029091970201965B
:100CD00090939702809396020EC080919602909115
:100CE00097028F30910518F082E08093EF04109204
:100CF00097021092960280911C03882351F48091F0
:100D0000980290919902019690939902809398028B
:100D10000EC080919802909199028F30910518F041
:100D200084E08093EF0410929902109298028091CF
:100D3000DB04882371F480911C03882351F4809193
:100D40009C0290919D02019690939D0280939C023B
:100D50000EC080919C0290919D028F30910518F0F9
:100D600088E08093EF0410929D0210929C02809183
:100D70002103909122038336910550F48091210341
:100D800090912203019690932203809321035FC0E8
:100D90001092220310922103809123038B3348F495
:100DA000809123038F5F8093230381E080931B0353
:100DB0004EC010922303809124038B3330F4809132
:100DC00024038F5F809324033FC0109224038091FB
:100DD0002503873130F4809125038F5F80932503AD
:100DE00033C01092250390912603E0912703F0E091
:100DF000E158FD4F8081981790F4809126038F5F12
:100E000080932603809126038D31D9F480912703A6
:100E10008230B9F480912803837099F01BC081E07F
:100E200080932603909127039C3020F48091270320
:100E30008F5F14C080932703809128038F5F809376
:100E4000280381E08093150381E08093A60220931C
:100E50002A0307C081E08093260383E08093270361
:100E6000F0CFFF91EF919F918F913F912F910F9034
:100E70000BBE0F900FBE0F901F9018951F920F92F0
:100E80000FB60F9211242F933F938F939F938091CE
:100E90002A038330E8F020912A038091A1029091E7
:100EA000A20231E08C32930750F48091A10290911C
:100EB000A20201969093A2028093A10209C010920F
:100EC000A2021092A102C09885B515BC20932A03F6
:100ED0009F918F913F912F910F900FBE0F901F9078
:100EE000189581E08093150380932D039FE09ABBB2
:100EF00087BB80EE83B987E086B986B1886A86B9F8
:100F000017B887B18B6087B980E00E94F50281E055
:100F100060E00E94C9028FE060E040E051E00E9482
:100F20009D0380E061E046E051E00E949D038FED6B
:100F300061E00E94C90287E061E04DE051E00E945B
:100F40009D038AE061E04FE051E00E949D0381E152
:100F500061E045E151E00E949D0383B7876083BF54
:100F600083B7886083BF87B7826087BF8BE981BF03
:100F700085B5886085BD87B7806887BF8CE983BDEC
:100F80007894369A0895AF92BF92CF92DF92EF9203
:100F9000FF920F931F9364B175B180E090E00E94BF
:100FA0003F1920E030E040EA50E40E94D11920E0EF
:100FB00030E048E458E40E94A61820E030E040E227
:100FC00050E40E9442189B01AC012093E704309347
:100FD000E8044093E9045093EA046091E7047091B7
:100FE000E8048091E9049091EA04E090E704F0902D
:100FF000E8040091E9041091EA0420E030EC4FE0AD
:1010000055E40E94D11920E030EE4BEA55E40E94ED
:1010100041185B016C0160E070E080EA90E4A80197
:1010200097010E9441189B01AC01C601B5010E94C5
:10103000A6189B01AC012093920230939302409337
:101040009402509395026091920270919302809164
:1010500094029091950220E030E048EC52E40E9426
:10106000411825EC33E946EC5EE30E94A6181F9177
:101070000F91FF90EF90DF90CF90BF90AF900895C9
:101080008091D904882319F0813069F406C017B81B
:10109000399A81E08093D904089517B887B18B609D
:1010A00087B91092D90408950F931F93CF93DF93BC
:1010B00024B72093DE04F8940097D1F08C01C0E0AF
:1010C000D0E060E070E080E090E0F80121913191A3
:1010D000419151918F010E9442182196C436D10549
:1010E000A1F720E030E048EC52E40E94A61815C0B9
:1010F000862F972FFC0160E070E080E090E0219166
:10110000820F911D6F5F7F4F64367105C1F70E949A
:10111000641A80E090E00E943F1978942091DE04E8
:1011200024BFDF91CF911F910F9108950F931F93CB
:10113000CF93DF93809115038823A1F110921503BB
:101140004091260330912703209128038DB79EB745
:101150000A970FB6F8949EBF0FBE8DBFEDB7FEB7CE
:101160003196C2EDD1E0ADB7BEB71296DC93CE9307
:10117000119789E191E093838283448315823683BA
:101180001782208711860E94AC1BEDB7FEB73A96F6
:101190000FB6F894FEBF0FBEEDBF80E060E0AE0179
:1011A0000E949D038091A602882309F448C01092F2
:1011B000A6028091250300D000D000D0EDB7FEB785
:1011C0003196C2EDD1E0ADB7BEB71296DC93CE93A7
:1011D00011970BE211E013830283848315820E942E
:1011E000AC1BEDB7FEB736960FB6F894FEBF0FBE38
:1011F000EDBF8FE060E0AE010E949D03809124036B
:1012000000D000D000D0EDB7FEB73196ADB7BEB775
:101210001296DC93CE9311971383028384831582F5
:101220000E94AC1BEDB7FEB736960FB6F894FEBF22
:101230000FBEEDBF82E160E0AE010E949D03809190
:1012400016038823E1F1109216038091F004909127
:10125000F104A091F204B091F3042DB73EB72850E9
:1012600030400FB6F8943EBF0FBE2DBF4DB75EB7EE
:101270004F5F5F4FC2EDD1E0EDB7FEB7D283C183C0
:1012800020E331E0FA013383228384839583A683AC
:10129000B7830E94AC1B2DB73EB7285F3F4F0FB6F8
:1012A000F8943EBF0FBE2DBF80E061E047E351E000
:1012B0000E949D0382E061E0AE010E949D03809147
:1012C0001403882309F443C010921403209191025F
:1012D00000D000D000D0EDB7FEB73196C2EDD1E01E
:1012E000ADB7BEB71296DC93CE9311978AE391E027
:1012F00093838283248315820E94AC1BEDB7FEB7D3
:1013000036960FB6F894FEBF0FBEEDBF8CE061E0DD
:10131000AE010E949D0380919102843640F081E0ED
:101320008093DD048FE061E04EE351E00EC08091D8
:101330009102843660F48091DD04882341F010929C
:10134000DD048EE061E040E451E00E949D03DF9106
:10135000CF911F910F910895837021E030E011F03B
:1013600020E030E0C9010895982F462F2091D8043D
:10137000E091D8048091D704F091D7043091D6043D
:10138000A091D604933009F462C0943030F49923CC
:1013900071F0913009F0E4C023C0963009F4A1C087
:1013A000973009F4B4C0943009F0DAC067C06230F5
:1013B00049F48091D604863108F0D2C08091D604D9
:1013C000865F0BC0643009F0CBC08091D6048A30B0
:1013D00008F4C6C08091D6048A508093D60408953C
:1013E0005AE0832F652F0E94581A292F30E08A2F48
:1013F0000E94581A4230A9F42115310539F4880F9A
:10140000982F990F990F980F9F5F18C0482F50E0A1
:1014100043305105ACF42930310591F02F5F3F4F37
:1014200007C0443069F42115310551F02150304096
:10143000880F982F990F990F980F920F9093D604B9
:101440008091D604882309F08BC081E0C6CF62303A
:1014500049F48091D704833008F082C08091D7048A
:10146000865F3CC0643009F07BC08091D7048A302D
:1014700008F476C08091D7048A5030C05AE0652FB6
:101480000E94581A292F30E08F2F0E94581A42309C
:1014900081F4223031051CF42F5F3F4F11C08823A7
:1014A000B9F429303105A1F02F5F3F4F2093D704C5
:1014B0000FC0443069F42115310551F021503040FE
:1014C000880F982F990F990F980F920F9093D70428
:1014D0008091D704882309F043C081E08093D7042A
:1014E0000895623041F48091D8048A35C8F580911E
:1014F000D804865F09C0643099F58091D8048A3099
:1015000078F18091D8048A508093D80408955AE0E5
:10151000822F652F0E94581A292F30E08E2F0E94AB
:10152000581A423071F429303105D1F02F5F3F4F06
:10153000880F982F990F990F980F920F9093D804B6
:101540000895443069F42115310551F0215030409F
:10155000880F982F990F990F980F920F9093D80496
:101560000895FC018681680F711D61507040DB0198
:101570008C919581891720F4858321E030E002C0A9
:1015800020E030E0C901089580911303882349F0D9
:1015900081E160E043E451E00E949D031092130357
:1015A000089581E160E045E451E00E949D0381E0FF
:1015B0008093130308952F923F924F925F926F9200
:1015C0007F928F929F92AF92BF92CF92DF92EF92D3
:1015D000FF920F931F93DF93CF930F92CDB7DEB798
:1015E00089E080932A0387E08093260388E0809334
:1015F00027038BE0809328030E947107B2ED2B2E06
:10160000B1E03B2EA7E48A2EA1E09A2EFAE66F2ED7
:10161000F1E07F2EE2EAAE2EE1E0BE2E08E010E01F
:1016200075E0572E67E0C62E56E0452E45E7E42EBE
:1016300041E0F42E0E94A80310928D0210928E02B7
:1016400010928F021092900268C080918D0290914A
:101650008E02A0918F02B091900220918D02309164
:101660008E0240918F0250919002622F660F41E0EE
:101670000E941D05D82AF1F181E060E00E94C902B4
:1016800040918D0250918E0260918F027091900274
:101690002DB73EB72A5030400FB6F8943EBF0FBE6C
:1016A0002DBFEDB7FEB73196ADB7BEB712963C92DF
:1016B0002E92119793828282448355836683778327
:1016C000D08611860E94AC1BEDB7FEB73A960FB6D6
:1016D000F894FEBF0FBEEDBF80E060E0A1010E9464
:1016E0009D032FE738E341E0215030404040E1F7CF
:1016F00000C0000080918D0290918E02A0918F0217
:10170000B09190020196A11DB11D80938D0290931E
:101710008E02A0938F02B093900280918D029091DF
:101720008E02A0918F02B09190028F309105A10599
:10173000B10508F48ACF3D2D3130C9F481E060E075
:101740000E94C90282ED91E066E571E00E946E1B85
:1017500080E060E042ED51E00E949D034FEF59E6CA
:1017600068E1415050406040E1F700C00000109235
:101770008D0210928E0210928F02109290025CC025
:1017800080918D0290918E02A0918F02B091900273
:1017900060E00E94AD0520918D0230918E02409153
:1017A0008F02509190026DB77EB76A5070400FB6AD
:1017B000F8947EBF0FBE6DBFEDB7FEB73196ADB7E3
:1017C000BEB712963C922E921197738262828483E6
:1017D000158226833783408751870E94AC1BEDB763
:1017E000FEB73A960FB6F894FEBF0FBEEDBF81E08C
:1017F00060E00E94C90280E060E0A1010E949D03B8
:101800002FEF34E34CE0215030404040E1F700C07E
:10181000000080918D0290918E02A0918F02B09174
:1018200090020196A11DB11D80938D0290938E02AE
:10183000A0938F02B093900280918D0290918E02BE
:10184000A0918F02B091900285309105A105B1055C
:1018500008F496CF20918C02233009F44EC3243033
:1018600030F4213091F1223008F0CFC00AC0253089
:1018700009F4D6C5253008F417C4263009F0DACEAD
:10188000B9C68091EF04873028F4823090F4882321
:1018900029F0D0CE873009F0CDCE10C080911B0347
:1018A000882321F00E94C40A10921B030E9496080C
:1018B0009DC6C09A85B5856085BD04C081E08093D2
:1018C0008C02C09A1092EF04B5CE8091EF04843060
:1018D00009F455C0853030F4882359F0823009F07E
:1018E000A9CE3EC0863009F461C0873009F0A2CE8F
:1018F0006CC080912C03882329F480912D038823C8
:1019000009F498CE10922D0310922C0380E060E031
:1019100043E751E00E949D034091DA0484E1489F2F
:10192000A001112440525E4F81E060E00E949D03BF
:1019300080E061E045E451E00E949D038091DA047B
:1019400090E0019624E130E0829FA001839F500D3A
:10195000929F500D112440525E4F81E061E064C6B9
:101960008091DA048F5F8093DA048091DA046C2D21
:101970000E94581A9093DA0420932C03A3CF8091ED
:10198000DA04882331F08091DA0481508093DA04FC
:1019900002C04092DA048091DA046C2D0E94581A39
:1019A0009093DA0481E080932C038CCF9091DA0439
:1019B000913039F0913008F49DC2923009F016C68A
:1019C00002C082E097C284E095C210928C0210920D
:1019D000EF04C098C09A85B5856085BD81E060E060
:1019E00029830E94C90282E060E00E94C9028CE063
:1019F00060E00E94C9021092DA0429812093150345
:101A00002093A6022093160315CE8091EF04843014
:101A100009F4F8C0853030F4882359F0823009F099
:101A200009CE82C0863009F458C1873009F002CE51
:101A300060C280912D03882309F4FCCD10922D0300
:101A400081E060E00E94C902A1EDB4E0E1E2F3E0D0
:101A500088E001900D928150E1F72091D604909199
:101A6000D7048091D8044DB75EB74A5050400FB6A6
:101A7000F8945EBF0FBE4DBFEDB7FEB73196ADB760
:101A8000BEB712963C922E921197F382E282248383
:101A9000158296831782808711860E94AC1BEDB752
:101AA000FEB73A960FB6F894FEBF0FBEEDBF80E0CA
:101AB00060E044E851E00E949D0383E061E0A10101
:101AC0000E949D038FE060E00E94C90210928D0287
:101AD00010928E0210928F021092900217C080E135
:101AE00060E00E94C90280918D0290918E02A091C7
:101AF0008F02B09190020196A11DB11D80938D02BD
:101B000090938E02A0938F02B093900280918D02E9
:101B100090918E02A0918F02B09190028830910531
:101B2000A105B105E0F286CD1092EF048091290362
:101B300062E00E94B4092091D6049091D70480916C
:101B4000D8044DB75EB74A5050400FB6F8945EBF08
:101B50000FBE4DBFEDB7FEB73196ADB7BEB712960B
:101B60003C922E921197F382E2822483158296830F
:101B70001782808711860E94AC1BEDB7FEB73A969C
:101B80000FB6F894FEBF0FBEEDBF83E061E0A10188
:101B90000E949D0310928D0210928E0210928F026D
:101BA0001092900217C080E160E00E94C90280910B
:101BB0008D0290918E02A0918F02B09190020196B9
:101BC000A11DB11D80938D0290938E02A0938F0270
:101BD000B093900220918D0230918E0240918F023D
:101BE0005091900280912903B801681B7109CB01C3
:101BF000AA2797FDA095BA2F281739074A075B0730
:101C000090F218CD1092EF048091290364E00E94B5
:101C1000B4092091D6049091D7048091D804ADB72F
:101C2000BEB71A970FB6F894BEBF0FBEADBFEDB7E3
:101C3000FEB7319612963C922E921197F382E28271
:101C40002483158296831782808711860E94AC1B9D
:101C5000EDB7FEB73A960FB6F894FEBF0FBEEDBFD4
:101C600083E061E0A1010E949D0310928D02109219
:101C70008E0210928F021092900217C080E160E0F5
:101C80000E94C90280918D0290918E02A0918F02D4
:101C9000B09190020196A11DB11D80938D02909389
:101CA0008E02A0938F02B093900220918D0230910A
:101CB0008E0240918F025091900280912903B801C9
:101CC000681B7109CB01AA2797FDA095BA2F281789
:101CD00039074A075B0790F2ADCC80912903873022
:101CE00090F510928D0210928E0210928F02109237
:101CF000900217C084E160E00E94C90280918D02C9
:101D000090918E02A0918F02B09190020196A11D38
:101D1000B11D80938D0290938E02A0938F02B09399
:101D2000900280918D0290918E02A0918F02B091CD
:101D300090020097A105B105E9F2809129038F5F18
:101D4000809329032FC01092290310928D021092C4
:101D50008E0210928F021092900217C080E160E014
:101D60000E94C90280918D0290918E02A0918F02F3
:101D7000B09190020196A11DB11D80938D029093A8
:101D80008E02A0938F02B093900280918D02909169
:101D90008E02A0918F02B091900287309105A1052B
:101DA000B105E0F280912903823029F08091290366
:101DB000853009F087CD10928D0210928E0210921C
:101DC0008F021092900217C084E160E00E94C90265
:101DD00080918D0290918E02A0918F02B09190021D
:101DE0000196A11DB11D80938D0290938E02A09348
:101DF0008F02B093900280918D0290918E02A091FB
:101E00008F02B09190020097A105B105E9F280918F
:101E100029038F5F8093290381ED94E060E872E0ED
:101E20000E94B10A009709F44DCD2091D6049091FB
:101E3000D7048091D804ADB7BEB71A970FB6F894FF
:101E4000BEBF0FBEADBFEDB7FEB7319612963C9246
:101E50002E921197F382E282248315829683178251
:101E6000808711860E94AC1BEDB7FEB73A960FB67D
:101E7000F894FEBF0FBEEDBF83E061E0A1010E94B8
:101E80009D0310928D0210928E0210928F0210927A
:101E9000900217C080E160E00E94C90280918D022B
:101EA00090918E02A0918F02B09190020196A11D97
:101EB000B11D80938D0290938E02A0938F02B093F8
:101EC000900220918D0230918E0240918F025091AC
:101ED000900280912903B801681B7109CB01AA27E0
:101EE00097FDA095BA2F281739074A075B0790F28C
:101EF000E9CC83E080938C0277C38091EF04863035
:101F000009F4B0C0873009F4B8C0882309F092CB37
:101F100080912D038823B9F180E060E042E951E02F
:101F20000E949D0310928D0210928E0210928F02D9
:101F30001092900217C080E160E00E94C902809177
:101F40008D0290918E02A0918F02B0919002019625
:101F5000A11DB11D80938D0290938E02A0938F02DC
:101F6000B093900280918D0290918E02A0918F0289
:101F7000B091900285309105A105B105E0F2109273
:101F80002D031092290380912B03882309F452CB4F
:101F900080912903882391F582E060E00E94C902C4
:101FA00010928D0210928E0210928F021092900267
:101FB00017C084E160E00E94C90280918D02909177
:101FC0008E02A0918F02B09190020196A11DB11DC9
:101FD00080938D0290938E02A0938F02B093900213
:101FE00080918D0290918E02A0918F02B09190020B
:101FF0008A309105A105B105E0F231C082E060E0D0
:102000000E94C90210928D0210928E0210928F02CD
:102010001092900217C084E160E00E94C902809192
:102020008D0290918E02A0918F02B0919002019644
:10203000A11DB11D80938D0290938E02A0938F02FB
:10204000B093900280918D0290918E02A0918F02A8
:10205000B09190028D309105A105B105E0F210928A
:102060002B03E8CA9091290381E0911180E08093CD
:10207000290381E080932B0325CC809129038823B9
:1020800031F081E080938C0210922903ADC28091DF
:10209000D604809326038091D704809327038091F0
:1020A000D8048093280392C28091EF04843009F40D
:1020B000F7C0853030F4882359F0823009F0BACA6D
:1020C0007FC0863009F459C1873009F0B3CAA5C171
:1020D00080912D03882309F4ADCA10922D0381E06D
:1020E00060E00E94C902A1EDB4E0E1E2F3E088E023
:1020F00001900D928150E1F72091D5049091D40484
:102100008091D304ADB7BEB71A970FB6F894BEBF8F
:102110000FBEADBFEDB7FEB7319612963C922E9230
:102120001197B382A28224831582968317828087B7
:1021300011860E94AC1BEDB7FEB73A960FB6F89425
:10214000FEBF0FBEEDBF80E060E041EB51E00E94BA
:102150009D0383E061E0A1010E949D038FE060E0A8
:102160000E94C90210928D0210928E0210928F026C
:102170001092900217C080E160E00E94C902809135
:102180008D0290918E02A0918F02B09190020196E3
:10219000A11DB11D80938D0290938E02A0938F029A
:1021A000B093900280918D0290918E02A0918F0247
:1021B000B091900288309105A105B105E0F23ACACC
:1021C0001092EF048091A30290E062E070E00E9420
:1021D000E8002091D5049091D4048091D3044DB7A8
:1021E0005EB74A5050400FB6F8945EBF0FBE4DBF69
:1021F000EDB7FEB73196ADB7BEB712963C922E92B0
:102200001197B382A28224831582968317828087D6
:1022100011860E94AC1BEDB7FEB73A960FB6F89444
:10222000FEBF0FBEEDBF83E061E0A1010E949D03F0
:1022300010928D0210928E0210928F0210929002D4
:1022400017C080E160E00E94C90280918D029091E8
:102250008E02A0918F02B09190020196A11DB11D36
:1022600080938D0290938E02A0938F02B093900280
:1022700020918D0230918E0240918F0250919002F8
:102280008091A302B801681B7109CB01AA2797FDB1
:10229000A095BA2F281739074A075B0790F2CAC9D9
:1022A0001092EF048091A30290E064E070E00E943D
:1022B000E8002091D5049091D4048091D304ADB767
:1022C000BEB71A970FB6F894BEBF0FBEADBFEDB73D
:1022D000FEB7319612963C922E921197B382A2824B
:1022E0002483158296831782808711860E94AC1BF7
:1022F000EDB7FEB73A960FB6F894FEBF0FBEEDBF2E
:1023000083E061E0A1010E949D0310928D02109272
:102310008E0210928F021092900217C080E160E04E
:102320000E94C90280918D0290918E02A0918F022D
:10233000B09190020196A11DB11D80938D029093E2
:102340008E02A0938F02B093900220918D02309163
:102350008E0240918F02509190028091A302B801A9
:10236000681B7109CB01AA2797FDA095BA2F2817E2
:1023700039074A075B0790F25DC98091A302873055
:1023800050F484E160E00E94C9028091A3028F5F53
:102390008093A3022FC01092A30210928D0210927C
:1023A0008E0210928F021092900217C080E160E0BE
:1023B0000E94C90280918D0290918E02A0918F029D
:1023C000B09190020196A11DB11D80938D02909352
:1023D0008E02A0938F02B093900280918D02909113
:1023E0008E02A0918F02B091900287309105A105D5
:1023F000B105E0F28091A302823029F08091A3021E
:10240000853009F05FCA84E160E00E94C9028091D2
:10241000A3028F5F8093A30255CA50928C02E4C03E
:102420008091EF04863009F4B0C0873009F4B8C059
:10243000882309F0FFC880912D038823B9F180E03B
:1024400060E042E951E00E949D0310928D021092DB
:102450008E0210928F021092900217C080E160E00D
:102460000E94C90280918D0290918E02A0918F02EC
:10247000B09190020196A11DB11D80938D029093A1
:102480008E02A0938F02B093900280918D02909162
:102490008E02A0918F02B091900285309105A10526
:1024A000B105E0F210922D031092A3028091A002D8
:1024B000882309F4BFC88091A302882391F582E0A4
:1024C00060E00E94C90210928D0210928E0210925A
:1024D0008F021092900217C084E160E00E94C9024E
:1024E00080918D0290918E02A0918F02B091900206
:1024F0000196A11DB11D80938D0290938E02A09331
:102500008F02B093900280918D0290918E02A091E3
:102510008F02B09190028A309105A105B105E0F2D9
:1025200031C082E060E00E94C90210928D021092D8
:102530008E0210928F021092900217C084E160E028
:102540000E94C90280918D0290918E02A0918F020B
:10255000B09190020196A11DB11D80938D029093C0
:102560008E02A0938F02B093900280918D02909181
:102570008E02A0918F02B09190028D309105A1053D
:10258000B105E0F21092A00255C89091A30281E03B
:10259000911180E08093A30281E08093A00292C910
:1025A0008091A302882331F081E080938C02109205
:1025B000A3021AC08091D304809323038091D40492
:1025C000809324038091D5048093250381E0809338
:1025D0008C0260E00E94C90282E060E00E94C902B1
:1025E0008CE060E00E94C9021092EF0481E08093C9
:1025F0002D0320C88091EF04882309F01BC8809127
:102600002D03882309F416C810922D0381E060E0A1
:102610000E94C90280E060E04FEB51E00E949D0300
:1026200080E061E04EEC51E00E949D030C941A0B97
:10263000EF92FF920F931F93CF93DF937B018C0157
:102640000E940E19EB01BE01882777FD8095982F17
:102650000E9441199B01AC01C801B7010E944118B9
:1026600020E030E040E05FE30E94CD1918160CF442
:102670002196CE01DF91CF911F910F91FF90EF90A6
:102680000895AF92BF92CF92DF92EF92FF920F9395
:102690001F937B018C0164B175B180E090E00E94D2
:1026A0003F196093EB047093EC048093ED049093D6
:1026B000EE046091EB047091EC048091ED04909134
:1026C000EE0420E030E040E85AE30E94D11920E017
:1026D00030E040EA50E40E94D1199B01AC01209304
:1026E000DF043093E0044093E1045093E2046091EE
:1026F000DF047091E0048091E1049091E2042CECFD
:102700003CEC4CE45FE30E94411827EB33EF4DEFC4
:102710005CE30E94A6189B01AC0120931703309341
:1027200018034093190350931A03A0901703B09015
:102730001803C0901903D0901A03C801B7010E9472
:1027400018139C01B901882777FD8095982F0E9466
:10275000411929EC3EE84DE05BE30E94D1199B0151
:10276000AC0162E27DEF86E89FE30E9441189B0185
:10277000AC01C601B5010E94A6189B01AC012093D3
:102780001D0330931E0340931F0350932003609159
:102790001D0370911E0380911F03909120030E94DE
:1027A00018131F910F91FF90EF90DF90CF90BF9083
:1027B000AF9008951F920F920FB60F920BB60F9223
:1027C00011240F931F932F933F934F935F936F9316
:1027D0007F938F939F93AF93BF93CF93DF93EF93A9
:1027E000FF9380912A03823008F485C010912A0358
:1027F00084B78093DE04F8948091A4029091A5029E
:102800008431910550F48091A4029091A502019623
:102810009093A5028093A40268C01092A502109222
:10282000A40280919E0290919F028436910590F5BA
:102830008091D904882321F0813009F056C012C05C
:10284000C0919E02D0919F020E94C307FE01EE0F2D
:10285000FF1FEE0FFF1FE25DFC4F608371838283D9
:10286000938312C0C0919E02D0919F026091F004A8
:102870007091F1048091F2049091F3040E9441134D
:10288000FE01E155FD4F80832196D0939F02C093B6
:102890009E022BC010929F0210929E020091D904BA
:1028A000002319F00130F9F412C08EE293E060E0E9
:1028B00070E00E9454086093F0047093F1048093D8
:1028C000F2049093F30481E0809316030CC080E03F
:1028D00090E06FEA72E00E9454080E9418138093FF
:1028E0009102009314030E94400878948091DE04C2
:1028F00084BF10932A03FF91EF91DF91CF91BF9195
:10290000AF919F918F917F916F915F914F913F9187
:102910002F911F910F910F900BBE0F900FBE0F9034
:102920001F9018952F923F924F925F926F927F92D5
:102930008F929F92AF92BF92CF92DF92EF92FF92CF
:102940000F931F93DF93CF93CDB7DEB763970FB687
:10295000F894DEBF0FBECDBF6C017F876E87FC0190
:1029600017821682838181FD04C06FC34C855D850B
:1029700004C01E010894211C311CF6019381EE85D0
:10298000FF8593FD859193FF8191FF87EE878823D3
:1029900009F457C3853241F493FD859193FF8191EA
:1029A000FF87EE87853259F490E0B6014A8B5B8B46
:1029B0000E94801B4A895B895D874C87D7CF10E0D6
:1029C000FF2400E00032B0F48B3269F08C3228F43E
:1029D000803251F0833271F40BC08D3239F0803384
:1029E00049F401602CC00260046029C0086027C05F
:1029F000006125C007FD2EC0282F20532A3098F4EF
:102A000006FF08C0812F880F182F110F110F180F04
:102A1000120F15C08F2D880FF82EFF0CFF0CF80E2B
:102A2000F20E00620CC08E3221F406FD0AC300646F
:102A300006C08C3611F4006802C0883659F4EE8561
:102A4000FF8593FD859193FF8191FF87EE87882312
:102A500009F0B8CF982F9554933018F40061805E38
:102A600006C0982F9556933008F09BC10F7E06FF45
:102A700016E06FE3E62EE022853619F4F0E4EF2A43
:102A800007C0863619F420E8E22A02C0111111505D
:102A9000E7FE06C01C3340F4912E939427E00BC050
:102AA000183030F4212F06C027E03CE3932E03C0FA
:102AB00027E017E09924CA0104969D878C87FA01C4
:102AC0006081718182819381A101092D0E948B1AFD
:102AD0005C016980262D30E0398B288B60FE03C0B5
:102AE000388933FF06C0E1FC06C0E2FE06C000E202
:102AF00005C00DE203C00BE201C000E0888999899E
:102B00008C7090700097C1F1002311F084E001C037
:102B100083E08F1558F4F81AE3FC09C080E290E0D6
:102B2000B6010E94801BFA94C9F701C0FF2400235C
:102B300029F0802F90E0B6010E94801B888983FDD8
:102B400003C000E910E00EC00CE810E00BC0A114B7
:102B5000B10409F0805290E0B6010E94801B0F5F23
:102B60001F4F05C0AE2CBB2490E1A922BB24F80165
:102B70008491882361F762C2E7FE0EC09A0CF8893F
:102B8000F4FF04C08A81813309F49A94191454F52E
:102B9000292D293050F52DC0E6FC2BC0812F90E067
:102BA0008A159B054CF03CEFA3163FEFB30624F0CB
:102BB00080E8E82A01C01150112349F0E2E0F0E07A
:102BC000EC0FFD1FE10FF11D80818033A1F3E7FEC3
:102BD00010C0912E9394812F90E0A816B90644F46A
:102BE0001A1907C09924939404C098E0992E01C043
:102BF00010E0E7FE07C01A141B043CF495012F5F98
:102C00003F4F05C025E030E002C021E030E0002366
:102C100011F02F5F3F4F112329F0812F90E0019693
:102C2000280F391F8F2D90E02817390714F4F21A56
:102C300001C0FF244E2C5524C2018970907000976A
:102C400049F406C080E290E0B6010E94801BFA942D
:102C5000FF20C1F7002329F0802F90E0B6010E94E9
:102C6000801B43FC09C006C080E390E0B6010E94CF
:102C7000801BFA94FF20C1F7E7FE46C03501B7FE7E
:102C800002C06624772425010894411C511C461873
:102C90005708420C531CF501E919F1094F01812F26
:102CA00090E000271127081B190BFFEF6F16FFEFAD
:102CB0007F0629F48EE290E0B6010E94801BA614E4
:102CC000B70434F0861497041CF4F201808101C02B
:102CD00080E30894610871080894411C511C601637
:102CE00071062CF090E0B6010E94801BDECF6A14C2
:102CF0007B0441F49A81963320F4953319F4F889D2
:102D0000F4FF81E390E049C08A81813311F02FEE16
:102D1000622290E0B6010E94801B112389F08EE2AE
:102D200090E0B6010E94801B02E0F101E00FF11D6E
:102D30000F5F808190E0B6010E94801B1150A9F7BF
:102D400044FE03C085E490E002C085E690E0B60151
:102D50000E94801BB7FC05C0A114B10441F464FEBD
:102D600006C0B094A194B108B3948DE201C08BE287
:102D700090E0B6010E94801B80E305C08F5FE6EF04
:102D8000FFEFAE0EBF1EFAE0AF16B104BCF790E045
:102D9000B6010E94801BC501C096B6010E94801B2F
:102DA0004DC1833631F0833789F0833509F059C03E
:102DB00022C09A012E5F3F4F3D872C87FA01808108
:102DC0008983310181E0A82EB12C13C09A012E5FB6
:102DD0003F4F3D872C87FA016080718006FF03C05A
:102DE000612F70E002C06FEF7FEFC3010E94751B7F
:102DF0005C010F7714C09A012E5F3F4F3D872C87EF
:102E0000FA016080718006FF03C0612F70E002C08C
:102E10006FEF7FEFC3010E94631B5C01006803FD3D
:102E20001CC006C080E290E0B6010E94801BFA94AC
:102E30008F2D90E0A816B906A8F30FC0F30107FD87
:102E4000859107FF81913F0190E0B6010E94801BB0
:102E5000F110FA940894A108B108A114B10471F713
:102E6000EDC0843611F0893661F507FF0BC09A0179
:102E70002C5F3F4F3D872C87FA01608171818281F1
:102E800093810CC09A012E5F3F4F3D872C87FA013A
:102E900060817181882777FD8095982F0F7697FF45
:102EA00008C090958095709561957F4F8F4F9F4F8B
:102EB0000068A1012AE030E00E94DC1B982E9218E5
:102EC00041C0853721F40F7E2AE030E020C0097F21
:102ED0008F36A9F0803720F4883509F0B2C00BC0D6
:102EE000803721F0883709F0ACC001C0006104FFD1
:102EF00009C0046007C004FF08C0066006C028E0DF
:102F000030E005C020E130E002C020E132E007FF00
:102F10000AC0CA0104969D878C87FA01608171817D
:102F20008281938109C0CA0102969D878C87FA012C
:102F30006081718180E090E0A1010E94DC1B982EED
:102F400092180F7706FF09C00E7F911630F404FF28
:102F500006C002FD04C00F7E02C0E92C01C0E12EB4
:102F6000802F90E004FF0CC0FE01E90DF11D2081CF
:102F7000203311F4097E09C0E39402FF06C004C0A7
:102F800086789070009709F0E394A02EBB2403FD8F
:102F900014C000FF0FC0EF1428F4192D1F0D1E19C7
:102FA000EF2C08C0192D06C080E290E0B6010E9407
:102FB000801BE394EF14C0F304C0EF1410F4FE1868
:102FC00001C0FF24A4FE0FC080E390E0B6010E9480
:102FD000801BA2FE1FC0A1FE03C088E590E010C0C8
:102FE00088E790E00DC0C50186789070009791F059
:102FF000A1FC02C080E201C08BE207FD8DE290E0FF
:10300000B6010E94801B06C080E390E0B6010E94DA
:10301000801B11509116C0F39A94F101E90DF11D36
:10302000808190E0B6010E94801B9920A9F706C01C
:1030300080E290E0B6010E94801BFA94FF20C1F765
:1030400095CCF6012681378102C02FEF3FEFC901F1
:1030500063960FB6F894DEBF0FBECDBFCF91DF9160
:103060001F910F91FF90EF90DF90CF90BF90AF90A6
:103070009F908F907F906F905F904F903F902F9098
:1030800008955058BB27AA270ED04DC13ED130F02D
:1030900043D120F031F49F3F11F41EF433C10EF4FC
:1030A000E095E7FB29C1E92F4FD180F3BA176207FA
:1030B00073078407950718F071F49EF567C10EF445
:1030C000E0950B2EBA2FA02D0B01B90190010C0138
:1030D000CA01A0011124FF27591B99F0593F50F450
:1030E000503E68F11A16F040A22F232F342F4427A8
:1030F000585FF3CF469537952795A795F0405395A0
:10310000C9F77EF41F16BA0B620B730B840BBAF06F
:103110009150A1F0FF0FBB1F661F771F881FC2F7DA
:103120000EC0BA0F621F731F841F48F487957795EE
:103130006795B795F7959E3F08F0B3CF9395880FA5
:1031400008F09927EE0F9795879508950CD0EBC05E
:10315000E3D040F0DAD030F021F45F3F19F0CCC07A
:10316000511115C1CFC0F0D098F39923C9F355235D
:10317000B1F3951B550BBB27AA276217730784076A
:1031800038F09F5F5F4F220F331F441FAA1FA9F320
:1031900033D00E2E3AF0E0E830D091505040E69512
:1031A000001CCAF729D0FE2F27D0660F771F881F73
:1031B000BB1F261737074807AB07B0E809F0BB0B62
:1031C000802DBF01FF2793585F4F2AF09E3F510586
:1031D00068F092C0DCC05F3FECF3983EDCF386956C
:1031E00077956795B795F7959F5FC9F7880F911DFC
:1031F0009695879597F90895E1E0660F771F881FE8
:10320000BB1F621773078407BA0720F0621B730B9A
:10321000840BBA0BEE1F88F7E095089504D06894EC
:10322000B111B5C0089598D088F09F5790F0B92F8C
:103230009927B751A0F0D1F0660F771F881F991F0B
:103240001AF0BA95C9F712C0B13081F09FD0B1E041
:1032500008959CC0672F782F8827B85F39F0B93F51
:10326000CCF3869577956795B395D9F73EF490950D
:103270008095709561957F4F8F4F9F4F0895E8948B
:1032800009C097FB3EF490958095709561957F4FAE
:103290008F4F9F4F9923A9F0F92F96E9BB2793955C
:1032A000F695879577956795B795F111F8CFFAF46C
:1032B000BB0F11F460FF1BC06F5F7F4F8F4F9F4F9D
:1032C00016C0882311F096E911C0772321F09EE8FB
:1032D000872F762F05C0662371F096E8862F70E061
:1032E00060E02AF09A95660F771F881FDAF7880F3B
:1032F0009695879597F9089597F99F6780E870E00C
:1033000060E008959FEF80EC089500240A9416165B
:10331000170618060906089500240A9412161306C3
:10332000140605060895092E0394000C11F4882351
:1033300052F0BB0F40F4BF2B11F460FF04C06F5F6D
:103340007F4F8F4F9F4F089557FD9058440F551F43
:1033500059F05F3F71F04795880F97FB991F61F017
:103360009F3F79F087950895121613061406551F8E
:10337000F2CF4695F1DF08C0161617061806991FFA
:10338000F1CF86957105610508940895E894BB27EF
:1033900066277727CB0197F9089566D008F48FEF59
:1033A00008950BD0C0CFB1DF28F0B6DF18F0952319
:1033B00009F0A2CFA7CF1124EACFC6DFA0F3959FD3
:1033C000D1F3950F50E0551F629FF001729FBB270C
:1033D000F00DB11D639FAA27F00DB11DAA1F649FB8
:1033E0006627B00DA11D661F829F2227B00DA11D6B
:1033F000621F739FB00DA11D621F839FA00D611DF1
:10340000221F749F3327A00D611D231F849F600D11
:10341000211D822F762F6A2F11249F5750408AF04A
:10342000E1F088234AF0EE0FFF1FBB1F661F771FD6
:10343000881F91505040A9F79E3F510570F05CCF16
:10344000A6CF5F3FECF3983EDCF3869577956795C2
:10345000B795F795E7959F5FC1F7FE2B880F911DF4
:103460009695879597F90895990F0008550FAA0B1F
:10347000E0E8FEEF16161706E807F907C0F0121687
:103480001306E407F50798F0621B730B840B950B8A
:1034900039F40A2661F0232B242B252B21F40895DF
:1034A0000A2609F4A140A6958FEF811D811D08957C
:1034B000991B79E004C0991F961708F0961B881F86
:1034C0007A95C9F780950895AA1BBB1B51E107C0E7
:1034D000AA1FBB1FA617B70710F0A61BB70B881FA4
:1034E000991F5A95A9F780959095BC01CD01089533
:1034F00097FB092E07260AD077FD04D0E5DF06D01A
:1035000000201AF4709561957F4F0895F6F7909515
:1035100081959F4F0895283008F027E03327DA017E
:10352000990F311D87FD916000966105710539F491
:1035300032602E5F3D9330E32A95E1F708959F3F77
:1035400030F080387105610509F03C5F3C5F3D93C8
:10355000913008F08068911DDF93CF931F930F93F4
:10356000FF92EF92192F987F9695E92F9695969551
:10357000E90FFF27E251FF4F99273327EE24FF245D
:10358000A701E70105900894079428F4360FE71E79
:10359000F81E491F511D660F771F881F991F06943B
:1035A000A1F70590079428F4E70EF81E491F561F4F
:1035B000C11D770F881F991F661F0694A1F70590FC
:1035C000079428F4F80E491F561FC71FD11D880FF6
:1035D000991F661F771F0694A1F70590079420F4A2
:1035E000490F561FC71FD81F990F661F771F881FC7
:1035F0000694A9F784911095177041F0D695C79558
:1036000057954795F794E7941A95C1F7E4E9F0E0E8
:1036100068941590159135916591959105907FE28B
:103620007395E118F10A430B560BC90BD009C0F78B
:10363000E10CF11E431F561FC91FD01D7EF47033CD
:1036400011F48A95E6CFE894015030F0080F0AF49F
:103650000027021708F4202F2395022F7A3328F031
:1036600079E37D932A95E9F710C07D932A9589F631
:10367000069497956795379517951794E118F10A71
:10368000430B560BC90BD00998F023957E91739587
:103690007A3308F070E37C932013B8F77E91706161
:1036A0007D9330F0839571E37D9370E32A95E1F784
:1036B0001124EF90FF900F911F91CF91DF919927E7
:1036C00087FD90950895FC010590615070400110B0
:1036D000D8F7809590958E0F9F1F0895FB01DC0110
:1036E00001900D920020E1F70895FC0161507040B7
:1036F00001900110D8F7809590958E0F9F1F089527
:103700000F931F93CF93DF938C01EB018B8181FF8C
:103710001BC082FF0DC02E813F818C819D812817A7
:10372000390764F4E881F9810193F983E88306C0DD
:10373000E885F985802F0995009731F48E819F8166
:1037400001969F838E8302C00FEF1FEFC801DF91A8
:10375000CF911F910F9108950F931F93DF93CF93F4
:10376000CDB7DEB72E970FB6F894DEBF0FBECDBF34
:103770000D891E8986E08C831A8309838FEF9FE76A
:103780009E838D839E01275E3F4FCE0101966F89F8
:10379000788DA9010E949214EF81F885E00FF11F46
:1037A00010822E960FB6F894DEBF0FBECDBFCF911C
:1037B000DF911F910F910895FA01AA27283051F146
:1037C000203181F1E8946F936E7F6E5F7F4F8F4F52
:1037D0009F4FAF4FB1E03ED0B4E03CD0670F781FB1
:1037E000891F9A1FA11D680F791F8A1F911DA11D96
:1037F0006A0F711D811D911DA11D20D009F46894CF
:103800003F912AE0269F11243019305D3193DEF676
:10381000CF010895462F4770405D4193B3E00FD02C
:10382000C9F7F6CF462F4F70405D4A3318F0495D17
:1038300031FD4052419302D0A9F7EACFB4E0A695FA
:103840009795879577956795BA95C9F7009761051C
:10385000710508959B01AC010A2E06945795479572
:1038600037952795BA95C9F7620F731F841F951F67
:08387000A01D0895F894FFCF9C
:1038780030303A303000543D30302E30004300486C
:103888003D383825005A3D3100253032642F253027
:1038980032642F3230253032642C002530326400F7
:1038A8002530342E316600543D0025326400250051
:1038B8002520003A0020002564202D206572726FB3
:1038C800723A202564006572726F72207768696C9D
:1038D800652077726974696E6700256420617420B9
:1038E8002564002D00253032642F253032642F25C1
:1038F8003032640045646974696E67206461746578
:103908003A00436F6E6665726D693F2053692F4EAA
:103918006F00253032643A253032643A25303264FB
:103928000045646974696E672074696D653A00457D
:103938006469742074696D657A6F6E653A00313D0B
:10394800000100000000000000000000000000006E
:10395800312E54696D657A6F6E65202020202020F5
:1039680020202000322E4461746520202020202051
:103978002020202020202000332E54696D6520202F
:10398800202020202020202020202000342E5553C5
:1039980042207472616E73666572202020202000B8
:1039A800352E68656C6C6F20202020202020202078
:1039B80020202000362E776F726C64202020202073
:1039C8002020202020202000372E6F7374692020AB
:1039D80020202020202020202020200020202020FF
:1039E80020202020202020202020202020202000EF
:0C39F8001F1D1F1E1F1E1F1F1E1F1E1F55
:00000001FF
