:100000000C94C7000C94E6000C94E6000C94E600F7
:100010000C94E6000C94E6000C94E6000C94E600C8
:100020000C94E6000C94E6000C94E6000C94E600B8
:100030000C94E6000C94E6000C94E6000C94F70196
:100040000C94E6000C94E6000C94E6000C94E60098
:100050000C94E6000C94E8030C94E6000C94E60083
:100060000C94E6000C94E6000C94E6000C94E60078
:100070000C94E6000C94E6000C94E6000C94E60068
:100080000C94E6000C94E6000C94E6006E616E00A1
:10009000696E660000407A10F35A00A0724E18098B
:1000A0000010A5D4E80000E87648170000E40B54DF
:1000B000020000CA9A3B000000E1F50500008096AE
:1000C0009800000040420F000000A08601000000E0
:1000D000102700000000E80300000000640000009A
:1000E00000000A00000000000100000000002C7663
:1000F000D888DC674F0823DFC1DFAE59E1B1B7967E
:10010000E5E3E453C63AE651997696E8E6C28426DA
:10011000EB898C9B62ED407C6FFCEFBC9C9F40F2B6
:10012000BAA56FA5F490055A2AF75C936B6CF96732
:100130006DC11BFCE0E40D47FEF520E6B500D0EDF7
:10014000902E0300943577050080841E080000205F
:100150004E0A000000C80C333333330F986E1283FD
:100160001141EF8D2114893BE65516CFFEE6DB18D1
:10017000D1844B381BF77C1D901DA4BBE424203296
:1001800084725E228100C9F124ECA1E53D2711248F
:100190001FBECFEFD0E1DEBFCDBF12E0A0E0B1E0E7
:1001A000E8E8FFE100E00BBF02C007900D92AE331C
:1001B000B107D9F712E0AEE3B2E001C01D92A63755
:1001C000B107E1F70E9409060C94C20F0C940000DD
:1001D0008AB3807F8ABBA89AA99882E08A95F1F7B2
:1001E00000C0AA9A92E09A95F1F700C089B382956F
:1001F000807F92E09A95F1F700C0AA9895E09A95D1
:10020000F1F70000AA9A92E09A95F1F700C099B32D
:1002100092E09A95F1F700C0AA9895E09A95F1F7C7
:10022000000087FDDECFA8988AB38F608ABB08954F
:10023000282F22952F708F70662311F4A99801C082
:10024000A99A92E09A95F1F700C0AA9A9BB3907F81
:10025000922B9BBB95E09A95F1F70000AA9895E048
:100260009A95F1F70000AA9A9BB3907F982B9BBBBD
:1002700085E08A95F1F70000AA9895E09A95F1F744
:1002800000000E94E8000895DF93CF930F92CDB74E
:10029000DEB72FEF36E741E0215030404040E1F734
:1002A00000C000009AB39F609ABBA29AA19AA09A3C
:1002B0009BB3907F9BBBAA98A898A99800C000C048
:1002C0000000AA9AD99A35E03A95F1F70000AA9869
:1002D00045E04A95F1F7000089830E94E800898192
:1002E0008C6060E00E94180188E260E00E941801C2
:1002F0000F90CF91DF910895EF92FF92CF93DF930C
:10030000E82EE7017E01F92EE70103C061E00E94BB
:10031000180189918823D1F7DF91CF91FF90EF9059
:100320000895EF92FF920F931F93DF93CF9300D026
:1003300000D00F92CDB7DEB79B01FE01319645E0AC
:10034000DF011D924A95E9F7FE0136960AE010E0BA
:1003500005C0B8010E94F30D8293CB010097C9F745
:10036000BFEF2F3F3B0751F4FE01319680E090E054
:1003700001C0019621912223E1F304C085E090E0C1
:10038000821B930B8E010F5F1F4F080F191F7C01FB
:100390000AC0F80181918F01805D61E00E9418011F
:1003A0000894E11CF11CF5E0EF16F10494F30F90B2
:1003B0000F900F900F900F90CF91DF911F910F91A1
:1003C000FF90EF900895883230F461118064806866
:1003D00060E00E9418010895CF93DF93EA010E9424
:1003E000E301CE010E947C01DF91CF9108951F921D
:1003F0000F920FB60F920BB60F9211242F933F93CB
:100400008F939F93EF93FF9380915402882309F475
:1004100018C12091540231E03093540280B380938C
:100420006A0280916A0281708093690280916A02F7
:1004300080718093460280916A02827080936C0280
:1004400080916C028823B9F480916B02882399F41F
:100450008091590290915A02019690935A0280938A
:1004600059028091590290915A0285369105B8F14E
:1004700030936B0234C080916C02882311F010928B
:100480006B028091590290915A028F30910528F4A5
:1004900010925A021092590222C0809159029091F2
:1004A0005A028031910568F08091590290915A0268
:1004B0008436910530F410925A021092590286E067
:1004C0000CC08091590290915A028536910538F0FE
:1004D00010925A021092590287E080937102809123
:1004E0003E02882371F080916902882351F4809143
:1004F00055029091560201969093560280935502B0
:100500000EC080915502909156028F30910518F0DF
:1005100082E08093710210925602109255028091EF
:100520003E02882371F080914602882351F4809125
:100530005702909158020196909358028093570267
:100540000EC080915702909158028F30910518F09B
:1005500084E08093710210925802109257028091A9
:100560004702909148028336910550F480914702EA
:10057000909148020196909348028093470258C098
:10058000109248021092470281E0809344028091C9
:1005900049028B3330F4809149028F5F8093490286
:1005A00047C01092490280914A028B3330F4809107
:1005B0004A028F5F80934A023BC010924A028091A8
:1005C0004B02873130F480914B028F5F80934B0256
:1005D0002FC010924B0290914C02E0914D02F0E03E
:1005E000E358FE4F8081981790F480914C028F5F02
:1005F00080934C0280914C028D31D1F480914D0258
:100600008230B1F480914E02837091F014C0109248
:100610004C0280914D028C3020F480914D028F5F0E
:100620000DC010924D0280914E028F5F80934E025A
:100630002093540206C010924C0283E080934D0236
:10064000F7CFFF91EF919F918F913F912F910F9055
:100650000BBE0F900FBE0F901F90189587E086B9C4
:1006600087B18B6087B986B1886A86B9BF9A80E402
:1006700083BD8BE685BD80E00E94440181E060E09F
:100680000E94180188E060E040E051E00E94EC0127
:1006900080E061E049E051E00E94EC0183B78760AF
:1006A00083BF83B7886083BF87B7826087BF8CE9C9
:1006B00081BF7894369A0895AF92BF92CF92DF921D
:1006C000EF92FF920F931F93F89464B175B180E09D
:1006D00090E00E94F60C20E030E040EA50E40E94F6
:1006E000840D20E030E048E458E40E948E0C20E0C5
:1006F00030E040E250E40E942A0C9B01AC012093C0
:100700006D0230936E0240936F02509370026091BD
:100710006D0270916E0280916F0290917002E09074
:100720006D02F0906E0200916F021091700220E055
:1007300030EC4FE055E40E94840D20E030EE4BEAAF
:1007400055E40E94290C5B016C0160E070E080EAD6
:1007500090E4A80197010E94290C9B01AC01C601FD
:10076000B5010E948E0C9B01AC0120933F02309397
:100770004002409341025093420260913F027091C7
:100780004002809141029091420220E030E048EC2A
:1007900052E40E94290C25EC33E946EC5EE30E940A
:1007A0008E0C9B01AC012093720230937302409334
:1007B00074025093750281E08093450278941F91F2
:1007C0000F91FF90EF90DF90CF90BF90AF90089582
:1007D0001F920F920FB60F920BB60F9211241F9318
:1007E0002F933F934F935F936F937F938F939F9339
:1007F000AF93BF93EF93FF93809154028230E0F068
:1008000010915402809166029091670223E188382A
:10081000920750F48091660290916702019690933E
:1008200067028093660206C0109267021092660209
:100830000E945C0310935402FF91EF91BF91AF911E
:100840009F918F917F916F915F914F913F912F91E8
:100850001F910F900BBE0F900FBE0F901F90189519
:1008600020913E0230E08217930709F05FC080912B
:100870003E02813039F1813030F0823061F18330D5
:1008800009F054C04FC0F89481E060E00E94180164
:100890008FE060E00E94180188E060E04FE851E0DE
:1008A0000E94EC0180E061E041E151E00E94EC0136
:1008B00083E061E00E94E3018AE891E00E947C010C
:1008C0007894089581E060E00E94180180E060E083
:1008D00045E151E024C081E060E00E94180180E021
:1008E00060E04DE151E00E94EC014091680250E06F
:1008F00094E0440F551F9A95E1F747565E4F81E00B
:1009000060E00E94EC014091680250E084E0440FF6
:10091000551F8A95E1F747555E4F81E061E00E94DF
:10092000EC01089581E060E00E9418010895CF93E2
:10093000DF93809144028823D1F1109244024091C8
:100940004B0230914A02209149028DB79EB70A9717
:100950000FB6F8949EBF0FBE8DBFEDB7FEB73196B0
:10096000CFE8D1E0ADB7BEB71296DC93CE93119726
:100970008FE191E0938382834483158236831782CB
:10098000208711860E94340FEDB7FEB73A960FB656
:10099000F894FEBF0FBEEDBF80E060E04FE251E093
:1009A0000E94EC0188E060E0AE010E94EC018091C1
:1009B00045028823E1F110924502809172029091E4
:1009C0007302A0917402B09175022DB73EB7285002
:1009D00030400FB6F8943EBF0FBE2DBF4DB75EB787
:1009E0004F5F5F4FCAE8D1E0EDB7FEB7D283C18356
:1009F00028E331E0FA013383228384839583A6833D
:100A0000B7830E94340F2DB73EB7285F3F4F0FB614
:100A1000F8943EBF0FBE2DBF80E061E041E151E0A0
:100A20000E94EC0183E061E0AE010E94EC01DF91E5
:100A3000CF910895837021E030E011F020E030E0A4
:100A4000C9010895982F462F30916202A091620249
:100A500080916102F091610220916002E091600258
:100A6000933009F459C0943030F4992371F09130E7
:100A700009F0CEC023C0963009F48BC0973009F43A
:100A80009EC0943009F0C4C060C0623049F48091C7
:100A90006202833108F0BCC080916202865F0BC0A5
:100AA000643009F0B5C0809162028A3008F4B0C0A9
:100AB000809162028A508093620208955AE0832FE7
:100AC000652F0E94E70D292F30E08A2F0E94E70D45
:100AD000423081F42330310554F0482F50E0423049
:100AE00051050CF095C02930310509F491C02F5FF4
:100AF0003F4F09C0443009F08BC02115310509F47E
:100B000087C021503040880F982F990F990F980F68
:100B1000920F909362020895623049F480916102CD
:100B2000813308F075C080916102865F0BC064302C
:100B300009F06EC0809161028A3008F469C080912A
:100B400061028A508093610208955AE0652F0E94E5
:100B5000E70D292F30E08F2F0E94E70D423039F446
:100B60002930310509F454C02F5F3F4F09C044308C
:100B700009F04EC02115310509F44AC0215030401A
:100B8000880F982F990F990F980F920F90936102E9
:100B90000895623041F4809160028133C8F58091FC
:100BA0006002865F09C0643099F5809160028A30E6
:100BB00078F1809160028A508093600208955AE033
:100BC000822F652F0E94E70D292F30E08E2F0E9483
:100BD000E70D423071F429303105D1F02F5F3F4FDE
:100BE000880F982F990F990F980F920F909360028A
:100BF0000895443069F42115310551F021503040F9
:100C0000880F982F990F990F980F920F9093600269
:100C100008957F928F929F92AF92BF92CF92DF9270
:100C2000EF92FF920F931F93CF93DF9389E080930E
:100C300054028FEF8ABB83E184BB82BB0E942E03E8
:100C4000FF24F394CFE8D1E0E0E6CE2EE1E0DE2E03
:100C500078E0A72EB12C61E4862E61E0962E57E055
:100C6000E52E46E0742E20913E022130A9F021307D
:100C700030F0223009F498C02330A9F7FBC08091EE
:100C80007102882319F0873071F703C00E9497041E
:100C90007DC0F0923E0213C280917102843009F44B
:100CA00051C0853028F4882349F08230E1F63BC0FA
:100CB000863009F45DC08730B1F66BC080915D026B
:100CC000882321F480918901882369F21092890197
:100CD00010925D0280E060E04DE151E00E94EC0185
:100CE0004091680250E034E0440F551F3A95E1F717
:100CF00047565E4F81E060E00E94EC0180E061E0D9
:100D00004FE351E00E94EC014091680250E024E082
:100D1000440F551F2A95E1F747555E4F81E061E08A
:100D20000E94EC01A0CF809168028F5F80936802DF
:100D3000809168026E2D0E94E70D909368022093C7
:100D40005D02BDC180916802882331F08091680204
:100D500081508093680202C070926802809168029C
:100D60006E2D0E94E70D90936802F0925D02A7C17C
:100D700080916802813019F0823041F402C082E033
:100D800001C083E080933E0210927102F0928901CB
:100D90006ACF10923E021092710281E060E00E94E0
:100DA0001801109268025FCF80917102882321F0B0
:100DB000873009F05FC058C080918901882309F409
:100DC00059C01092890181E060E00E9418012091D1
:100DD0004C0290914D0280914E024DB75EB74A5041
:100DE00050400FB6F8945EBF0FBE4DBFEDB7FEB7D3
:100DF0003196ADB7BEB71296DC93CE93119793821E
:100E000082822483158296831782808711860E94AE
:100E1000340FAEE5B2E0E7E4F2E088E001900D9235
:100E20008150E1F72DB73EB7265F3F4F0FB6F894DC
:100E30003EBF0FBE2DBF60E042E551E00E94EC01D5
:100E400082E061E04FE851E00E94EC018FE060E059
:100E50000E9418010AE010E080E160E00E941801A1
:100E600001501040C9F706C0F0923E021092710284
:100E7000F092890180917102843009F4B0C085300C
:100E800030F4882359F0823009F0EDCE5FC086300F
:100E900009F4EBC0873009F0E6CE14C180918901D6
:100EA000882309F4E0CE1092890181E060E00E947D
:100EB000180120914B0290914A02809149024DB74E
:100EC0005EB74A5050400FB6F8945EBF0FBE4DBF9C
:100ED000EDB7FEB73196ADB7BEB71296DC93CE93A1
:100EE0001197D382C28224831582968317828087CA
:100EF00011860E94340FAEE5B2E0E7E4F2E088E04C
:100F000001900D928150E1F72DB73EB7265F3F4F1C
:100F10000FB6F8943EBF0FBE2DBF60E04FE651E024
:100F20000E94EC0183E061E04FE851E00E94EC0197
:100F30008FE060E00E94180108E010E080E160E0CE
:100F40000E94180101501040C9F78DCE1092710215
:100F50008091430262E00E942205209162029091FA
:100F60006102809160024DB75EB74A5050400FB6A3
:100F7000F8945EBF0FBE4DBFEDB7FEB73196ADB76B
:100F8000BEB71296DC93CE931197D382C28224838C
:100F9000158296831782808711860E94340F2DB7A1
:100FA0003EB7265F3F4F0FB6F8943EBF0FBE2DBF32
:100FB00083E061E0AE010E94EC0100E010E006C0B9
:100FC00080E160E00E9418010F5F1F4F8091430293
:100FD000A501481B51090417150794F344CE10923C
:100FE00071028091430264E00E9422052091620216
:100FF0009091610280916002ADB7BEB71A970FB6AB
:10100000F894BEBF0FBEADBFEDB7FEB731961296D6
:10101000DC93CE931197D382C28224831582968368
:101020001782808711860E94340F2DB73EB7265F46
:101030003F4F0FB6F8943EBF0FBE2DBF83E061E077
:10104000AE010E94EC0100E010E006C080E160E02B
:101050000E9418010F5F1F4F80914302A501481B9A
:1010600051090417150794F3FECD80914302873090
:1010700050F484E160E00E941801809143028F5F88
:10108000809343020BC01092430207E010E080E11E
:1010900060E00E94180101501040C9F7809143029E
:1010A000823021F080914302853049F484E160E090
:1010B0000E941801809143028F5F80934302109237
:1010C0007102D1CDA7E4B2E0EEE5F2E088E0019054
:1010D0000D928150E1F7F0923E0210927102F0926F
:1010E000890182E060E00E9418018CE060E00E94CB
:1010F0001801B9CD2F923F924F925F926F927F92DB
:101100008F929F92AF92BF92CF92DF92EF92FF9217
:101110000F931F93DF93CF93CDB7DEB763970FB6CF
:10112000F894DEBF0FBECDBF6C017F876E87FC01D8
:1011300017821682838181FD04C06FC34C855D8553
:1011400004C01E010894211C311CF6019381EE8518
:10115000FF8593FD859193FF8191FF87EE8788231B
:1011600009F457C3853241F493FD859193FF819132
:10117000FF87EE87853259F490E0B6014A8B5B8B8E
:101180000E94080F4A895B895D874C87D7CF10E0A2
:10119000FF2400E00032B0F48B3269F08C3228F486
:1011A000803251F0833271F40BC08D3239F08033CC
:1011B00049F401602CC00260046029C0086027C0A7
:1011C000006125C007FD2EC0282F20532A3098F437
:1011D00006FF08C0812F880F182F110F110F180F4D
:1011E000120F15C08F2D880FF82EFF0CFF0CF80E74
:1011F000F20E00620CC08E3221F406FD0AC30064B8
:1012000006C08C3611F4006802C0883659F4EE85A9
:10121000FF8593FD859193FF8191FF87EE8788235A
:1012200009F0B8CF982F9554933018F40061805E80
:1012300006C0982F9556933008F09BC10F7E06FF8D
:1012400016E06FE3E62EE022853619F4F0E4EF2A8B
:1012500007C0863619F420E8E22A02C011111150A5
:10126000E7FE06C01C3340F4912E939427E00BC098
:10127000183030F4212F06C027E03CE3932E03C042
:1012800027E017E09924CA0104969D878C87FA010C
:101290006081718182819381A101092D0E941A0EC2
:1012A0005C016980262D30E0398B288B60FE03C0FD
:1012B000388933FF06C0E1FC06C0E2FE06C000E24A
:1012C00005C00DE203C00BE201C000E088899989E6
:1012D0008C7090700097C1F1002311F084E001C080
:1012E00083E08F1558F4F81AE3FC09C080E290E01F
:1012F000B6010E94080FFA94C9F701C0FF24002329
:1013000029F0802F90E0B6010E94080F888983FDA4
:1013100003C000E910E00EC00CE810E00BC0A114FF
:10132000B10409F0805290E0B6010E94080F0F5FEF
:101330001F4F05C0AE2CBB2490E1A922BB24F801AD
:101340008491882361F762C2E7FE0EC09A0CF88987
:10135000F4FF04C08A81813309F49A94191454F576
:10136000292D293050F52DC0E6FC2BC0812F90E0AF
:101370008A159B054CF03CEFA3163FEFB30624F013
:1013800080E8E82A01C01150112349F0E2E0F0E0C2
:10139000EC0FFD1FE10FF11D80818033A1F3E7FE0B
:1013A00010C0912E9394812F90E0A816B90644F4B2
:1013B0001A1907C09924939404C098E0992E01C08B
:1013C00010E0E7FE07C01A141B043CF495012F5FE0
:1013D0003F4F05C025E030E002C021E030E00023AF
:1013E00011F02F5F3F4F112329F0812F90E00196DC
:1013F000280F391F8F2D90E02817390714F4F21A9F
:1014000001C0FF244E2C5524C201897090700097B2
:1014100049F406C080E290E0B6010E94080FFA94F9
:10142000FF20C1F7002329F0802F90E0B6010E9431
:10143000080F43FC09C006C080E390E0B6010E949B
:10144000080FFA94FF20C1F7E7FE46C03501B7FE4A
:1014500002C06624772425010894411C511C4618BB
:101460005708420C531CF501E919F1094F01812F6E
:1014700090E000271127081B190BFFEF6F16FFEFF5
:101480007F0629F48EE290E0B6010E94080FA614B0
:10149000B70434F0861497041CF4F201808101C073
:1014A00080E30894610871080894411C511C60167F
:1014B00071062CF090E0B6010E94080FDECF6A148E
:1014C0007B0441F49A81963320F4953319F4F8891A
:1014D000F4FF81E390E049C08A81813311F02FEE5F
:1014E000622290E0B6010E94080F112389F08EE27B
:1014F00090E0B6010E94080F02E0F101E00FF11D3B
:101500000F5F808190E0B6010E94080F1150A9F78B
:1015100044FE03C085E490E002C085E690E0B60199
:101520000E94080FB7FC05C0A114B10441F464FE89
:1015300006C0B094A194B108B3948DE201C08BE2CF
:1015400090E0B6010E94080F80E305C08F5FE6EFD0
:10155000FFEFAE0EBF1EFAE0AF16B104BCF790E08D
:10156000B6010E94080FC501C096B6010E94080F7F
:101570004DC1833631F0833789F0833509F059C086
:1015800022C09A012E5F3F4F3D872C87FA01808150
:101590008983310181E0A82EB12C13C09A012E5FFE
:1015A0003F4F3D872C87FA016080718006FF03C0A2
:1015B000612F70E002C06FEF7FEFC3010E94FD0E4C
:1015C0005C010F7714C09A012E5F3F4F3D872C8737
:1015D000FA016080718006FF03C0612F70E002C0D5
:1015E0006FEF7FEFC3010E94F20E5C01006803FD04
:1015F0001CC006C080E290E0B6010E94080FFA9479
:101600008F2D90E0A816B906A8F30FC0F30107FDCF
:10161000859107FF81913F0190E0B6010E94080F7C
:10162000F110FA940894A108B108A114B10471F75B
:10163000EDC0843611F0893661F507FF0BC09A01C1
:101640002C5F3F4F3D872C87FA0160817181828139
:1016500093810CC09A012E5F3F4F3D872C87FA0182
:1016600060817181882777FD8095982F0F7697FF8D
:1016700008C090958095709561957F4F8F4F9F4FD3
:101680000068A1012AE030E00E94640F982E9218B1
:1016900041C0853721F40F7E2AE030E020C0097F69
:1016A0008F36A9F0803720F4883509F0B2C00BC01E
:1016B000803721F0883709F0ACC001C0006104FF19
:1016C00009C0046007C004FF08C0066006C028E027
:1016D00030E005C020E130E002C020E132E007FF49
:1016E0000AC0CA0104969D878C87FA0160817181C6
:1016F0008281938109C0CA0102969D878C87FA0175
:101700006081718180E090E0A1010E94640F982EB9
:1017100092180F7706FF09C00E7F911630F404FF70
:1017200006C002FD04C00F7E02C0E92C01C0E12EFC
:10173000802F90E004FF0CC0FE01E90DF11D208117
:10174000203311F4097E09C0E39402FF06C004C0EF
:1017500086789070009709F0E394A02EBB2403FDD7
:1017600014C000FF0FC0EF1428F4192D1F0D1E190F
:10177000EF2C08C0192D06C080E290E0B6010E944F
:10178000080FE394EF14C0F304C0EF1410F4FE1834
:1017900001C0FF24A4FE0FC080E390E0B6010E94C8
:1017A000080FA2FE1FC0A1FE03C088E590E010C094
:1017B00088E790E00DC0C50186789070009791F0A1
:1017C000A1FC02C080E201C08BE207FD8DE290E047
:1017D000B6010E94080F06C080E390E0B6010E94A7
:1017E000080F11509116C0F39A94F101E90DF11D03
:1017F000808190E0B6010E94080F9920A9F706C0E9
:1018000080E290E0B6010E94080FFA94FF20C1F731
:1018100095CCF6012681378102C02FEF3FEFC90139
:1018200063960FB6F894DEBF0FBECDBFCF91DF91A8
:101830001F910F91FF90EF90DF90CF90BF90AF90EE
:101840009F908F907F906F905F904F903F902F90E0
:1018500008955058BB27AA270ED01CC10DD130F0D7
:1018600012D120F031F49F3F11F41EF402C10EF4A6
:10187000E095E7FBF8C0E92F1ED180F3BA176207A5
:1018800073078407950718F071F49EF536C10EF4BE
:10189000E0950B2EBA2FA02D0B01B90190010C0180
:1018A000CA01A0011124FF27591B99F0593F50F498
:1018B000503E68F11A16F040A22F232F342F4427F0
:1018C000585FF3CF469537952795A795F0405395E8
:1018D000C9F77EF41F16BA0B620B730B840BBAF0B8
:1018E0009150A1F0FF0FBB1F661F771F881FC2F723
:1018F0000EC0BA0F621F731F841F48F48795779537
:101900006795B795F7959E3F08F0B3CF9395880FED
:1019100008F09927EE0F9795879508950CD0BAC0D7
:10192000B2D040F0A9D030F021F45F3F19F09BC055
:101930005111E4C09EC0BFD098F39923C9F3552339
:10194000B1F3951B550BBB27AA27621773078407B2
:1019500038F09F5F5F4F220F331F441FAA1FA9F368
:1019600033D00E2E3AF0E0E830D091505040E6955A
:10197000001CCAF729D0FE2F27D0660F771F881FBB
:10198000BB1F261737074807AB07B0E809F0BB0BAA
:10199000802DBF01FF2793585F4F2AF09E3F5105CE
:1019A00068F061C0ABC05F3FECF3983EDCF3869516
:1019B00077956795B795F7959F5FC9F7880F911D44
:1019C0009695879597F90895E1E0660F771F881F30
:1019D000BB1F621773078407BA0720F0621B730BE3
:1019E000840BBA0BEE1F88F7E0950895E89409C0C0
:1019F00097FB3EF490958095709561957F4F8F4F42
:101A00009F4F9923A9F0F92F96E9BB279395F69557
:101A1000879577956795B795F111F8CFFAF4BB0FD5
:101A200011F460FF1BC06F5F7F4F8F4F9F4F16C039
:101A3000882311F096E911C0772321F09EE8872FC3
:101A4000762F05C0662371F096E8862F70E060E07F
:101A50002AF09A95660F771F881FDAF7880F9695F8
:101A6000879597F9089597F99F6780E870E060E09F
:101A700008959FEF80EC089500240A941616170627
:101A800018060906089500240A941216130614066F
:101A900005060895092E0394000C11F4882352F0D2
:101AA000BB0F40F4BF2B11F460FF04C06F5F7F4F8A
:101AB0008F4F9F4F089557FD9058440F551F59F071
:101AC0005F3F71F04795880F97FB991F61F09F3F2B
:101AD00079F087950895121613061406551FF2CF54
:101AE0004695F1DF08C0161617061806991FF1CFA4
:101AF00086957105610508940895E894BB276627CB
:101B00007727CB0197F908950BD0C4CFB5DF28F024
:101B1000BADF18F0952309F0A6CFABCF1124EECF92
:101B2000CADFA0F3959FD1F3950F50E0551F629F38
:101B3000F001729FBB27F00DB11D639FAA27F00D26
:101B4000B11DAA1F649F6627B00DA11D661F829F4D
:101B50002227B00DA11D621F739FB00DA11D621F32
:101B6000839FA00D611D221F749F3327A00D611D4F
:101B7000231F849F600D211D822F762F6A2F112431
:101B80009F5750408AF0E1F088234AF0EE0FFF1F84
:101B9000BB1F661F771F881F91505040A9F79E3FBB
:101BA000510570F060CFAACF5F3FECF3983EDCF3B5
:101BB000869577956795B795F795E7959F5FC1F7F8
:101BC000FE2B880F911D9695879597F90895991B7F
:101BD00079E004C0991F961708F0961B881F7A9524
:101BE000C9F78095089597FB092E07260AD077FD3F
:101BF00004D00CD006D000201AF4709561957F4F68
:101C00000895F6F7909581959F4F0895AA1BBB1BE9
:101C100051E107C0AA1FBB1FA617B70710F0A61BEC
:101C2000B70B881F991F5A95A9F780959095BC010D
:101C3000CD010895283008F027E03327DA01990F05
:101C4000311D87FD916000966105710539F43260A0
:101C50002E5F3D9330E32A95E1F708959F3F30F0E2
:101C600080387105610509F03C5F3C5F3D93913020
:101C700008F08068911DDF93CF931F930F93FF921D
:101C8000EF92192F987F9695E92F96959695E90FE3
:101C9000FF27E251FF4F99273327EE24FF24A701A6
:101CA000E70105900894079428F4360FE71EF81E04
:101CB000491F511D660F771F881F991F0694A1F7B2
:101CC0000590079428F4E70EF81E491F561FC11D02
:101CD000770F881F991F661F0694A1F70590079438
:101CE00028F4F80E491F561FC71FD11D880F991FD2
:101CF000661F771F0694A1F70590079420F4490FFB
:101D0000561FC71FD81F990F661F771F881F06947D
:101D1000A9F784911095177041F0D695C7955795FE
:101D20004795F794E7941A95C1F7E4E9F0E06894D1
:101D30001590159135916591959105907FE2739578
:101D4000E118F10A430B560BC90BD009C0F7E10C9F
:101D5000F11E431F561FC91FD01D7EF4703311F4AE
:101D60008A95E6CFE894015030F0080F0AF4002776
:101D7000021708F4202F2395022F7A3328F079E3F5
:101D80007D932A95E9F710C07D932A9589F60694EC
:101D900097956795379517951794E118F10A430BB6
:101DA000560BC90BD00998F023957E9173957A3321
:101DB00008F070E37C932013B8F77E9170617D93F7
:101DC00030F0839571E37D9370E32A95E1F7112458
:101DD000EF90FF900F911F91CF91DF91992787FD91
:101DE00090950895FC010590615070400110D8F75E
:101DF000809590958E0F9F1F0895FC016150704053
:101E000001900110D8F7809590958E0F9F1F08952F
:101E10000F931F93CF93DF938C01EB018B8181FF95
:101E20001BC082FF0DC02E813F818C819D812817B0
:101E3000390764F4E881F9810193F983E88306C0E6
:101E4000E885F985802F0995009731F48E819F816F
:101E500001969F838E8302C00FEF1FEFC801DF91B1
:101E6000CF911F910F9108950F931F93DF93CF93FD
:101E7000CDB7DEB72E970FB6F894DEBF0FBECDBF3D
:101E80000D891E8986E08C831A8309838FEF9FE773
:101E90009E838D839E01275E3F4FCE0101966F8901
:101EA000788DA9010E947A08EF81F885E00FF11F73
:101EB00010822E960FB6F894DEBF0FBECDBFCF9125
:101EC000DF911F910F910895FA01AA27283051F14F
:101ED000203181F1E8946F936E7F6E5F7F4F8F4F5B
:101EE0009F4FAF4FB1E03ED0B4E03CD0670F781FBA
:101EF000891F9A1FA11D680F791F8A1F911DA11D9F
:101F00006A0F711D811D911DA11D20D009F46894D7
:101F10003F912AE0269F11243019305D3193DEF67F
:101F2000CF010895462F4770405D4193B3E00FD035
:101F3000C9F7F6CF462F4F70405D4A3318F0495D20
:101F400031FD4052419302D0A9F7EACFB4E0A69503
:101F50009795879577956795BA95C9F70097610525
:101F6000710508959B01AC010A2E0694579547957B
:101F700037952795BA95C9F7620F731F841F951F70
:081F8000A01D0895F894FFCFA5
:101F880030303A30303A303000543D20302E303046
:101F980000543D20006E6F7468696E67002D00253F
:101FA8003032643A253032643A25303264200020D9
:101FB80020202020202020002530352E32660020C9
:101FC80000253032642F253032642F3230253032EC
:101FD800640045646974696E6720646174653A00D9
:101FE800253032643A253032643A2530326400456F
:101FF800646974696E672074696D653A001F1C1FF7
:102008001E1F1E1F1F1E1F1E1F01000000000000B4
:10201800000000000000000000312E54696D657A50
:102028006F6E65202020202000322E4461746520C8
:10203800202020202020202000332E54696D652088
:10204800202020202020202000342E5553422074A8
:1020580072616E736665722000352E68656C6C6FF0
:10206800202020202020202000362E776F726C64DC
:10207800202020202020202000372E6F7374692014
:102088002020202020202020002020202020202068
:102098002020202020202020000000000000000038
:1020A80000000000000000000000000000002020E8
:0E20B80020202020202020202020202020007A
:00000001FF
