:100000000C94C7000C94E6000C94E6000C94E600F7
:100010000C94E6000C94E6000C94E6000C94E600C8
:100020000C94E6000C9439070C94E6000C94E6005E
:100030000C94E6000C94E6000C94E6000C94E205A7
:100040000C94E6000C94E6000C94E6000C94E60098
:100050000C94E6000C94B8120C94E6000C94E600A4
:100060000C94E6000C94E6000C94E6000C94E60078
:100070000C94E6000C94E6000C94E6000C94E60068
:100080000C94E6000C94E6000C94E6006E616E00A1
:10009000696E660000407A10F35A00A0724E18098B
:1000A0000010A5D4E80000E87648170000E40B54DF
:1000B000020000CA9A3B000000E1F50500008096AE
:1000C0009800000040420F000000A08601000000E0
:1000D000102700000000E80300000000640000009A
:1000E00000000A00000000000100000000002C7663
:1000F000D888DC674F0823DFC1DFAE59E1B1B7967E
:10010000E5E3E453C63AE651997696E8E6C28426DA
:10011000EB898C9B62ED407C6FFCEFBC9C9F40F2B6
:10012000BAA56FA5F490055A2AF75C936B6CF96732
:100130006DC11BFCE0E40D47FEF520E6B500D0EDF7
:10014000902E0300943577050080841E080000205F
:100150004E0A000000C80C333333330F986E1283FD
:100160001141EF8D2114893BE65516CFFEE6DB18D1
:10017000D1844B381BF77C1D901DA4BBE424203296
:1001800084725E228100C9F124ECA1E53D2711248F
:100190001FBECFEFD0E1DEBFCDBF12E0A0E0B1E0E7
:1001A000E6E2F6E300E00BBF02C007900D92A03636
:1001B000B107D9F714E0A0E6B2E001C01D92A83C57
:1001C000B107E1F70E94D60A0C94111B0C940000B1
:1001D000982F462F3091A904A091A9048091A804DA
:1001E000F091A8042091A704E091A704933009F4AA
:1001F00059C0943030F4992371F0913009F0CEC099
:1002000023C0963009F48BC0973009F49EC0943017
:1002100009F0C4C060C0623049F48091A9048E30F6
:1002200008F0BCC08091A904865F0BC0643009F05F
:10023000B5C08091A9048A3008F4B0C08091A904A7
:100240008A508093A90408955AE0832F652F0E9455
:100250003619292F30E08A2F0E943619423081F456
:100260002330310554F0482F50E0423051050CF056
:1002700095C02930310509F491C02F5F3F4F09C067
:10028000443009F08BC02115310509F487C0215095
:100290003040880F982F990F990F980F920F9093D5
:1002A000A9040895623049F48091A804823308F0CB
:1002B00075C08091A804865F0BC0643009F06EC0E1
:1002C0008091A8048A3008F469C08091A8048A50FB
:1002D0008093A80408955AE0652F0E943619292FAB
:1002E00030E08F2F0E943619423039F42930310521
:1002F00009F454C02F5F3F4F09C0443009F04EC08D
:100300002115310509F44AC021503040880F982F3B
:10031000990F990F980F920F9093A8040895623047
:1003200041F48091A7048233C8F58091A704865FC9
:1003300009C0643099F58091A7048A3078F18091E2
:10034000A7048A508093A70408955AE0822F652F4E
:100350000E943619292F30E08E2F0E943619423024
:1003600071F429303105D1F02F5F3F4F880F982F5E
:10037000990F990F980F920F9093A7040895443006
:1003800069F42115310551F021503040880F982F24
:10039000990F990F980F920F9093A70408958CE0EE
:1003A00080937000E1E7F0E080818C7F8083089586
:1003B00054EA40EA34E8509374002091740027FF17
:1003C000FCCF20917100287F283009F040C0409375
:1003D0007300309374002091740027FFFCCF2091AC
:1003E0007100287F283139F79093730094E8909337
:1003F00074009091740097FFFCCF90917100987FEA
:10040000983229F58093730084E88093740080917A
:10041000740087FFFCCF80917100887F8832B9F427
:100420006093730084E8809374008091740087FF68
:10043000FCCF80917100887F883259F484E98093E1
:1004400074008091740084FDFCCF81E0089580E009
:10045000089580E0089554EA40EA34E85093740027
:100460002091740027FFFCCF20917100287F283055
:1004700009F05BC0409373003093740020917400C6
:1004800027FFFCCF20917100287F283139F7909306
:10049000730094E8909374009091740097FFFCCFE0
:1004A00090917100987F983209F03FC0809373005B
:1004B00084E8809374008091740087FFFCCF809162
:1004C0007100887F883289F584EA80937400809176
:1004D000740087FFFCCF80917100887F803129F5FF
:1004E00081EA8093730084E88093740080917400A3
:1004F00087FFFCCF80917100887F8034B1F484E85D
:10050000809374008091740087FFFCCF809171000C
:10051000887F883561F48091730094E9909374002A
:100520009091740094FDFCCF089580E0089580E0E0
:1005300008958AB3807F8ABBA89AA99882E08A9599
:10054000F1F700C0AA9A92E09A95F1F700C089B33A
:100550008295807F92E09A95F1F700C0AA9895E085
:100560009A95F1F70000AA9A92E09A95F1F700C0E7
:1005700099B392E09A95F1F700C0AA9895E09A9500
:10058000F1F7000087FDDECFA8988AB38F608ABBA1
:100590000895282F22952F708F70662311F4A99843
:1005A00001C0A99A92E09A95F1F700C0AA9A9BB36C
:1005B000907F922B9BBB95E09A95F1F70000AA984B
:1005C00095E09A95F1F70000AA9A9BB3907F982B3B
:1005D0009BBB85E08A95F1F70000AA9895E09A9573
:1005E000F1F700000E9499020895DF93CF930F92D4
:1005F000CDB7DEB72FEF36E741E021503040404025
:10060000E1F700C000009AB39F609ABBA29AA19A3A
:10061000A09A9BB3907F9BBBAA98A898A99800C06A
:1006200000C00000AA9AD99A35E03A95F1F7000087
:10063000AA9845E04A95F1F7000089830E94990243
:1006400089818C6060E00E94C90288E260E00E94BB
:10065000C9020F90CF91DF910895EF92FF92CF934F
:10066000DF93E82EE7017E01F92EE70103C061E088
:100670000E94C90289918823D1F7DF91CF91FF9021
:10068000EF900895EF92FF920F931F93DF93CF9314
:1006900000D000D00F92CDB7DEB79B01FE0131969E
:1006A00045E0DF011D924A95E9F7FE0136960AE022
:1006B00010E005C0B8010E9456198293CB01009743
:1006C000C9F7BFEF2F3F3B0751F4FE01319680E0A1
:1006D00090E001C0019621912223E1F304C085E05E
:1006E00090E0821B930B8E010F5F1F4F080F191FA5
:1006F0007C010AC0F80181918F01805D61E00E9458
:10070000C9020894E11CF11CF5E0EF16F10494F322
:100710000F900F900F900F900F90CF91DF911F913E
:100720000F91FF90EF900895883230F4611180644A
:10073000806860E00E94C9020895CF93DF93EA01C8
:100740000E949403CE010E942D03DF91CF91089562
:10075000109271008CE0809370009091700081E0A5
:100760009B3008F480E0089584EA809374008091BF
:10077000740087FFFCCF80917100887F883041F042
:1007800090917100987F81E0903119F480E0089594
:1007900080E0089594EA909374009091740097FF1C
:1007A000FCCF90917100987F983011F0903191F4C6
:1007B0008093730084E8809374008091740087FFB5
:1007C000FCCF90917100983139F081E0903429F498
:1007D00080E0089582E0089580E0089584EA80939F
:1007E00074008091740087FFFCCF90917100987F16
:1007F00081E0903109F480E0089580FF02C040E478
:1008000001C048E18093730084E880937400809174
:1008100074008064809374008091740087FFFCCF23
:100820002091710030E0287F307050E081E0241783
:10083000350709F480E0089580FF02C048E401C054
:1008400040E28093730084E8809374008091740088
:1008500087FFFCCF2091710030E0287F307050E09E
:1008600081E02417350709F480E008958093730030
:1008700084EC809374008091740087FFFCCF90918A
:100880007100987F81E0983209F480E008958093A8
:10089000730084E8809374008091740087FFFCCF1C
:1008A00090917100987F81E0903309F480E0089581
:1008B00084EC809374008091740087FFFCCF80915A
:1008C0007100887F803519F48091730008958EE758
:1008D000089584E8809374008091740087FFFCCFB2
:1008E00080917100887F883519F480917300089594
:1008F0008EE7089584E9809374008091740084FDEC
:10090000FCCF08951F93CF93DF9380EA0E94CA0320
:10091000182F80E00E943604182B80E00E943604D5
:10092000812B813041F0C0E0D0E00AC08FEF0E94FF
:100930003604813021F40E947A0481E006C02196B9
:10094000D7FFF4CF0E947A0480E0DF91CF911F910E
:100950000895CF92DF92EF92FF920F931F93DF9350
:10096000CF9300D0CDB7DEB7082F6B01F42EE22E67
:100970005A8399830E94B403182FEFEDFEE231975A
:10098000F1F700C0000080EA0E94FD03182B998156
:10099000892F0E943604182B802F0E943604182BB2
:1009A0000E94EE03182B81EA0E94FD03182B5A8146
:1009B0001123B1F00E947A041EC0EE2019F00E94AB
:1009C000580402C00E946904F80180830F5F1F4F22
:1009D000F80180818E3731F40E947A041EE70BC043
:1009E0000F2D152F802F8F1990E08C159D0528F362
:1009F0000E947A041C2D812F0F900F90CF91DF91D0
:100A00001F910F91FF90EF90DF90CF9008959695F2
:100A1000982F88279795879560E870E040E050E030
:100A200020E00E94A90480E090E008950F931F93B6
:100A3000DF93CF9300D00F92CDB7DEB7182F80EAA7
:100A40004B836A8399830E94CA03082F9981892F57
:100A50000E943604082B812F0E943604802B4B8184
:100A60006A81813059F0442321F0862F0E94360498
:100A700003C0862F0E944704813021F40E947A042B
:100A800081E009C00E947A048FE19EE40197F1F7AA
:100A900000C0000080E00F900F900F90CF91DF9189
:100AA0001F910F910895DF92EF92FF920F931F9382
:100AB000CF93DF937C018B01EA01DD240EC0EC0FA4
:100AC000FD1FC701608141E00E941605882321F0C7
:100AD0000E947A0481E007C0D394ED2DF0E0E01786
:100AE000F10768F380E0DF91CF911F910F91FF90A4
:100AF000EF90DF900895EF92FF920F931F93DF9393
:100B0000CF930F92CDB7DEB77B018C011695102FD6
:100B100000271795079520E0F701E20FF11DC801A6
:100B2000608141E029830E9416052981882321F0F4
:100B30000E947A0481E004C02F5F203869F780E0CA
:100B40000F90CF91DF911F910F91FF90EF9008953B
:100B5000FF920F931F93DF93CF930F92CDB7DEB722
:100B6000182FF62E80EA99830E94CA039981882360
:100B7000D1F4892F0E943604082F812F0E94360459
:100B8000082B0E94EE03082B81EA0E94FD03802BB4
:100B9000813049F0FF2019F00E94580402C00E94E1
:100BA00069048E3721F40E947A048DE704C089839A
:100BB0000E947A0489810F90CF91DF911F910F914C
:100BC000FF9008951F920F920FB60F920BB60F92DF
:100BD00011242F933F938F939F93EF93FF938091D3
:100BE000FE02882309F438C12091FE0231E03093DF
:100BF000FE0281B18093B0048091B0048072809332
:100C0000AF048091B00480788093F0028091B004AA
:100C100080748093BA048091BA048823B9F48091D7
:100C2000B904882399F480916E0290916F02019625
:100C300090936F0280936E0280916E0290916F028A
:100C400085369105B8F13093B90434C08091BA0467
:100C5000882311F01092B90480916E0290916F0276
:100C60008F30910528F410926F0210926E0222C00C
:100C700080916E0290916F028031910568F08091B1
:100C80006E0290916F028436910530F410926F02DB
:100C900010926E0286E00CC080916E0290916F02FD
:100CA0008536910538F010926F0210926E0287E03F
:100CB0008093C3048091AF04882351F480916A0229
:100CC00090916B02019690936B0280936A020EC022
:100CD00080916A0290916B028F30910518F082E04A
:100CE0008093C30410926B0210926A028091F0020A
:100CF000882351F480916C0290916D02019690933B
:100D00006D0280936C020EC080916C0290916D0216
:100D10008F30910518F084E08093C30410926D0227
:100D200010926C028091AF04882371F48091F002DC
:100D3000882351F4809170029091710201969093F2
:100D40007102809370020EC08091700290917102C6
:100D50008F30910518F088E08093C30410927102DF
:100D6000109270028091F5029091F60283369105FF
:100D700050F48091F5029091F60201969093F6025C
:100D80008093F5025FC01092F6021092F5028091F6
:100D9000F7028B3348F48091F7028F5F8093F7025C
:100DA00081E08093EF024EC01092F7028091F8022A
:100DB0008B3330F48091F8028F5F8093F8023FC04C
:100DC0001092F8028091F902873130F48091F90293
:100DD0008F5F8093F90233C01092F9029091FA026A
:100DE000E091FB02F0E0ED5AFD4F8081981790F4FE
:100DF0008091FA028F5F8093FA028091FA028D311E
:100E0000D9F48091FB028230B9F48091FC028370A6
:100E100099F01BC081E08093FA029091FB029C3014
:100E200020F48091FB028F5F14C08093FB028091BD
:100E3000FC028F5F8093FC0281E08093E90281E0F5
:100E400080937A022093FE0207C081E08093FA0229
:100E500083E08093FB02F0CFFF91EF919F918F9100
:100E60003F912F910F900BBE0F900FBE0F901F90D0
:100E700018951F920F920FB60F9211242F933F9344
:100E80008F939F938091FE028330E8F02091FE02C1
:100E9000809175029091760231E08C32930750F484
:100EA00080917502909176020196909376028093DC
:100EB000750209C01092760210927502C09885B52D
:100EC00015BC2093FE029F918F913F912F910F901F
:100ED0000FBE0F901F90189581E08093E9028093D8
:100EE00001039FE09ABB87BB80EE83B987E086B998
:100EF00086B1886A86B917B887B18B6087B980E0F8
:100F00000E94F50281E060E00E94C9028FE060E08B
:100F100040E051E00E949D0380E061E046E051E046
:100F20000E949D038FED61E00E94C90287E061E0AD
:100F30004DE051E00E949D038AE061E04FE051E006
:100F40000E949D0381E161E045E151E00E949D0323
:100F500083B7876083BF83B7886083BF87B78260AA
:100F600087BF8BE981BF85B5886085BD87B78068FD
:100F700087BF8CE983BD7894369A0895AF92BF926B
:100F8000CF92DF92EF92FF920F931F9364B175B1EE
:100F900080E090E00E941D1820E030E040EA50E43C
:100FA0000E94AF1820E030E048E458E40E94841723
:100FB00020E030E040E250E40E9420179B01AC01A9
:100FC0002093BB043093BC044093BD045093BE04F3
:100FD0006091BB047091BC048091BD049091BE04EB
:100FE000E090BB04F090BC040091BD041091BE04DD
:100FF00020E030EC4FE055E40E94AF1820E030EEE6
:101000004BEA55E40E941F175B016C0160E070E041
:1010100080EA90E4A80197010E941F179B01AC0190
:10102000C601B5010E9484179B01AC0120936602A2
:1010300030936702409368025093690260916602A0
:1010400070916702809168029091690220E030E01F
:1010500048EC52E40E941F1725EC33E946EC5EE3AE
:101060000E9484171F910F91FF90EF90DF90CF9017
:10107000BF90AF9008958091AD04882319F081301E
:1010800069F406C017B8399A81E08093AD040895D9
:1010900017B887B18B6087B91092AD0408950F938C
:1010A0001F93CF93DF9324B72093B204F894009753
:1010B000D1F08C01C0E0D0E060E070E080E090E032
:1010C000F80121913191419151918F010E94201796
:1010D0002196C436D105A1F720E030E048EC52E477
:1010E0000E94841715C0862F972FFC0160E070E0E6
:1010F00080E090E02191820F911D6F5F7F4F6436F9
:101100007105C1F70E94421980E090E00E941D180D
:1011100078942091B20424BFDF91CF911F910F9159
:1011200008950F931F93CF93DF938091E902882353
:10113000A1F11092E9024091FA023091FB02209154
:10114000FC028DB79EB70A970FB6F8949EBF0FBEEC
:101150008DBFEDB7FEB73196C6EAD1E0ADB7BEB7E9
:101160001296DC93CE93119789E191E09383828369
:101170004483158236831782208711860E94831A42
:10118000EDB7FEB73A960FB6F894FEBF0FBEEDBFAF
:1011900080E060E0AE010E949D0380917A02882386
:1011A00009F448C010927A028091F90200D000D070
:1011B00000D0EDB7FEB73196C6EAD1E0ADB7BEB705
:1011C0001296DC93CE9311970BE211E01383028306
:1011D000848315820E94831AEDB7FEB736960FB648
:1011E000F894FEBF0FBEEDBF8FE060E0AE010E943D
:1011F0009D038091F80200D000D000D0EDB7FEB77B
:101200003196ADB7BEB71296DC93CE931197138388
:101210000283848315820E94831AEDB7FEB7369647
:101220000FB6F894FEBF0FBEEDBF82E160E0AE01E5
:101230000E949D038091EA028823E1F11092EA0264
:101240008091C4049091C504A091C604B091C704D4
:101250002DB73EB7285030400FB6F8943EBF0FBEB2
:101260002DBF4DB75EB74F5F5F4FC6EAD1E0EDB718
:10127000FEB7D283C18320E331E0FA0133832283B6
:1012800084839583A683B7830E94831A2DB73EB7C4
:10129000285F3F4F0FB6F8943EBF0FBE2DBF80E0D2
:1012A00061E047E351E00E949D0382E061E0AE010E
:1012B0000E949D038091E802882309F443C01092A4
:1012C000E8022091650200D000D000D0EDB7FEB753
:1012D0003196C6EAD1E0ADB7BEB71296DC93CE9395
:1012E00011978AE391E093838283248315820E947D
:1012F000831AEDB7FEB736960FB6F894FEBF0FBE51
:10130000EDBF8CE061E0AE010E949D03809165021B
:10131000843640F081E08093B1048FE061E04EE3D9
:1013200051E00EC080916502843660F48091B10472
:10133000882341F01092B1048EE061E040E451E076
:101340000E949D03DF91CF911F910F9108958370AB
:1013500021E030E011F020E030E0C9010895982F3D
:10136000462F2091AC04E091AC048091AB04F09145
:10137000AB043091AA04A091AA04933009F462C08E
:10138000943030F4992371F0913009F0E4C023C017
:10139000963009F4A1C0973009F4B4C0943009F034
:1013A000DAC067C0623049F48091AA04863108F03F
:1013B000D2C08091AA04865F0BC0643009F0CBC014
:1013C0008091AA048A3008F4C6C08091AA048A5089
:1013D0008093AA0408955AE0832F652F0E9436193E
:1013E000292F30E08A2F0E9436194230A9F42115A6
:1013F000310539F4880F982F990F990F980F9F5F37
:1014000018C0482F50E043305105ACF42930310565
:1014100091F02F5F3F4F07C0443069F4211531052B
:1014200051F021503040880F982F990F990F980F45
:10143000920F9093AA048091AA04882309F08BC08C
:1014400081E0C6CF623049F48091AB04833008F06C
:1014500082C08091AB04865F3CC0643009F07BC0E1
:101460008091AB048A3008F476C08091AB048A5036
:1014700030C05AE0652F0E943619292F30E08F2F97
:101480000E943619423081F4223031051CF42F5F5E
:101490003F4F11C08823B9F429303105A1F02F5FE7
:1014A0003F4F2093AB040FC0443069F42115310540
:1014B00051F021503040880F982F990F990F980FB5
:1014C000920F9093AB048091AB04882309F043C042
:1014D00081E08093AB040895623041F48091AC04C4
:1014E0008A35C8F58091AC04865F09C0643099F5EF
:1014F0008091AC048A3078F18091AC048A5080935A
:10150000AC0408955AE0822F652F0E943619292FC6
:1015100030E08E2F0E943619423071F429303105A7
:10152000D1F02F5F3F4F880F982F990F990F980F89
:10153000920F9093AC040895443069F4211531055D
:1015400051F021503040880F982F990F990F980F24
:10155000920F9093AC040895FC018681680F711D71
:1015600061507040DB018C919581891720F485834F
:1015700021E030E002C020E030E0C9010895809110
:10158000E702882349F081E160E043E451E00E94F2
:101590009D031092E702089581E160E045E451E087
:1015A0000E949D0381E08093E70208952F923F926D
:1015B0005F926F927F928F929F92AF92BF92CF92E3
:1015C000DF92EF92FF920F931F93DF93CF930F92CF
:1015D000CDB7DEB789E08093FE0287E08093FA0200
:1015E00088E08093FB028BE08093FC020E946C07F2
:1015F000FF24F394B6EA2B2EB1E03B2EA6E7AA2EE9
:10160000A1E0BA2E08E010E0F5E07F2EE7E0EE2E34
:1016100076E0672E64E0562E54E1852E912C49E445
:10162000C42E41E0D42E20916002233009F449C336
:10163000243030F4213079F1223008F0CAC009C0DA
:10164000253009F4CFC5253008F410C4263059F7E9
:10165000B0C68091C304873028F4823088F4882390
:1016600021F0E1CF8730F9F610C08091EF02882396
:1016700021F00E94BF0A1092EF020E94910896C6C4
:10168000C09A85B5856085BD03C0F0926002C09A9E
:101690001092C304C8CF8091C304843009F453C0AE
:1016A000853030F4882359F0823009F0BCCF3CC03B
:1016B000863009F45EC0873009F0B5CF6AC08091EA
:1016C0000003882329F480910103882309F4ABCF18
:1016D000109201031092000380E060E047E451E0C3
:1016E0000E949D034091AE0484E1489FA001112413
:1016F0004C545E4F81E060E00E949D0380E061E019
:1017000045E451E00E949D038091AE0490E0019673
:10171000889DA001899D500D989D500D11244C5419
:101720005E4F81E061E05FC68091AE048F5F809381
:10173000AE048091AE046E2D0E9436199093AE04D3
:1017400020930003A5CF8091AE04882331F08091CF
:10175000AE0481508093AE0402C06092AE048091CA
:10176000AE046E2D0E9436199093AE04F0920003E1
:101770008FCF9091AE04913039F0913008F49EC231
:10178000923009F013C602C082E098C25092600203
:101790000BC6109260021092C304C098C09A85B51F
:1017A000856085BD81E060E029830E94C90282E0F6
:1017B00060E00E94C9028CE060E00E94C9021092C1
:1017C000AE0429812093E90220937A022093EA0251
:1017D0002ACF8091C304843009F4F8C0853030F4F6
:1017E000882359F0823009F01ECF82C0863009F478
:1017F00058C1873009F017CF60C280910103882358
:1018000009F411CF1092010381E060E00E94C90247
:10181000A5EAB4E0E5EFF2E088E001900D92815096
:10182000E1F72091AA049091AB048091AC044DB7EC
:101830005EB74A5050400FB6F8945EBF0FBE4DBF22
:10184000EDB7FEB73196ADB7BEB712963C922E9269
:101850001197D382C2822483158296831782808750
:1018600011860E94831AEDB7FEB73A960FB6F89428
:10187000FEBF0FBEEDBF80E060E048E551E00E9492
:101880009D0383E061E0A1010E949D038FE060E081
:101890000E94C902109261021092620210926302C9
:1018A0001092640217C080E160E00E94C90280913A
:1018B000610290916202A0916302B091640201966C
:1018C000A11DB11D8093610290936202A0936302F7
:1018D000B09364028091610290916202A0916302D0
:1018E000B091640288309105A105B105E0F29BCE6C
:1018F0001092C3048091FD0262E00E94AF09209122
:10190000AA049091AB048091AC044DB75EB74A50E5
:1019100050400FB6F8945EBF0FBE4DBFEDB7FEB797
:101920003196ADB7BEB712963C922E921197D382E4
:10193000C2822483158296831782808711860E9433
:10194000831AEDB7FEB73A960FB6F894FEBF0FBEF6
:10195000EDBF83E061E0A1010E949D03109261024E
:1019600010926202109263021092640217C080E12A
:1019700060E00E94C9028091610290916202A09190
:101980006302B09164020196A11DB11D80936102B2
:1019900090936202A0936302B0936402209161026B
:1019A0003091620240916302509164028091FD0285
:1019B000B801681B7109CB01AA2797FDA095BA2F22
:1019C000281739074A075B0790F22DCE1092C304FF
:1019D0008091FD0264E00E94AF092091AA049091D9
:1019E000AB048091AC04ADB7BEB71A970FB6F894AC
:1019F000BEBF0FBEADBFEDB7FEB7319612963C929B
:101A00002E921197D382C2822483158296831782E5
:101A1000808711860E94831AEDB7FEB73A960FB6FB
:101A2000F894FEBF0FBEEDBF83E061E0A1010E940C
:101A30009D03109261021092620210926302109252
:101A4000640217C080E160E00E94C90280916102D7
:101A500090916202A0916302B09164020196A11D6F
:101A6000B11D8093610290936202A0936302B093D0
:101A700064022091610230916202409163025091B0
:101A800064028091FD02B801681B7109CB01AA278D
:101A900097FDA095BA2F281739074A075B0790F2E0
:101AA000C2CD8091FD02873090F5109261021092B4
:101AB0006202109263021092640217C084E160E037
:101AC0000E94C9028091610290916202A09163021A
:101AD000B09164020196A11DB11D809361029093A3
:101AE0006202A0936302B0936402809161029091BC
:101AF0006202A0916302B09164020097A105B10552
:101B0000E9F28091FD028F5F8093FD022FC0109259
:101B1000FD02109261021092620210926302109212
:101B2000640217C080E160E00E94C90280916102F6
:101B300090916202A0916302B09164020196A11D8E
:101B4000B11D8093610290936202A0936302B093EF
:101B500064028091610290916202A0916302B0914F
:101B6000640287309105A105B105E0F28091FD0284
:101B7000823029F08091FD02853009F089CD1092E4
:101B8000610210926202109263021092640217C006
:101B900084E160E00E94C90280916102909162023A
:101BA000A0916302B09164020196A11DB11D8093C2
:101BB000610290936202A0936302B09364028091E9
:101BC000610290916202A0916302B0916402009759
:101BD000A105B105E9F28091FD028F5F8093FD02BE
:101BE00085EA94E064E572E00E94AC0A009709F48B
:101BF0004FCD2091AA049091AB048091AC04ADB775
:101C0000BEB71A970FB6F894BEBF0FBEADBFEDB703
:101C1000FEB7319612963C922E921197D382C282D1
:101C20002483158296831782808711860E94831AE7
:101C3000EDB7FEB73A960FB6F894FEBF0FBEEDBFF4
:101C400083E061E0A1010E949D0310926102109265
:101C50006202109263021092640217C080E160E099
:101C60000E94C9028091610290916202A091630278
:101C7000B09164020196A11DB11D80936102909301
:101C80006202A0936302B0936402209161023091DA
:101C9000620240916302509164028091FD02B8019A
:101CA000681B7109CB01AA2797FDA095BA2F2817A9
:101CB00039074A075B0790F2EBCC83E08093600220
:101CC00073C38091C304863009F4B0C0873009F42F
:101CD000B7C0882309F0A7CC809101038823B9F10C
:101CE00080E060E046E651E00E949D0310926102B0
:101CF00010926202109263021092640217C080E197
:101D000060E00E94C9028091610290916202A091FC
:101D10006302B09164020196A11DB11D809361021E
:101D200090936202A0936302B09364028091610277
:101D300090916202A0916302B09164028530910596
:101D4000A105B105E0F2109201031092FD0280910D
:101D5000FF02882309F467CC8091FD02882391F566
:101D600082E060E00E94C902109261021092620259
:101D7000109263021092640217C084E160E00E9436
:101D8000C9028091610290916202A0916302B091B8
:101D900064020196A11DB11D8093610290936202BD
:101DA000A0936302B09364028091610290916202F9
:101DB000A0916302B09164028A309105A105B1053A
:101DC000E0F231C082E060E00E94C902109261023C
:101DD00010926202109263021092640217C084E1B2
:101DE00060E00E94C9028091610290916202A0911C
:101DF0006302B09164020196A11DB11D809361023E
:101E000090936202A0936302B09364028091610296
:101E100090916202A0916302B09164028D309105AD
:101E2000A105B105E0F21092FF02FDCB9091FD02F9
:101E300081E0911180E08093FD02F092FF0228CCB6
:101E40008091FD02882329F0F09260021092FD0239
:101E5000ABC28091AA048093FA028091AB04809374
:101E6000FB028091AC048093FC0290C28091C30479
:101E7000843009F4F7C0853030F4882359F082307B
:101E800009F0D1CB7FC0863009F459C1873009F001
:101E9000CACBA5C180910103882309F4C4CB109259
:101EA000010381E060E00E94C902A5EAB4E0E5EF29
:101EB000F2E088E001900D928150E1F72091A904B1
:101EC0009091A8048091A704ADB7BEB71A970FB63A
:101ED000F894BEBF0FBEADBFEDB7FEB731961296F8
:101EE0003C922E921197B382A2822483158296830C
:101EF0001782808711860E94831AEDB7FEB73A9643
:101F00000FB6F894FEBF0FBEEDBF80E060E045E87D
:101F100051E00E949D0383E061E0A1010E949D03C6
:101F20008FE060E00E94C90210926102109262028A
:101F3000109263021092640217C080E160E00E9478
:101F4000C9028091610290916202A0916302B091F6
:101F500064020196A11DB11D8093610290936202FB
:101F6000A0936302B0936402809161029091620237
:101F7000A0916302B091640288309105A105B1057A
:101F8000E0F251CB1092C3048091770290E062E0BE
:101F900070E00E94E8002091A9049091A80480912B
:101FA000A7044DB75EB74A5050400FB6F8945EBFD5
:101FB0000FBE4DBFEDB7FEB73196ADB7BEB71296A7
:101FC0003C922E921197B382A2822483158296832B
:101FD0001782808711860E94831AEDB7FEB73A9662
:101FE0000FB6F894FEBF0FBEEDBF83E061E0A10124
:101FF0000E949D031092610210926202109263028D
:102000001092640217C080E160E00E94C9028091D2
:10201000610290916202A0916302B0916402019604
:10202000A11DB11D8093610290936202A09363028F
:10203000B093640220916102309162024091630288
:102040005091640280917702B801681B7109CB013D
:10205000AA2797FDA095BA2F281739074A075B07CB
:1020600090F2E1CA1092C3048091770290E064E09C
:1020700070E00E94E8002091A9049091A80480914A
:10208000A704ADB7BEB71A970FB6F894BEBF0FBE80
:10209000ADBFEDB7FEB7319612963C922E921197D6
:1020A000B382A28224831582968317828087118649
:1020B0000E94831AEDB7FEB73A960FB6F894FEBFAA
:1020C0000FBEEDBF83E061E0A1010E949D0310926D
:1020D000610210926202109263021092640217C0B1
:1020E00080E160E00E94C9028091610290916202E9
:1020F000A0916302B09164020196A11DB11D80936D
:10210000610290936202A0936302B09364022091F3
:1021100061023091620240916302509164028091A9
:102120007702B801681B7109CB01AA2797FDA0951A
:10213000BA2F281739074A075B0790F274CA8091B3
:102140007702873050F484E160E00E94C9028091F8
:1021500077028F5F809377022FC0109277021092E0
:10216000610210926202109263021092640217C020
:1021700080E160E00E94C902809161029091620258
:10218000A0916302B09164020196A11DB11D8093DC
:10219000610290936202A0936302B0936402809103
:1021A000610290916202A0916302B0916402873053
:1021B0009105A105B105E0F280917702823029F006
:1021C00080917702853009F063CA84E160E00E9463
:1021D000C902809177028F5F8093770259CA70920B
:1021E0006002E2C08091C304863009F4B0C0873039
:1021F00009F4B7C0882309F016CA80910103882327
:10220000B9F180E060E046E651E00E949D03109243
:10221000610210926202109263021092640217C06F
:1022200080E160E00E94C9028091610290916202A7
:10223000A0916302B09164020196A11DB11D80932B
:10224000610290936202A0936302B0936402809152
:10225000610290916202A0916302B09164028530A4
:102260009105A105B105E0F21092010310927702E9
:1022700080917402882309F4D6C98091770288235B
:1022800091F582E060E00E94C90210926102109212
:102290006202109263021092640217C084E160E04F
:1022A0000E94C9028091610290916202A091630232
:1022B000B09164020196A11DB11D809361029093BB
:1022C0006202A0936302B0936402809161029091D4
:1022D0006202A0916302B09164028A309105A10567
:1022E000B105E0F231C082E060E00E94C9021092C4
:1022F000610210926202109263021092640217C08F
:1023000084E160E00E94C9028091610290916202C2
:10231000A0916302B09164020196A11DB11D80934A
:10232000610290936202A0936302B0936402809171
:10233000610290916202A0916302B09164028D30BB
:102340009105A105B105E0F2109274026CC990915B
:10235000770281E0911180E080937702F09274021D
:1023600097C980917702882329F0F0926002109239
:1023700077021AC08091A7048093F7028091A80485
:102380008093F8028091A9048093F902F092600290
:1023900081E060E00E94C90282E060E00E94C90220
:1023A0008CE060E00E94C9021092C304F092010325
:1023B0003AC98091C304882309F035C9809101038B
:1023C000882309F430C91092010381E060E00E9483
:1023D000C90280E060E043E951E00E949D0380E093
:1023E00061E042EA51E00E949D031DC9EF92FF9215
:1023F0000F931F93CF93DF937B018C010E94EC1707
:10240000EB01BE01882777FD8095982F0E941F1849
:102410009B01AC01C801B7010E941F1720E030E00A
:1024200040E05FE30E94AB1818160CF42196CE0131
:10243000DF91CF911F910F91FF90EF900895AF9290
:10244000BF92CF92DF92EF92FF920F931F937B0187
:102450008C0164B175B180E090E00E941D1860931A
:10246000BF047093C0048093C1049093C204609130
:10247000BF047091C0048091C1049091C20420E017
:1024800030E040E85AE30E94AF1820E030E040EA34
:1024900050E40E94AF189B01AC012093B304309329
:1024A000B4044093B5045093B6046091B3047091A2
:1024B000B4048091B5049091B6042CEC3CEC4CE44F
:1024C0005FE30E941F1727EB33EF4DEF5CE30E94A1
:1024D00084179B01AC012093EB023093EC024093F4
:1024E000ED025093EE02A090EB02B090EC02C0908F
:1024F000ED02D090EE02C801B7010E94F6119C01D6
:10250000B901882777FD8095982F0E941F1829EC24
:102510003EE84DE05BE30E94AF189B01AC0162E234
:102520007DEF86E89FE30E941F179B01AC01C60167
:10253000B5010E9484179B01AC012093F1023093F6
:10254000F2024093F3025093F4026091F102709111
:10255000F2028091F3029091F4020E94F6111F9111
:102560000F91FF90EF90DF90CF90BF90AF900895C4
:102570001F920F920FB60F920BB60F9211240F936A
:102580001F932F933F934F935F936F937F938F93FB
:102590009F93AF93BF93CF93DF93EF93FF9380917C
:1025A000FE02823008F485C01091FE0284B7809349
:1025B000B204F89480917802909179028431910567
:1025C00050F480917802909179020196909379026B
:1025D0008093780268C010927902109278028091FC
:1025E0007202909173028436910590F58091AD044A
:1025F000882321F0813009F056C012C0C0917202C8
:10260000D09173020E94BE07FE01EE0FFF1FEE0F76
:10261000FF1FEE5FFC4F608371838283938312C040
:10262000C0917202D09173026091C4047091C5048C
:102630008091C6049091C7040E941F12FE01ED57BD
:10264000FD4F80832196D0937302C09372022BC0FA
:1026500010927302109272020091AD04002319F0DF
:102660000130F9F412C082E093E060E070E00E9473
:102670004F086093C4047093C5048093C60490937C
:10268000C70481E08093EA020CC080E090E063E838
:1026900072E00E944F080E94F61180936502009339
:1026A000E8020E943B0878948091B20484BF1093A2
:1026B000FE02FF91EF91DF91CF91BF91AF919F917A
:1026C0008F917F916F915F914F913F912F911F91CA
:1026D0000F910F900BBE0F900FBE0F901F9018958B
:1026E0002F923F924F925F926F927F928F929F9222
:1026F000AF92BF92CF92DF92EF92FF920F931F9310
:10270000DF93CF93CDB7DEB763970FB6F894DEBFF4
:102710000FBECDBF6C017F876E87FC0117821682CA
:10272000838181FD04C06FC34C855D8504C01E019B
:102730000894211C311CF6019381EE85FF8593FDE1
:10274000859193FF8191FF87EE87882309F457C312
:10275000853241F493FD859193FF8191FF87EE8748
:10276000853259F490E0B6014A8B5B8B0E94571A70
:102770004A895B895D874C87D7CF10E0FF2400E052
:102780000032B0F48B3269F08C3228F4803251F090
:10279000833271F40BC08D3239F0803349F401601B
:1027A0002CC00260046029C0086027C0006125C0F9
:1027B00007FD2EC0282F20532A3098F406FF08C0AA
:1027C000812F880F182F110F110F180F120F15C01E
:1027D0008F2D880FF82EFF0CFF0CF80EF20E006202
:1027E0000CC08E3221F406FD0AC3006406C08C368C
:1027F00011F4006802C0883659F4EE85FF8593FD18
:10280000859193FF8191FF87EE87882309F0B8CFE8
:10281000982F9554933018F40061805E06C0982F6D
:102820009556933008F09BC10F7E06FF16E06FE3CC
:10283000E62EE022853619F4F0E4EF2A07C086364A
:1028400019F420E8E22A02C011111150E7FE06C077
:102850001C3340F4912E939427E00BC0183030F4D1
:10286000212F06C027E03CE3932E03C027E017E0AA
:102870009924CA0104969D878C87FA016081718131
:1028800082819381A101092D0E9469195C016980EF
:10289000262D30E0398B288B60FE03C0388933FF4A
:1028A00006C0E1FC06C0E2FE06C000E205C00DE283
:1028B00003C00BE201C000E0888999898C70907098
:1028C0000097C1F1002311F084E001C083E08F156F
:1028D00058F4F81AE3FC09C080E290E0B6010E94C7
:1028E000571AFA94C9F701C0FF24002329F0802F5A
:1028F00090E0B6010E94571A888983FD03C000E961
:1029000010E00EC00CE810E00BC0A114B10409F0F7
:10291000805290E0B6010E94571A0F5F1F4F05C00A
:10292000AE2CBB2490E1A922BB24F801849188231A
:1029300061F762C2E7FE0EC09A0CF889F4FF04C08A
:102940008A81813309F49A94191454F5292D293078
:1029500050F52DC0E6FC2BC0812F90E08A159B0519
:102960004CF03CEFA3163FEFB30624F080E8E82AD2
:1029700001C01150112349F0E2E0F0E0EC0FFD1F1F
:10298000E10FF11D80818033A1F3E7FE10C0912E8D
:102990009394812F90E0A816B90644F41A1907C041
:1029A0009924939404C098E0992E01C010E0E7FEAA
:1029B00007C01A141B043CF495012F5F3F4F05C05C
:1029C00025E030E002C021E030E0002311F02F5F6D
:1029D0003F4F112329F0812F90E00196280F391FD6
:1029E0008F2D90E02817390714F4F21A01C0FF2444
:1029F0004E2C5524C20189709070009749F406C08E
:102A000080E290E0B6010E94571AFA94FF20C1F7C5
:102A1000002329F0802F90E0B6010E94571A43FC52
:102A200009C006C080E390E0B6010E94571AFA94EC
:102A3000FF20C1F7E7FE46C03501B7FE02C066249D
:102A4000772425010894411C511C46185708420C54
:102A5000531CF501E919F1094F01812F90E000277E
:102A60001127081B190BFFEF6F16FFEF7F0629F4E4
:102A70008EE290E0B6010E94571AA614B70434F013
:102A8000861497041CF4F201808101C080E308944D
:102A9000610871080894411C511C601671062CF0E5
:102AA00090E0B6010E94571ADECF6A147B0441F40D
:102AB0009A81963320F4953319F4F889F4FF81E371
:102AC00090E049C08A81813311F02FEE622290E0BC
:102AD000B6010E94571A112389F08EE290E0B601E8
:102AE0000E94571A02E0F101E00FF11D0F5F808193
:102AF00090E0B6010E94571A1150A9F744FE03C096
:102B000085E490E002C085E690E0B6010E94571A85
:102B1000B7FC05C0A114B10441F464FE06C0B09432
:102B2000A194B108B3948DE201C08BE290E0B601AC
:102B30000E94571A80E305C08F5FE6EFFFEFAE0EED
:102B4000BF1EFAE0AF16B104BCF790E0B6010E94D8
:102B5000571AC501C096B6010E94571A4DC1833657
:102B600031F0833789F0833509F059C022C09A01CA
:102B70002E5F3F4F3D872C87FA0180818983310189
:102B800081E0A82EB12C13C09A012E5F3F4F3D87E4
:102B90002C87FA016080718006FF03C0612F70E00E
:102BA00002C06FEF7FEFC3010E944C1A5C010F77E8
:102BB00014C09A012E5F3F4F3D872C87FA01608039
:102BC000718006FF03C0612F70E002C06FEF7FEFDE
:102BD000C3010E94411A5C01006803FD1CC006C0CD
:102BE00080E290E0B6010E94571AFA948F2D90E08F
:102BF000A816B906A8F30FC0F30107FD859107FFDA
:102C000081913F0190E0B6010E94571AF110FA94A9
:102C10000894A108B108A114B10471F7EDC084367D
:102C200011F0893661F507FF0BC09A012C5F3F4F09
:102C30003D872C87FA0160817181828193810CC06C
:102C40009A012E5F3F4F3D872C87FA016081718189
:102C5000882777FD8095982F0F7697FF08C090956D
:102C60008095709561957F4F8F4F9F4F0068A101B0
:102C70002AE030E00E94B31A982E921841C085379E
:102C800021F40F7E2AE030E020C0097F8F36A9F0C2
:102C9000803720F4883509F0B2C00BC0803721F0AE
:102CA000883709F0ACC001C0006104FF09C00460AE
:102CB00007C004FF08C0066006C028E030E005C079
:102CC00020E130E002C020E132E007FF0AC0CA0183
:102CD00004969D878C87FA0160817181828193813E
:102CE00009C0CA0102969D878C87FA0160817181B3
:102CF00080E090E0A1010E94B31A982E92180F77FD
:102D000006FF09C00E7F911630F404FF06C002FDD5
:102D100004C00F7E02C0E92C01C0E12E802F90E09C
:102D200004FF0CC0FE01E90DF11D2081203311F4D8
:102D3000097E09C0E39402FF06C004C08678907043
:102D4000009709F0E394A02EBB2403FD14C000FFFC
:102D50000FC0EF1428F4192D1F0D1E19EF2C08C0F9
:102D6000192D06C080E290E0B6010E94571AE39444
:102D7000EF14C0F304C0EF1410F4FE1801C0FF24D8
:102D8000A4FE0FC080E390E0B6010E94571AA2FE95
:102D90001FC0A1FE03C088E590E010C088E790E066
:102DA0000DC0C50186789070009791F0A1FC02C01B
:102DB00080E201C08BE207FD8DE290E0B6010E9447
:102DC000571A06C080E390E0B6010E94571A1150CE
:102DD0009116C0F39A94F101E90DF11D808190E004
:102DE000B6010E94571A9920A9F706C080E290E028
:102DF000B6010E94571AFA94FF20C1F795CCF6014C
:102E00002681378102C02FEF3FEFC90163960FB6CD
:102E1000F894DEBF0FBECDBFCF91DF911F910F9110
:102E2000FF90EF90DF90CF90BF90AF909F908F90EA
:102E30007F906F905F904F903F902F9008955058E3
:102E4000BB27AA270ED04DC13ED130F043D120F090
:102E500031F49F3F11F41EF433C10EF4E095E7FB0B
:102E600029C1E92F4FD180F3BA176207730784078E
:102E7000950718F071F49EF567C10EF4E0950B2EDE
:102E8000BA2FA02D0B01B90190010C01CA01A001BC
:102E90001124FF27591B99F0593F50F4503E68F117
:102EA0001A16F040A22F232F342F4427585FF3CF58
:102EB000469537952795A795F0405395C9F77EF429
:102EC0001F16BA0B620B730B840BBAF09150A1F072
:102ED000FF0FBB1F661F771F881FC2F70EC0BA0FF8
:102EE000621F731F841F48F4879577956795B79580
:102EF000F7959E3F08F0B3CF9395880F08F0992778
:102F0000EE0F9795879508950CD0EBC0E3D040F075
:102F1000DAD030F021F45F3F19F0CCC0511115C167
:102F2000CFC0F0D098F39923C9F35523B1F3951B83
:102F3000550BBB27AA2762177307840738F09F5FDA
:102F40005F4F220F331F441FAA1FA9F333D00E2E49
:102F50003AF0E0E830D091505040E695001CCAF7B6
:102F600029D0FE2F27D0660F771F881FBB1F26177B
:102F700037074807AB07B0E809F0BB0B802DBF014E
:102F8000FF2793585F4F2AF09E3F510568F092C08B
:102F9000DCC05F3FECF3983EDCF386957795679550
:102FA000B795F7959F5FC9F7880F911D96958795FF
:102FB00097F90895E1E0660F771F881FBB1F62171E
:102FC00073078407BA0720F0621B730B840BBA0BDC
:102FD000EE1F88F7E095089504D06894B111B5C04C
:102FE000089598D088F09F5790F0B92F9927B7513E
:102FF000A0F0D1F0660F771F881F991F1AF0BA95BD
:10300000C9F712C0B13081F09FD0B1E008959CC0E3
:10301000672F782F8827B85F39F0B93FCCF38695B2
:1030200077956795B395D9F73EF49095809570950F
:1030300061957F4F8F4F9F4F0895E89409C097FB8C
:103040003EF490958095709561957F4F8F4F9F4F7F
:103050009923A9F0F92F96E9BB279395F6958795C3
:1030600077956795B795F111F8CFFAF4BB0F11F486
:1030700060FF1BC06F5F7F4F8F4F9F4F16C088232D
:1030800011F096E911C0772321F09EE8872F762F63
:1030900005C0662371F096E8862F70E060E02AF0A4
:1030A0009A95660F771F881FDAF7880F9695879590
:1030B00097F9089597F99F6780E870E060E00895B8
:1030C0009FEF80EC089500240A9416161706180640
:1030D0000906089500240A9412161306140605061C
:1030E0000895092E0394000C11F4882352F0BB0FAD
:1030F00040F4BF2B11F460FF04C06F5F7F4F8F4F10
:103100009F4F089557FD9058440F551F59F05F3F4A
:1031100071F04795880F97FB991F61F09F3F79F0F9
:1031200087950895121613061406551FF2CF46957B
:10313000F1DF08C0161617061806991FF1CF8695FD
:103140007105610508940895E894BB2766277727E1
:10315000CB0197F9089566D008F48FEF08950BD04E
:10316000C0CFB1DF28F0B6DF18F0952309F0A2CF69
:10317000A7CF1124EACFC6DFA0F3959FD1F3950F17
:1031800050E0551F629FF001729FBB27F00DB11DEB
:10319000639FAA27F00DB11DAA1F649F6627B00D7B
:1031A000A11D661F829F2227B00DA11D621F739F64
:1031B000B00DA11D621F839FA00D611D221F749F72
:1031C0003327A00D611D231F849F600D211D822FB9
:1031D000762F6A2F11249F5750408AF0E1F0882300
:1031E0004AF0EE0FFF1FBB1F661F771F881F91500D
:1031F0005040A9F79E3F510570F05CCFA6CF5F3FCE
:10320000ECF3983EDCF3869577956795B795F7953F
:10321000E7959F5FC1F7FE2B880F911D96958795C7
:1032200097F90895990F0008550FAA0BE0E8FEEFF3
:1032300016161706E807F907C0F012161306E4077A
:10324000F50798F0621B730B840B950B39F40A2673
:1032500061F0232B242B252B21F408950A2609F451
:10326000A140A6958FEF811D811D0895991B79E0DE
:1032700004C0991F961708F0961B881F7A95C9F706
:1032800080950895AA1BBB1B51E107C0AA1FBB1F55
:10329000A617B70710F0A61BB70B881F991F5A95E2
:1032A000A9F780959095BC01CD01089597FB092E53
:1032B00007260AD077FD04D0E5DF06D000201AF4F7
:1032C000709561957F4F0895F6F7909581959F4F82
:1032D0000895283008F027E03327DA01990F311DCF
:1032E00087FD916000966105710539F432602E5FAB
:1032F0003D9330E32A95E1F708959F3F30F0803801
:103300007105610509F03C5F3C5F3D93913008F029
:103310008068911DDF93CF931F930F93FF92EF92DD
:10332000192F987F9695E92F96959695E90FFF2787
:10333000E251FF4F99273327EE24FF24A701E7012D
:1033400005900894079428F4360FE71EF81E491FCD
:10335000511D660F771F881F991F0694A1F70590CE
:10336000079428F4E70EF81E491F561FC11D770F5A
:10337000881F991F661F0694A1F70590079428F4EB
:10338000F80E491F561FC71FD11D880F991F661FB2
:10339000771F0694A1F70590079420F4490F561F54
:1033A000C71FD81F990F661F771F881F0694A9F79C
:1033B00084911095177041F0D695C795579547950C
:1033C000F794E7941A95C1F7E4E9F0E06894159052
:1033D000159135916591959105907FE27395E1186E
:1033E000F10A430B560BC90BD009C0F7E10CF11ED3
:1033F000431F561FC91FD01D7EF4703311F48A95E8
:10340000E6CFE894015030F0080F0AF400270217C5
:1034100008F4202F2395022F7A3328F079E37D9347
:103420002A95E9F710C07D932A9589F60694979519
:103430006795379517951794E118F10A430B560BCA
:10344000C90BD00998F023957E9173957A3308F0D3
:1034500070E37C932013B8F77E9170617D9330F018
:10346000839571E37D9370E32A95E1F71124EF9042
:10347000FF900F911F91CF91DF91992787FD909534
:103480000895FC010590615070400110D8F78095B7
:1034900090958E0F9F1F0895FC0161507040019020
:1034A0000110D8F7809590958E0F9F1F08950F9368
:1034B0001F93CF93DF938C01EB018B8181FF1BC0A6
:1034C00082FF0DC02E813F818C819D812817390795
:1034D00064F4E881F9810193F983E88306C0E88503
:1034E000F985802F0995009731F48E819F8101968F
:1034F0009F838E8302C00FEF1FEFC801DF91CF9132
:103500001F910F9108950F931F93DF93CF93CDB722
:10351000DEB72E970FB6F894DEBF0FBECDBF0D8974
:103520001E8986E08C831A8309838FEF9FE79E8331
:103530008D839E01275E3F4FCE0101966F89788D66
:10354000A9010E947013EF81F885E00FF11F10822E
:103550002E960FB6F894DEBF0FBECDBFCF91DF9190
:103560001F910F910895FA01AA27283051F12031B7
:1035700081F1E8946F936E7F6E5F7F4F8F4F9F4F07
:10358000AF4FB1E03ED0B4E03CD0670F781F891F49
:103590009A1FA11D680F791F8A1F911DA11D6A0F17
:1035A000711D811D911DA11D20D009F468943F91CA
:1035B0002AE0269F11243019305D3193DEF6CF01C9
:1035C0000895462F4770405D4193B3E00FD0C9F78F
:1035D000F6CF462F4F70405D4A3318F0495D31FDFC
:1035E0004052419302D0A9F7EACFB4E0A69597954F
:1035F000879577956795BA95C9F700976105710525
:1036000008959B01AC010A2E06945795479537956E
:103610002795BA95C9F7620F731F841F951FA01DC8
:063620000895F894FFCFAD
:1036260030303A303000543D30302E3000430048C0
:103636003D383825005A3D3100253032642F25307B
:1036460032642F3230253032642C0025303264004B
:103656002530342E316600543D00253264002500A5
:103666002520003A0020002D00253032642F253019
:1036760032642F253032640045646974696E6720B0
:10368600646174653A00436F6E6665726D693F20CA
:1036960053692F4E6F00253032643A253032643A32
:1036A600253032640045646974696E672074696DFB
:1036B600653A00456469742074696D657A6F6E6554
:1036C6003A00313D0001000000000000000000004B
:1036D60000000000312E54696D657A6F6E652020FA
:1036E6002020202020202000322E446174652020D6
:1036F600202020202020202020202000332E546946
:103706006D65202020202020202020202020200041
:10371600342E555342207472616E73666572202092
:1037260020202000352E68656C6C6F20202020201C
:103736002020202020202000362E776F726C6420F7
:10374600202020202020202020202000372E6F73CC
:1037560074692020202020202020202020202000E6
:103766002020202020202020202020202020202053
:10377600202020001F1D1F1E1F1E1F1F1E1F1E1F75
:00000001FF
