:100000000C94C7000C94E6000C94E6000C94E600F7
:100010000C94E6000C94E6000C94E6000C94E600C8
:100020000C94E6000C94E6000C94E6000C94E600B8
:100030000C94E6000C94E6000C94E6000C94DE02AE
:100040000C94E6000C94E6000C94E6000C94E60098
:100050000C94E6000C94D4040C94E6000C94E60096
:100060000C94E6000C94E6000C94E6000C94E60078
:100070000C94E6000C94E6000C94E6000C94E60068
:100080000C94E6000C94E6000C94E6006E616E00A1
:10009000696E660000407A10F35A00A0724E18098B
:1000A0000010A5D4E80000E87648170000E40B54DF
:1000B000020000CA9A3B000000E1F50500008096AE
:1000C0009800000040420F000000A08601000000E0
:1000D000102700000000E80300000000640000009A
:1000E00000000A00000000000100000000002C7663
:1000F000D888DC674F0823DFC1DFAE59E1B1B7967E
:10010000E5E3E453C63AE651997696E8E6C28426DA
:10011000EB898C9B62ED407C6FFCEFBC9C9F40F2B6
:10012000BAA56FA5F490055A2AF75C936B6CF96732
:100130006DC11BFCE0E40D47FEF520E6B500D0EDF7
:10014000902E0300943577050080841E080000205F
:100150004E0A000000C80C333333330F986E1283FD
:100160001141EF8D2114893BE65516CFFEE6DB18D1
:10017000D1844B381BF77C1D901DA4BBE424203296
:1001800084725E228100C9F124ECA1E53D2711248F
:100190001FBECFEFD0E1DEBFCDBF12E0A0E0B1E0E7
:1001A000E8EEF5E200E00BBF02C007900D92AC3420
:1001B000B107D9F712E0ACE4B2E001C01D92A63855
:1001C000B107E1F70E943D070C94F2120C94000075
:1001D000982F462F30917202A09172028091710285
:1001E000F091710220917002E0917002933009F455
:1001F00059C0943030F4992371F0913009F0CEC099
:1002000023C0963009F48BC0973009F49EC0943017
:1002100009F0C4C060C0623049F4809172028E302F
:1002200008F0BCC080917202865F0BC0643009F098
:10023000B5C0809172028A3008F4B0C08091720219
:100240008A508093720208955AE0832F652F0E948E
:100250001711292F30E08A2F0E941711423081F4A4
:100260002330310554F0482F50E0423051050CF056
:1002700095C02930310509F491C02F5F3F4F09C067
:10028000443009F08BC02115310509F487C0215095
:100290003040880F982F990F990F980F920F9093D5
:1002A00072020895623049F480917102823308F03D
:1002B00075C080917102865F0BC0643009F06EC01A
:1002C000809171028A3008F469C0809171028A506D
:1002D0008093710208955AE0652F0E941711292F0B
:1002E00030E08F2F0E941711423039F42930310548
:1002F00009F454C02F5F3F4F09C0443009F04EC08D
:100300002115310509F44AC021503040880F982F3B
:10031000990F990F980F920F909371020895623080
:1003200041F4809170028233C8F580917002865F3B
:1003300009C0643099F5809170028A3078F180911B
:1003400070028A508093700208955AE0822F652FC0
:100350000E941711292F30E08E2F0E941711423072
:1003600071F429303105D1F02F5F3F4F880F982F5E
:10037000990F990F980F920F90937002089544303F
:1003800069F42115310551F021503040880F982F24
:10039000990F990F980F920F9093700208958AB356
:1003A000807F8ABBA89AA99882E08A95F1F700C05D
:1003B000AA9A92E09A95F1F700C089B38295807F5E
:1003C00092E09A95F1F700C0AA9895E09A95F1F716
:1003D0000000AA9A92E09A95F1F700C099B392E0D2
:1003E0009A95F1F700C0AA9895E09A95F1F7000068
:1003F00087FDDECFA8988AB38F608ABB0895282F27
:1004000022952F708F70662311F4A99801C0A99AC4
:1004100092E09A95F1F700C0AA9A9BB3907F922B35
:100420009BBB95E09A95F1F70000AA9895E09A9504
:10043000F1F70000AA9A9BB3907F982B9BBB85E0B5
:100440008A95F1F70000AA9895E09A95F1F70000D7
:100450000E94CF010895DF93CF930F92CDB7DEB7FF
:100460002FEF36E741E0215030404040E1F700C037
:1004700000009AB39F609ABBA29AA19AA09A9BB3DC
:10048000907F9BBBAA98A898A99800C000C00000C4
:10049000AA9AD99A35E03A95F1F70000AA9845E072
:1004A0004A95F1F7000089830E94CF0189818C6011
:1004B00060E00E94FF0188E260E00E94FF010F906F
:1004C000CF91DF910895EF92FF92CF93DF93E82EC3
:1004D000E7017E01F92EE70103C061E00E94FF0100
:1004E00089918823D1F7DF91CF91FF90EF90089504
:1004F000EF92FF920F931F93DF93CF9300D000D022
:100500000F92CDB7DEB79B01FE01319645E0DF01CA
:100510001D924A95E9F7FE0136960AE010E005C003
:10052000B8010E9423118293CB010097C9F7BFEF56
:100530002F3F3B0751F4FE01319680E090E001C06F
:10054000019621912223E1F304C085E090E0821B13
:10055000930B8E010F5F1F4F080F191F7C010AC0FC
:10056000F80181918F01805D61E00E94FF01089494
:10057000E11CF11CF5E0EF16F10494F30F900F90DD
:100580000F900F900F90CF91DF911F910F91FF90DF
:10059000EF900895883230F461118064806860E0E3
:1005A0000E94FF010895CF93DF93EA010E94CA02DF
:1005B000CE010E946302DF91CF9108951F920F92A6
:1005C0000FB60F920BB60F9211242F933F938F9378
:1005D0009F93EF93FF9380916302882309F41DC1D9
:1005E0002091630231E03093630280B380937A02FA
:1005F00080917A0281708093790280917A02807171
:100600008093550280917A02827080937C0280915F
:100610007C028823B9F480917B02882399F480912D
:100620006802909169020196909369028093680232
:10063000809168029091690285369105B8F13093F6
:100640007B0234C080917C02882311F010927B02DF
:1006500080916802909169028F30910528F4109280
:1006600069021092680222C080916802909169022A
:100670008031910568F0809168029091690284361A
:10068000910530F4109269021092680286E00CC065
:1006900080916802909169028536910538F0109238
:1006A00069021092680287E08093810280914C0277
:1006B000882371F080917902882351F4809164023B
:1006C00090916502019690936502809364020EC03A
:1006D00080916402909165028F30910518F082E05C
:1006E00080938102109265021092640280914C0204
:1006F000882371F080915502882351F4809166021D
:1007000090916702019690936702809366020EC0F3
:1007100080916602909167028F30910518F084E015
:1007200080938102109267021092660280915602B5
:10073000909157028336910550F480915602909122
:100740005702019690935702809356025CC0109214
:10075000570210925602809158028B3330F48091E8
:1007600058028F5F809358024EC0109258028091B9
:1007700059028B3330F4809159028F5F8093590274
:100780003FC01092590280915A02873130F4809113
:100790005A028F5F80935A0233C010925A0290918E
:1007A0005B02E0915C02F0E0E857FE4F8081981711
:1007B00090F480915B028F5F80935B0280915B027B
:1007C0008D31D9F480915C028230B9F480915D0260
:1007D000837099F01BC081E080935B0290915C0272
:1007E0009C3020F480915C028F5F14C080935C0287
:1007F00080915D028F5F80935D0281E0809395011F
:1008000081E0809353022093630207C081E08093CC
:100810005B0283E080935C02F0CFFF91EF919F91A8
:100820008F913F912F910F900BBE0F900FBE0F90A5
:100830001F90189587E086B987B18B6087B986B11C
:10084000886A86B9BF9A80E483BD8BE685BD80E067
:100850000E942B0281E060E00E94FF018BE060E0DB
:1008600040E051E00E94D30280E061E046E051E0C8
:100870000E94D30283B7876083BF83B7886083BF3A
:1008800087B7826087BF8CE981BF7894369A0895D4
:10089000AF92BF92CF92DF92EF92FF920F931F938E
:1008A000F89464B175B180E090E00E94261020E0D9
:1008B00030E040EA50E40E94B41020E030E048E428
:1008C00058E40E94BE0F20E030E040E250E40E9475
:1008D0005A0F9B01AC0120937D0230937E0240931E
:1008E0007F025093800260917D0270917E02809120
:1008F0007F0290918002E0907D02F0907E02009154
:100900007F021091800220E030EC4FE055E40E941D
:10091000B41020E030EE4BEA55E40E94590F5B0121
:100920006C0160E070E080EA90E4A80197010E9409
:10093000590F9B01AC01C601B5010E94BE0F9B017E
:10094000AC0120934D0230934E0240934F025093DE
:10095000500260914D0270914E0280914F02909131
:10096000500220E030E048EC52E40E94590F25ECA0
:1009700033E946EC5EE30E94BE0F9B01AC0120937D
:10098000820230938302409384025093850281E077
:100990008093540278941F910F91FF90EF90DF9015
:1009A000CF90BF90AF9008951F920F920FB60F9205
:1009B0000BB60F9211241F932F933F934F935F9386
:1009C0006F937F938F939F93AF93BF93EF93FF9317
:1009D000809163028230E0F0109163028091760290
:1009E0009091770223E18838920750F48091760243
:1009F000909177020196909377028093760206C0D9
:100A000010927702109276020E94480410936302BB
:100A1000FF91EF91BF91AF919F918F917F916F91D6
:100A20005F914F913F912F911F910F900BBE0F90AF
:100A30000FBE0F901F90189520914C0230E0821746
:100A4000930709F05FC080914C02813039F1813009
:100A500030F0823061F1833009F054C04FC0F89417
:100A600081E060E00E94FF018FE060E00E94FF01F2
:100A700088E060E04CE951E00E94D30280E061E050
:100A80004EE051E00E94D30283E061E00E94CA027E
:100A900087E991E00E9463027894089581E060E024
:100AA0000E94FF0180E060E042E151E024C081E06B
:100AB00060E00E94FF0180E060E04AE151E00E94B6
:100AC000D3024091780250E094E0440F551F9A956C
:100AD000E1F74A555E4F81E060E00E94D302409109
:100AE000780250E084E0440F551F8A95E1F74A549C
:100AF0005E4F81E061E00E94D302089581E060E0F2
:100B00000E94FF010895CF93DF9380919501882380
:100B1000A1F11092950140915B0230915C0220910D
:100B20005D028DB79EB70A970FB6F8949EBF0FBEB1
:100B30008DBFEDB7FEB73196CCE9D1E0ADB7BEB70A
:100B40001296DC93CE9311978CE191E0938382838C
:100B50004483158236831782208711860E9464128F
:100B6000EDB7FEB73A960FB6F894FEBF0FBEEDBFD5
:100B700080E060E0AE010E94D3028091530288239E
:100B8000A1F11092530240915A02309159022091E2
:100B900058028DB79EB70A970FB6F8949EBF0FBE46
:100BA0008DBFEDB7FEB73196CCE9D1E0ADB7BEB79A
:100BB0001296DC93CE9311978CE291E0938382831B
:100BC0004483158236831782208711860E9464121F
:100BD000EDB7FEB73A960FB6F894FEBF0FBEEDBF65
:100BE0008BE060E0AE010E94D30280915402882322
:100BF000E1F1109254028091820290918302A091BF
:100C00008402B09185022DB73EB7285030400FB610
:100C1000F8943EBF0FBE2DBF4DB75EB74F5F5F4F1D
:100C2000C7E9D1E0EDB7FEB7D283C18326E331E057
:100C3000FA013383228384839583A683B7830E943A
:100C400064122DB73EB7285F3F4F0FB6F8943EBFF2
:100C50000FBE2DBF80E061E04EE051E00E94D30264
:100C600083E061E0AE010E94D302DF91CF9108954D
:100C7000837021E030E011F020E030E0C9010895F8
:100C8000982F462F20917502E09175028091740291
:100C9000F091740230917302A0917302933009F4C1
:100CA00062C0943030F4992371F0913009F0E4C0BF
:100CB00023C0963009F4A1C0973009F4B4C0943031
:100CC00009F0DAC067C0623049F48091730286315E
:100CD00008F0D2C080917302865F0BC0643009F0C7
:100CE000CBC0809173028A3008F4C6C08091730231
:100CF0008A508093730208955AE0832F652F0E94D3
:100D00001711292F30E08A2F0E9417114230A9F4C1
:100D10002115310539F4880F982F990F990F980FE5
:100D20009F5F18C0482F50E043305105ACF4293084
:100D3000310591F02F5F3F4F07C0443069F4211512
:100D4000310551F021503040880F982F990F990F9D
:100D5000980F920F9093730280917302882309F089
:100D60008BC081E0C6CF623049F480917402833039
:100D700008F082C080917402865F3CC0643009F044
:100D80007BC0809174028A3008F476C0809174022E
:100D90008A5030C05AE0652F0E941711292F30E089
:100DA0008F2F0E941711423081F4223031051CF43C
:100DB0002F5F3F4F11C08823B9F429303105A1F0CE
:100DC0002F5F3F4F209374020FC0443069F4211508
:100DD000310551F021503040880F982F990F990F0D
:100DE000980F920F9093740280917402882309F0F7
:100DF00043C081E0809374020895623041F4809191
:100E000075028A35C8F580917502865F09C0643025
:100E100099F5809175028A3078F1809175028A5037
:100E20008093750208955AE0822F652F0E94171152
:100E3000292F30E08E2F0E941711423071F4293093
:100E40003105D1F02F5F3F4F880F982F990F990FE1
:100E5000980F920F909375020895443069F421150C
:100E6000310551F021503040880F982F990F990F7C
:100E7000980F920F9093750208956F927F928F92C0
:100E80009F92AF92BF92CF92DF92EF92FF920F9319
:100E90001F93CF93DF9389E0809363028FEF8ABB28
:100EA00083E184BB82BB87E080935B0288E0809310
:100EB0005C028BE080935D020E941A04CCE9D1E0D1
:100EC000ACE6CA2EA1E0DA2EF8E0EF2EF12CE5E038
:100ED0007E2E74E0972E67E0862E56E0652E4FE357
:100EE000A42E41E0B42E00914C02023009F4A9C0B6
:100EF000033028F4002361F00130A9F717C0043053
:100F000009F43EC2043008F4CDC1053061F769C36D
:100F100080918102882319F0873029F703C00E944D
:100F20008305DAC381E080934C02AEC380918102D5
:100F3000843009F451C0853028F4882349F0823088
:100F400091F63BC0863009F45EC0873061F668C018
:100F500080916D02882321F480919601882319F2F3
:100F60001092960110926D0280E060E04AE151E03B
:100F70000E94D3024091780250E034E0440F551FA4
:100F80003A95E1F74A555E4F81E060E00E94D30256
:100F900080E061E04DE351E00E94D302409178028D
:100FA00050E024E0440F551F2A95E1F74A545E4F64
:100FB00081E061E00E94D30296CF809178028F5F3A
:100FC0008093780280917802682D0E941711909387
:100FD000780200936D0258C380917802882331F023
:100FE0008091780281508093780202C060927802EA
:100FF00080917802682D0E9417119093780281E009
:1010000080936D0241C380917802813021F082305B
:1010100009F062C302C082E042C190924C025AC3FE
:1010200010924C021092810281E060E00E94FF0168
:10103000109278020093950100935302009354029A
:1010400052CF80918102843009F4B6C0853030F4EB
:10105000882359F0823009F046CF65C0863009F404
:10106000F1C0873009F03FCF19C1809196018823E4
:1010700009F439CF1092960181E060E00E94FF01EF
:1010800080916A02813049F0AEE6B2E0E6E5F2E036
:1010900088E001900D928150E1F710926A02209150
:1010A000730290917402809175024DB75EB74A50F9
:1010B00050400FB6F8945EBF0FBE4DBFEDB7FEB700
:1010C0003196ADB7BEB71296DC93CE931197B3822B
:1010D000A2822483158296831782808711860E94BC
:1010E00064122DB73EB7265F3F4F0FB6F8943EBF50
:1010F0000FBE2DBF80E060E04EE451E00E94D302BD
:1011000083E061E0AE010E94D3028FE060E00E94C4
:10111000FF0108E010E080E160E00E94FF01015063
:101120001040C9F7E0CE109281028091620262E025
:101130000E94400620917302909174028091750282
:101140004DB75EB74A5050400FB6F8945EBF0FBE21
:101150004DBFEDB7FEB73196ADB7BEB71296DC9373
:10116000CE931197B382A28224831582968317822D
:10117000808711860E9464122DB73EB7265F3F4FCD
:101180000FB6F8943EBF0FBE2DBF83E061E0AE0105
:101190000E94D30200E010E006C080E160E00E94FF
:1011A000FF010F5F1F4F80916202A701481B510989
:1011B0000417150794F397CE109281028091620272
:1011C00064E00E9440062091730290917402809125
:1011D0007502ADB7BEB71A970FB6F894BEBF0FBE73
:1011E000ADBFEDB7FEB731961296DC93CE93119753
:1011F000B382A28224831582968317828087118608
:101200000E9464122DB73EB7265F3F4F0FB6F89489
:101210003EBF0FBE2DBF83E061E0AE010E94D3024E
:1012200000E010E006C080E160E00E94FF010F5F77
:101230001F4F80916202A701481B5109041715072F
:1012400094F351CE80916202873050F484E160E0E3
:101250000E94FF01809162028F5F809362020BC047
:101260001092620207E010E080E160E00E94FF015E
:1012700001501040C9F780916202823029F08091BC
:101280006202853009F000C284E160E00E94FF0143
:10129000809162028F5F80936202F6C183E0809347
:1012A0004C0218C280918102863009F444C0873014
:1012B00009F44CC0882309F016CE8091960188234A
:1012C00099F080E060E04CE551E00E94D30205E037
:1012D00010E080E160E00E94FF0101501040C9F77A
:1012E000109296011092620280916A02882309F49A
:1012F000FACD80916202882371F482E060E00E945E
:10130000FF010AE010E084E160E00E94FF0101506B
:101310001040C9F70DC082E060E00E94FF010DE0BF
:1013200010E084E160E00E94FF0101501040C9F725
:1013300010926A02D8CD9091620281E0911180E012
:101340008093620281E080936A029EC18091620272
:10135000882349F082E080934C021092620281E07F
:1013600080936A02B7C18091730280935B0280917F
:10137000740280935C028091750280935D029FC12C
:1013800080918102843009F4B5C0853030F488231F
:1013900059F0823009F0A7CD62C0863009F4F2C05E
:1013A000873009F0A0CD1AC180919601882309F4F5
:1013B0009ACD1092960181E060E00E94FF01809139
:1013C0005102813049F0AEE6B2E0E6E5F2E088E0B5
:1013D00001900D928150E1F710925102209172021A
:1013E0009091710280917002ADB7BEB71A970FB697
:1013F000F894BEBF0FBEADBFEDB7FEB731961296E3
:10140000DC93CE931197D382C28224831582968374
:101410001782808711860E9464122DB73EB7265F1F
:101420003F4F0FB6F8943EBF0FBE2DBF80E060E087
:101430004BE751E00E94D30283E061E0AE010E94DD
:10144000D3028FE060E00E94FF0108E010E080E13D
:1014500060E00E94FF0101501040C9F744CD109296
:1014600081028091520290E062E070E00E94E80008
:101470002091720290917102809170024DB75EB717
:101480004A5050400FB6F8945EBF0FBE4DBFEDB747
:10149000FEB73196ADB7BEB71296DC93CE931197D7
:1014A000D382C28224831582968317828087118615
:1014B0000E9464122DB73EB7265F3F4F0FB6F894D7
:1014C0003EBF0FBE2DBF83E061E0AE010E94D3029C
:1014D00000E010E006C080E160E00E94FF010F5FC5
:1014E0001F4F80915202A701481B5109041715078D
:1014F00094F3F9CC109281028091520290E064E062
:1015000070E00E94E8002091720290917102809137
:101510007002ADB7BEB71A970FB6F894BEBF0FBE34
:10152000ADBFEDB7FEB731961296DC93CE9311970F
:10153000D382C28224831582968317828087118684
:101540000E9464122DB73EB7265F3F4F0FB6F89446
:101550003EBF0FBE2DBF83E061E0AE010E94D3020B
:1015600000E010E006C080E160E00E94FF010F5F34
:101570001F4F80915202A701481B510904171507FC
:1015800094F3B1CC80915202873050F484E160E052
:101590000E94FF01809152028F5F809352020BC024
:1015A0001092520207E010E080E160E00E94FF012B
:1015B00001501040C9F780915202823029F0809189
:1015C0005202853009F060C084E160E00E94FF01B2
:1015D000809152028F5F8093520256C070924C02EB
:1015E00079C080918102863009F444C0873009F4C3
:1015F0004EC0882309F077CC80919601882399F01A
:1016000080E060E04CE551E00E94D30205E010E08C
:1016100080E160E00E94FF0101501040C9F7109284
:1016200096011092520280915102882309F45BCCFA
:1016300080915202882371F482E060E00E94FF01F1
:101640000AE010E084E160E00E94FF0101501040D8
:10165000C9F70DC082E060E00E94FF010DE010E0DC
:1016600084E160E00E94FF0101501040C9F7109230
:10167000510239CC9091520281E0911180E0809327
:10168000520281E080935102109281022CCC809111
:101690005202882341F090924C021092520281E053
:1016A0008093510217C080917002809358028091FC
:1016B0007102809359028091720280935A0281E0F4
:1016C00080934C0282E060E00E94FF018CE060E0C9
:1016D0000E94FF011092810281E08093960103CC69
:1016E0000F931F93DF93CF93CDB7DEB728970FB635
:1016F000F894DEBF0FBECDBF29833A834B835C8352
:101700006D837E838F83988720917302E0917402AA
:1017100030E0F0E03197EE0FFF1FE00FF11F808106
:101720009181281739075CF0E0917402F0E031975D
:10173000EE0FFF1FE00FF11F808180937302289648
:101740000FB6F894DEBF0FBECDBFCF91DF911F91D2
:101750000F9108952F923F924F925F926F927F92D6
:101760008F929F92AF92BF92CF92DF92EF92FF92B1
:101770000F931F93DF93CF93CDB7DEB763970FB669
:10178000F894DEBF0FBECDBF6C017F876E87FC0172
:1017900017821682838181FD04C06FC34C855D85ED
:1017A00004C01E010894211C311CF6019381EE85B2
:1017B000FF8593FD859193FF8191FF87EE878823B5
:1017C00009F457C3853241F493FD859193FF8191CC
:1017D000FF87EE87853259F490E0B6014A8B5B8B28
:1017E0000E9438124A895B895D874C87D7CF10E009
:1017F000FF2400E00032B0F48B3269F08C3228F420
:10180000803251F0833271F40BC08D3239F0803365
:1018100049F401602CC00260046029C0086027C040
:10182000006125C007FD2EC0282F20532A3098F4D0
:1018300006FF08C0812F880F182F110F110F180FE6
:10184000120F15C08F2D880FF82EFF0CFF0CF80E0D
:10185000F20E00620CC08E3221F406FD0AC3006451
:1018600006C08C3611F4006802C0883659F4EE8543
:10187000FF8593FD859193FF8191FF87EE878823F4
:1018800009F0B8CF982F9554933018F40061805E1A
:1018900006C0982F9556933008F09BC10F7E06FF27
:1018A00016E06FE3E62EE022853619F4F0E4EF2A25
:1018B00007C0863619F420E8E22A02C0111111503F
:1018C000E7FE06C01C3340F4912E939427E00BC032
:1018D000183030F4212F06C027E03CE3932E03C0DC
:1018E00027E017E09924CA0104969D878C87FA01A6
:1018F0006081718182819381A101092D0E944A1129
:101900005C016980262D30E0398B288B60FE03C096
:10191000388933FF06C0E1FC06C0E2FE06C000E2E3
:1019200005C00DE203C00BE201C000E0888999897F
:101930008C7090700097C1F1002311F084E001C019
:1019400083E08F1558F4F81AE3FC09C080E290E0B8
:10195000B6010E943812FA94C9F701C0FF2400238F
:1019600029F0802F90E0B6010E943812888983FD0B
:1019700003C000E910E00EC00CE810E00BC0A11499
:10198000B10409F0805290E0B6010E9438120F5F56
:101990001F4F05C0AE2CBB2490E1A922BB24F80147
:1019A0008491882361F762C2E7FE0EC09A0CF88921
:1019B000F4FF04C08A81813309F49A94191454F510
:1019C000292D293050F52DC0E6FC2BC0812F90E049
:1019D0008A159B054CF03CEFA3163FEFB30624F0AD
:1019E00080E8E82A01C01150112349F0E2E0F0E05C
:1019F000EC0FFD1FE10FF11D80818033A1F3E7FEA5
:101A000010C0912E9394812F90E0A816B90644F44B
:101A10001A1907C09924939404C098E0992E01C024
:101A200010E0E7FE07C01A141B043CF495012F5F79
:101A30003F4F05C025E030E002C021E030E0002348
:101A400011F02F5F3F4F112329F0812F90E0019675
:101A5000280F391F8F2D90E02817390714F4F21A38
:101A600001C0FF244E2C5524C2018970907000974C
:101A700049F406C080E290E0B6010E943812FA9460
:101A8000FF20C1F7002329F0802F90E0B6010E94CB
:101A9000381243FC09C006C080E390E0B6010E9402
:101AA0003812FA94FF20C1F7E7FE46C03501B7FEB1
:101AB00002C06624772425010894411C511C461855
:101AC0005708420C531CF501E919F1094F01812F08
:101AD00090E000271127081B190BFFEF6F16FFEF8F
:101AE0007F0629F48EE290E0B6010E943812A61417
:101AF000B70434F0861497041CF4F201808101C00D
:101B000080E30894610871080894411C511C601618
:101B100071062CF090E0B6010E943812DECF6A14F4
:101B20007B0441F49A81963320F4953319F4F889B3
:101B3000F4FF81E390E049C08A81813311F02FEEF8
:101B4000622290E0B6010E943812112389F08EE2E1
:101B500090E0B6010E94381202E0F101E00FF11DA1
:101B60000F5F808190E0B6010E9438121150A9F7F2
:101B700044FE03C085E490E002C085E690E0B60133
:101B80000E943812B7FC05C0A114B10441F464FEF0
:101B900006C0B094A194B108B3948DE201C08BE269
:101BA00090E0B6010E94381280E305C08F5FE6EF37
:101BB000FFEFAE0EBF1EFAE0AF16B104BCF790E027
:101BC000B6010E943812C501C096B6010E943812B3
:101BD0004DC1833631F0833789F0833509F059C020
:101BE00022C09A012E5F3F4F3D872C87FA018081EA
:101BF0008983310181E0A82EB12C13C09A012E5F98
:101C00003F4F3D872C87FA016080718006FF03C03B
:101C1000612F70E002C06FEF7FEFC3010E942D12B1
:101C20005C010F7714C09A012E5F3F4F3D872C87D0
:101C3000FA016080718006FF03C0612F70E002C06E
:101C40006FEF7FEFC3010E9422125C01006803FD69
:101C50001CC006C080E290E0B6010E943812FA94DF
:101C60008F2D90E0A816B906A8F30FC0F30107FD69
:101C7000859107FF81913F0190E0B6010E943812E3
:101C8000F110FA940894A108B108A114B10471F7F5
:101C9000EDC0843611F0893661F507FF0BC09A015B
:101CA0002C5F3F4F3D872C87FA01608171818281D3
:101CB00093810CC09A012E5F3F4F3D872C87FA011C
:101CC00060817181882777FD8095982F0F7697FF27
:101CD00008C090958095709561957F4F8F4F9F4F6D
:101CE0000068A1012AE030E00E949412982E921818
:101CF00041C0853721F40F7E2AE030E020C0097F03
:101D00008F36A9F0803720F4883509F0B2C00BC0B7
:101D1000803721F0883709F0ACC001C0006104FFB2
:101D200009C0046007C004FF08C0066006C028E0C0
:101D300030E005C020E130E002C020E132E007FFE2
:101D40000AC0CA0104969D878C87FA01608171815F
:101D50008281938109C0CA0102969D878C87FA010E
:101D60006081718180E090E0A1010E949412982E20
:101D700092180F7706FF09C00E7F911630F404FF0A
:101D800006C002FD04C00F7E02C0E92C01C0E12E96
:101D9000802F90E004FF0CC0FE01E90DF11D2081B1
:101DA000203311F4097E09C0E39402FF06C004C089
:101DB00086789070009709F0E394A02EBB2403FD71
:101DC00014C000FF0FC0EF1428F4192D1F0D1E19A9
:101DD000EF2C08C0192D06C080E290E0B6010E94E9
:101DE0003812E394EF14C0F304C0EF1410F4FE189B
:101DF00001C0FF24A4FE0FC080E390E0B6010E9462
:101E00003812A2FE1FC0A1FE03C088E590E010C0FA
:101E100088E790E00DC0C50186789070009791F03A
:101E2000A1FC02C080E201C08BE207FD8DE290E0E0
:101E3000B6010E94381206C080E390E0B6010E940D
:101E4000381211509116C0F39A94F101E90DF11D69
:101E5000808190E0B6010E9438129920A9F706C04F
:101E600080E290E0B6010E943812FA94FF20C1F798
:101E700095CCF6012681378102C02FEF3FEFC901D3
:101E800063960FB6F894DEBF0FBECDBFCF91DF9142
:101E90001F910F91FF90EF90DF90CF90BF90AF9088
:101EA0009F908F907F906F905F904F903F902F907A
:101EB00008955058BB27AA270ED01CC10DD130F071
:101EC00012D120F031F49F3F11F41EF402C10EF440
:101ED000E095E7FBF8C0E92F1ED180F3BA1762073F
:101EE00073078407950718F071F49EF536C10EF458
:101EF000E0950B2EBA2FA02D0B01B90190010C011A
:101F0000CA01A0011124FF27591B99F0593F50F431
:101F1000503E68F11A16F040A22F232F342F442789
:101F2000585FF3CF469537952795A795F040539581
:101F3000C9F77EF41F16BA0B620B730B840BBAF051
:101F40009150A1F0FF0FBB1F661F771F881FC2F7BC
:101F50000EC0BA0F621F731F841F48F487957795D0
:101F60006795B795F7959E3F08F0B3CF9395880F87
:101F700008F09927EE0F9795879508950CD0BAC071
:101F8000B2D040F0A9D030F021F45F3F19F09BC0EF
:101F90005111E4C09EC0BFD098F39923C9F35523D3
:101FA000B1F3951B550BBB27AA276217730784074C
:101FB00038F09F5F5F4F220F331F441FAA1FA9F302
:101FC00033D00E2E3AF0E0E830D091505040E695F4
:101FD000001CCAF729D0FE2F27D0660F771F881F55
:101FE000BB1F261737074807AB07B0E809F0BB0B44
:101FF000802DBF01FF2793585F4F2AF09E3F510568
:1020000068F061C0ABC05F3FECF3983EDCF38695AF
:1020100077956795B795F7959F5FC9F7880F911DDD
:102020009695879597F90895E1E0660F771F881FC9
:10203000BB1F621773078407BA0720F0621B730B7C
:10204000840BBA0BEE1F88F7E0950895E89409C059
:1020500097FB3EF490958095709561957F4F8F4FDB
:102060009F4F9923A9F0F92F96E9BB279395F695F1
:10207000879577956795B795F111F8CFFAF4BB0F6F
:1020800011F460FF1BC06F5F7F4F8F4F9F4F16C0D3
:10209000882311F096E911C0772321F09EE8872F5D
:1020A000762F05C0662371F096E8862F70E060E019
:1020B0002AF09A95660F771F881FDAF7880F969592
:1020C000879597F9089597F99F6780E870E060E039
:1020D00008959FEF80EC089500240A9416161706C1
:1020E00018060906089500240A9412161306140609
:1020F00005060895092E0394000C11F4882352F06C
:10210000BB0F40F4BF2B11F460FF04C06F5F7F4F23
:102110008F4F9F4F089557FD9058440F551F59F00A
:102120005F3F71F04795880F97FB991F61F09F3FC4
:1021300079F087950895121613061406551FF2CFED
:102140004695F1DF08C0161617061806991FF1CF3D
:1021500086957105610508940895E894BB27662764
:102160007727CB0197F908950BD0C4CFB5DF28F0BE
:10217000BADF18F0952309F0A6CFABCF1124EECF2C
:10218000CADFA0F3959FD1F3950F50E0551F629FD2
:10219000F001729FBB27F00DB11D639FAA27F00DC0
:1021A000B11DAA1F649F6627B00DA11D661F829FE7
:1021B0002227B00DA11D621F739FB00DA11D621FCC
:1021C000839FA00D611D221F749F3327A00D611DE9
:1021D000231F849F600D211D822F762F6A2F1124CB
:1021E0009F5750408AF0E1F088234AF0EE0FFF1F1E
:1021F000BB1F661F771F881F91505040A9F79E3F55
:10220000510570F060CFAACF5F3FECF3983EDCF34E
:10221000869577956795B795F795E7959F5FC1F791
:10222000FE2B880F911D9695879597F90895991B18
:1022300079E004C0991F961708F0961B881F7A95BD
:10224000C9F78095089597FB092E07260AD077FDD8
:1022500004D00CD006D000201AF4709561957F4F01
:102260000895F6F7909581959F4F0895AA1BBB1B83
:1022700051E107C0AA1FBB1FA617B70710F0A61B86
:10228000B70B881F991F5A95A9F780959095BC01A7
:10229000CD010895283008F027E03327DA01990F9F
:1022A000311D87FD916000966105710539F432603A
:1022B0002E5F3D9330E32A95E1F708959F3F30F07C
:1022C00080387105610509F03C5F3C5F3D939130BA
:1022D00008F08068911DDF93CF931F930F93FF92B7
:1022E000EF92192F987F9695E92F96959695E90F7D
:1022F000FF27E251FF4F99273327EE24FF24A70140
:10230000E70105900894079428F4360FE71EF81E9D
:10231000491F511D660F771F881F991F0694A1F74B
:102320000590079428F4E70EF81E491F561FC11D9B
:10233000770F881F991F661F0694A1F705900794D1
:1023400028F4F80E491F561FC71FD11D880F991F6B
:10235000661F771F0694A1F70590079420F4490F94
:10236000561FC71FD81F990F661F771F881F069417
:10237000A9F784911095177041F0D695C795579598
:102380004795F794E7941A95C1F7E4E9F0E068946B
:102390001590159135916591959105907FE2739512
:1023A000E118F10A430B560BC90BD009C0F7E10C39
:1023B000F11E431F561FC91FD01D7EF4703311F448
:1023C0008A95E6CFE894015030F0080F0AF4002710
:1023D000021708F4202F2395022F7A3328F079E38F
:1023E0007D932A95E9F710C07D932A9589F6069486
:1023F00097956795379517951794E118F10A430B50
:10240000560BC90BD00998F023957E9173957A33BA
:1024100008F070E37C932013B8F77E9170617D9390
:1024200030F0839571E37D9370E32A95E1F71124F1
:10243000EF90FF900F911F91CF91DF91992787FD2A
:1024400090950895FC010590615070400110D8F7F7
:10245000809590958E0F9F1F0895FC0161507040EC
:1024600001900110D8F7809590958E0F9F1F0895C9
:102470000F931F93CF93DF938C01EB018B8181FF2F
:102480001BC082FF0DC02E813F818C819D8128174A
:10249000390764F4E881F9810193F983E88306C080
:1024A000E885F985802F0995009731F48E819F8109
:1024B00001969F838E8302C00FEF1FEFC801DF914B
:1024C000CF911F910F9108950F931F93DF93CF9397
:1024D000CDB7DEB72E970FB6F894DEBF0FBECDBFD7
:1024E0000D891E8986E08C831A8309838FEF9FE70D
:1024F0009E838D839E01275E3F4FCE0101966F899B
:10250000788DA9010E94AA0BEF81F885E00FF11FD9
:1025100010822E960FB6F894DEBF0FBECDBFCF91BE
:10252000DF911F910F910895FA01AA27283051F1E8
:10253000203181F1E8946F936E7F6E5F7F4F8F4FF4
:102540009F4FAF4FB1E03ED0B4E03CD0670F781F53
:10255000891F9A1FA11D680F791F8A1F911DA11D38
:102560006A0F711D811D911DA11D20D009F4689471
:102570003F912AE0269F11243019305D3193DEF619
:10258000CF010895462F4770405D4193B3E00FD0CF
:10259000C9F7F6CF462F4F70405D4A3318F0495DBA
:1025A00031FD4052419302D0A9F7EACFB4E0A6959D
:1025B0009795879577956795BA95C9F700976105BF
:1025C000710508959B01AC010A2E06945795479515
:1025D00037952795BA95C9F7620F731F841F951F0A
:0825E000A01D0895F894FFCF3F
:1025E80030303A303000543D20302E303000543DE9
:1025F80020006E6F7468696E67002D0025303264A4
:102608002F253032642F253032642C002530326477
:102618003A25303264002530352E326600200025F8
:102628003032642F253032642F25303264004564FF
:102638006974696E6720646174653A00436F6E66F9
:1026480065726D693F2053692F4E6F0025303264E3
:102658003A253032643A2530326400456469746939
:102668006E672074696D653A001F1C1F1E1F1E1FB0
:102678001F1E1F1E1F0101000000000000000000B7
:10268800000000000000312E54696D657A6F6E6598
:10269800202020202000322E446174652020202034
:1026A800202020202000332E54696D652020202012
:1026B800202020202000342E555342207472616E51
:1026C800736665722000352E68656C6C6F2020205B
:1026D800202020202000362E776F726C6420202066
:1026E800202020202000372E6F737469202020209E
:1026F80020202020200020202020202020202020F2
:102708002020202020000000000000000000000021
:102718000000000000000000000000202020202011
:0C27280020202020202020202020000065
:00000001FF
