:100000000C94C7000C94E6000C94E6000C94E600F7
:100010000C94E6000C94E6000C94E6000C94E600C8
:100020000C94E6000C9439070C94E6000C94E6005E
:100030000C94E6000C94E6000C94E6000C94E205A7
:100040000C94E6000C94E6000C94E6000C94E60098
:100050000C94E6000C945A140C94E6000C94E60000
:100060000C94E6000C94E6000C94E6000C94E60078
:100070000C94E6000C94E6000C94E6000C94E60068
:100080000C94E6000C94E6000C94E6006E616E00A1
:10009000696E660000407A10F35A00A0724E18098B
:1000A0000010A5D4E80000E87648170000E40B54DF
:1000B000020000CA9A3B000000E1F50500008096AE
:1000C0009800000040420F000000A08601000000E0
:1000D000102700000000E80300000000640000009A
:1000E00000000A00000000000100000000002C7663
:1000F000D888DC674F0823DFC1DFAE59E1B1B7967E
:10010000E5E3E453C63AE651997696E8E6C28426DA
:10011000EB898C9B62ED407C6FFCEFBC9C9F40F2B6
:10012000BAA56FA5F490055A2AF75C936B6CF96732
:100130006DC11BFCE0E40D47FEF520E6B500D0EDF7
:10014000902E0300943577050080841E080000205F
:100150004E0A000000C80C333333330F986E1283FD
:100160001141EF8D2114893BE65516CFFEE6DB18D1
:10017000D1844B381BF77C1D901DA4BBE424203296
:1001800084725E228100C9F124ECA1E53D2711248F
:100190001FBECFEFD0E1DEBFCDBF12E0A0E0B1E0E7
:1001A000EAE6F9E300E00BBF02C007900D92AC371E
:1001B000B107D9F714E0ACE7B2E001C01D92AA3D47
:1001C000B107E1F70E94C60A0C94B31C0C9400001E
:1001D000982F462F3091BC04A091BC048091BB04A1
:1001E000F091BB042091BA04E091BA04933009F471
:1001F00059C0943030F4992371F0913009F0CEC099
:1002000023C0963009F48BC0973009F49EC0943017
:1002100009F0C4C060C0623049F48091BC048E30E3
:1002200008F0BCC08091BC04865F0BC0643009F04C
:10023000B5C08091BC048A3008F4B0C08091BC0481
:100240008A508093BC0408955AE0832F652F0E9442
:10025000D11A292F30E08A2F0E94D11A423081F41E
:100260002330310554F0482F50E0423051050CF056
:1002700095C02930310509F491C02F5F3F4F09C067
:10028000443009F08BC02115310509F487C0215095
:100290003040880F982F990F990F980F920F9093D5
:1002A000BC040895623049F48091BB04823308F0A5
:1002B00075C08091BB04865F0BC0643009F06EC0CE
:1002C0008091BB048A3008F469C08091BB048A50D5
:1002D0008093BB0408955AE0652F0E94D11A292FFC
:1002E00030E08F2F0E94D11A423039F42930310585
:1002F00009F454C02F5F3F4F09C0443009F04EC08D
:100300002115310509F44AC021503040880F982F3B
:10031000990F990F980F920F9093BB040895623034
:1003200041F48091BA048233C8F58091BA04865FA3
:1003300009C0643099F58091BA048A3078F18091CF
:10034000BA048A508093BA0408955AE0822F652F28
:100350000E94D11A292F30E08E2F0E94D11A4230EC
:1003600071F429303105D1F02F5F3F4F880F982F5E
:10037000990F990F980F920F9093BA0408954430F3
:1003800069F42115310551F021503040880F982F24
:10039000990F990F980F920F9093BA0408958CE0DB
:1003A00080937000E1E7F0E080818C7F8083089586
:1003B00054EA40EA34E8509374002091740027FF17
:1003C000FCCF20917100287F283009F040C0409375
:1003D0007300309374002091740027FFFCCF2091AC
:1003E0007100287F283139F79093730094E8909337
:1003F00074009091740097FFFCCF90917100987FEA
:10040000983229F58093730084E88093740080917A
:10041000740087FFFCCF80917100887F8832B9F427
:100420006093730084E8809374008091740087FF68
:10043000FCCF80917100887F883259F484E98093E1
:1004400074008091740084FDFCCF81E0089580E009
:10045000089580E0089554EA40EA34E85093740027
:100460002091740027FFFCCF20917100287F283055
:1004700009F05BC0409373003093740020917400C6
:1004800027FFFCCF20917100287F283139F7909306
:10049000730094E8909374009091740097FFFCCFE0
:1004A00090917100987F983209F03FC0809373005B
:1004B00084E8809374008091740087FFFCCF809162
:1004C0007100887F883289F584EA80937400809176
:1004D000740087FFFCCF80917100887F803129F5FF
:1004E00081EA8093730084E88093740080917400A3
:1004F00087FFFCCF80917100887F8034B1F484E85D
:10050000809374008091740087FFFCCF809171000C
:10051000887F883561F48091730094E9909374002A
:100520009091740094FDFCCF089580E0089580E0E0
:1005300008958AB3807F8ABBA89AA99882E08A9599
:10054000F1F700C0AA9A92E09A95F1F700C089B33A
:100550008295807F92E09A95F1F700C0AA9895E085
:100560009A95F1F70000AA9A92E09A95F1F700C0E7
:1005700099B392E09A95F1F700C0AA9895E09A9500
:10058000F1F7000087FDDECFA8988AB38F608ABBA1
:100590000895282F22952F708F70662311F4A99843
:1005A00001C0A99A92E09A95F1F700C0AA9A9BB36C
:1005B000907F922B9BBB95E09A95F1F70000AA984B
:1005C00095E09A95F1F70000AA9A9BB3907F982B3B
:1005D0009BBB85E08A95F1F70000AA9895E09A9573
:1005E000F1F700000E9499020895DF93CF930F92D4
:1005F000CDB7DEB72FEF36E741E021503040404025
:10060000E1F700C000009AB39F609ABBA29AA19A3A
:10061000A09A9BB3907F9BBBAA98A898A99800C06A
:1006200000C00000AA9AD99A35E03A95F1F7000087
:10063000AA9845E04A95F1F7000089830E94990243
:1006400089818C6060E00E94C90288E260E00E94BB
:10065000C9020F90CF91DF910895EF92FF92CF934F
:10066000DF93E82EE7017E01F92EE70103C061E088
:100670000E94C90289918823D1F7DF91CF91FF9021
:10068000EF900895EF92FF920F931F93DF93CF9314
:1006900000D000D00F92CDB7DEB79B01FE0131969E
:1006A00045E0DF011D924A95E9F7FE0136960AE022
:1006B00010E005C0B8010E94F11A8293CB010097A7
:1006C000C9F7BFEF2F3F3B0751F4FE01319680E0A1
:1006D00090E001C0019621912223E1F304C085E05E
:1006E00090E0821B930B8E010F5F1F4F080F191FA5
:1006F0007C010AC0F80181918F01805D61E00E9458
:10070000C9020894E11CF11CF5E0EF16F10494F322
:100710000F900F900F900F900F90CF91DF911F913E
:100720000F91FF90EF900895883230F4611180644A
:10073000806860E00E94C9020895CF93DF93EA01C8
:100740000E949403CE010E942D03DF91CF91089562
:10075000109271008CE0809370009091700081E0A5
:100760009B3008F480E0089584EA809374008091BF
:10077000740087FFFCCF80917100887F883041F042
:1007800090917100987F81E0903119F480E0089594
:1007900080E0089594EA909374009091740097FF1C
:1007A000FCCF90917100987F983011F0903191F4C6
:1007B0008093730084E8809374008091740087FFB5
:1007C000FCCF90917100983139F081E0903429F498
:1007D00080E0089582E0089580E0089584EA80939F
:1007E00074008091740087FFFCCF90917100987F16
:1007F00081E0903109F480E0089580FF02C040E478
:1008000001C048E18093730084E880937400809174
:1008100074008064809374008091740087FFFCCF23
:100820002091710030E0287F307050E081E0241783
:10083000350709F480E0089580FF02C048E401C054
:1008400040E28093730084E8809374008091740088
:1008500087FFFCCF2091710030E0287F307050E09E
:1008600081E02417350709F480E008958093730030
:1008700084EC809374008091740087FFFCCF90918A
:100880007100987F81E0983209F480E008958093A8
:10089000730084E8809374008091740087FFFCCF1C
:1008A00090917100987F81E0903309F480E0089581
:1008B00084EC809374008091740087FFFCCF80915A
:1008C0007100887F803519F48091730008958EE758
:1008D000089584E8809374008091740087FFFCCFB2
:1008E00080917100887F883519F480917300089594
:1008F0008EE7089584E9809374008091740084FDEC
:10090000FCCF08951F93CF93DF9380EA0E94CA0320
:10091000182F80E00E943604182B80E00E943604D5
:10092000812B813041F0C0E0D0E00AC08FEF0E94FF
:100930003604813021F40E947A0481E006C02196B9
:10094000D7FFF4CF0E947A0480E0DF91CF911F910E
:100950000895CF92DF92EF92FF920F931F93DF9350
:10096000CF9300D0CDB7DEB7082F6B01F42EE22E67
:100970005A8399830E94B403182FEFEDFEE231975A
:10098000F1F700C0000080EA0E94FD03182B998156
:10099000892F0E943604182B802F0E943604182BB2
:1009A0000E94EE03182B81EA0E94FD03182B5A8146
:1009B0001123B1F00E947A041EC0EE2019F00E94AB
:1009C000580402C00E946904F80180830F5F1F4F22
:1009D000F80180818E3731F40E947A041EE70BC043
:1009E0000F2D152F802F8F1990E08C159D0528F362
:1009F0000E947A041C2D812F0F900F90CF91DF91D0
:100A00001F910F91FF90EF90DF90CF9008959695F2
:100A1000982F88279795879560E870E040E050E030
:100A200020E00E94A90480E090E008950F931F93B6
:100A3000DF93CF9300D00F92CDB7DEB7182F80EAA7
:100A40004B836A8399830E94CA03082F9981892F57
:100A50000E943604082B812F0E943604802B4B8184
:100A60006A81813059F0442321F0862F0E94360498
:100A700003C0862F0E944704813021F40E947A042B
:100A800081E009C00E947A048FE19EE40197F1F7AA
:100A900000C0000080E00F900F900F90CF91DF9189
:100AA0001F910F910895DF92EF92FF920F931F9382
:100AB000CF93DF937C018B01EA01DD240EC0EC0FA4
:100AC000FD1FC701608141E00E941605882321F0C7
:100AD0000E947A0481E007C0D394ED2DF0E0E01786
:100AE000F10768F380E0DF91CF911F910F91FF90A4
:100AF000EF90DF900895EF92FF920F931F93DF9393
:100B0000CF930F92CDB7DEB77B018C011695102FD6
:100B100000271795079520E0F701E20FF11DC801A6
:100B2000608141E029830E9416052981882321F0F4
:100B30000E947A0481E004C02F5F203869F780E0CA
:100B40000F90CF91DF911F910F91FF90EF9008953B
:100B5000FF920F931F93DF93CF930F92CDB7DEB722
:100B6000182FF62E80EA99830E94CA039981882360
:100B7000D1F4892F0E943604082F812F0E94360459
:100B8000082B0E94EE03082B81EA0E94FD03802BB4
:100B9000813049F0FF2019F00E94580402C00E94E1
:100BA00069048E3721F40E947A048DE704C089839A
:100BB0000E947A0489810F90CF91DF911F910F914C
:100BC000FF9008951F920F920FB60F920BB60F92DF
:100BD00011242F933F938F939F93EF93FF938091D3
:100BE0001803882309F438C12091180331E03093A9
:100BF000180381B18093C3048091C30480728093F1
:100C0000C2048091C3048078809306038091C3045A
:100C100080748093CC048091CC048823B9F48091B3
:100C2000CB04882399F480918A0290918B020196DB
:100C300090938B0280938A0280918A0290918B021A
:100C400085369105B8F13093CB0434C08091CC0443
:100C5000882311F01092CB0480918A0290918B022C
:100C60008F30910528F410928B0210928A0222C0D4
:100C700080918A0290918B028031910568F0809179
:100C80008A0290918B028436910530F410928B0287
:100C900010928A0286E00CC080918A0290918B02A9
:100CA0008536910538F010928B0210928A0287E007
:100CB0008093D5048091C204882351F480918602E8
:100CC00090918702019690938702809386020EC0CE
:100CD00080918602909187028F30910518F082E012
:100CE0008093D504109287021092860280910603A9
:100CF000882351F480918802909189020196909303
:100D00008902809388020EC08091880290918902A6
:100D10008F30910518F084E08093D50410928902F9
:100D2000109288028091C204882371F48091060396
:100D3000882351F480918C0290918D0201969093BA
:100D40008D0280938C020EC080918C0290918D0256
:100D50008F30910518F088E08093D50410928D02B1
:100D600010928C0280910B0390910C0383369105B5
:100D700050F480910B0390910C03019690930C0317
:100D800080930B035FC010920C0310920B038091B1
:100D90000D038B3348F480910D038F5F80930D0317
:100DA00081E0809305034EC010920D0380910E03E5
:100DB0008B3330F480910E038F5F80930E033FC01E
:100DC00010920E0380910F03873130F480910F034E
:100DD0008F5F80930F0333C010920F039091100325
:100DE000E0911103F0E0E259FD4F8081981790F4F3
:100DF000809110038F5F80931003809110038D31D9
:100E0000D9F4809111038230B9F480911203837078
:100E100099F01BC081E080931003909111039C30E6
:100E200020F4809111038F5F14C08093110380918F
:100E300012038F5F8093120381E08093E20181E0CF
:100E4000809396022093180307C081E080931003DB
:100E500083E080931103F0CFFF91EF919F918F91E9
:100E60003F912F910F900BBE0F900FBE0F901F90D0
:100E700018951F920F920FB60F9211242F933F9344
:100E80008F939F93809118038330E8F0209118038B
:100E9000809191029091920231E08C32930750F44C
:100EA0008091910290919202019690939202809388
:100EB000910209C01092920210929102C09885B5D9
:100EC00015BC209318039F918F913F912F910F9004
:100ED0000FBE0F901F9018958FE08ABB81E087BBF3
:100EE00080EE83B987E086B986B1886A86B917B87B
:100EF00087B18B6087B980E00E94F50281E060E0F5
:100F00000E94C9028BE060E040E051E00E949D0336
:100F100080E061E046E051E00E949D038FED61E0DA
:100F20000E94C90287E061E04DE051E00E949D030C
:100F30008EE061E045E151E00E949D0383B7876048
:100F400083BF83B7886083BF87B7826087BF8BE921
:100F500081BF85B5886085BD87B7806887BF8CE90C
:100F600083BD7894369A0895AF92BF92CF92DF9264
:100F7000EF92FF920F931F9364B175B180E090E000
:100F80000E94B81920E030E040EA50E40E944A1A7A
:100F900020E030E048E458E40E941F1920E030E0EF
:100FA00040E250E40E94BB189B01AC012093D104A5
:100FB0003093D2044093D3045093D4046091D1046D
:100FC0007091D2048091D3049091D404E090D10424
:100FD000F090D2040091D3041091D40420E030ECBE
:100FE0004FE055E40E944A1A20E030EE4BEA55E407
:100FF0000E94BA185B016C0160E070E080EA90E446
:10100000A80197010E94BA189B01AC01C601B50165
:101010000E941F199B01AC0120938202309383022E
:101020004093840250938502609182027091830202
:10103000809184029091850220E030E048EC52E4F7
:101040000E94BA1825EC33E946EC5EE30E941F19B2
:101050001F910F91FF90EF90DF90CF90BF90AF90D6
:1010600008958091C004882319F0813069F406C086
:1010700017B8399A81E08093C004089517B887B1F2
:101080008B6087B91092C00408950F931F93CF937C
:10109000DF9324B72093C404F8940097D1F08C0117
:1010A000C0E0D0E060E070E080E090E0F8012191E5
:1010B0003191419151918F010E94BB182196C43604
:1010C000D105A1F720E030E048EC52E40E941F195E
:1010D00015C0862F972FFC0160E070E080E090E063
:1010E0002191820F911D6F5F7F4F64367105C1F7AB
:1010F0000E94DD1A80E090E00E94B8197894209157
:10110000C40424BFDF91CF911F910F9108950F93D5
:101110001F93CF93DF938091E2018823A1F1109276
:10112000E2014091100330911103209112038DB719
:101130009EB70A970FB6F8949EBF0FBE8DBFEDB74E
:10114000FEB73196C5EED1E0ADB7BEB71296DC93CF
:10115000CE93119788E191E0938382834483158233
:1011600036831782208711860E94251CEDB7FEB7B3
:101170003A960FB6F894FEBF0FBEEDBF80E060E078
:10118000AE010E949D0380919602882309F448C015
:101190001092960280910F0300D000D000D0EDB7DE
:1011A000FEB73196C5EED1E0ADB7BEB71296DC936F
:1011B000CE93119708E211E0138302838483158292
:1011C0000E94251CEDB7FEB736960FB6F894FEBF09
:1011D0000FBEEDBF8BE060E0AE010E949D038091E9
:1011E0000E0300D000D000D0EDB7FEB73196ADB7FA
:1011F000BEB71296DC93CE93119713830283848338
:1012000015820E94251CEDB7FEB736960FB6F894EE
:10121000FEBF0FBEEDBF8EE060E0AE010E949D03F9
:10122000809100038823E1F1109200038091D6049D
:101230009091D704A091D804B091D9042DB73EB7AE
:10124000285030400FB6F8943EBF0FBE2DBF4DB7AB
:101250005EB74F5F5F4FC5EED1E0EDB7FEB7D2830B
:10126000C1832DE231E0FA013383228384839583A5
:10127000A683B7830E94251C2DB73EB7285F3F4F3A
:101280000FB6F8943EBF0FBE2DBF80E061E044E38F
:1012900051E00E949D0382E061E0AE010E949D0347
:1012A0008091FF028823F1F11092FF0220918102C8
:1012B00000D000D000D0EDB7FEB73196C5EED1E03A
:1012C000ADB7BEB71296DC93CE93119787E391E04A
:1012D00093838283248315820E94251CEDB7FEB779
:1012E00036960FB6F894FEBF0FBEEDBF8BE061E0FF
:1012F000AE010E949D0380918102843618F081E046
:101300008093FE0280918102843660F48091FE0217
:10131000882341F01092FE028DE061E04BE351E042
:101320000E949D03DF91CF911F910F9108958370CB
:1013300021E030E011F020E030E0C9010895982F5D
:10134000462F2091BF04E091BF048091BE04F0912C
:10135000BE043091BD04A091BD04933009F462C075
:10136000943030F4992371F0913009F0E4C023C037
:10137000963009F4A1C0973009F4B4C0943009F054
:10138000DAC067C0623049F48091BD04863108F04C
:10139000D2C08091BD04865F0BC0643009F0CBC021
:1013A0008091BD048A3008F4C6C08091BD048A5083
:1013B0008093BD0408955AE0832F652F0E94D11AAF
:1013C000292F30E08A2F0E94D11A4230A9F421152A
:1013D000310539F4880F982F990F990F980F9F5F57
:1013E00018C0482F50E043305105ACF42930310586
:1013F00091F02F5F3F4F07C0443069F4211531054C
:1014000051F021503040880F982F990F990F980F65
:10141000920F9093BD048091BD04882309F08BC086
:1014200081E0C6CF623049F48091BE04833008F079
:1014300082C08091BE04865F3CC0643009F07BC0EE
:101440008091BE048A3008F476C08091BE048A5030
:1014500030C05AE0652F0E94D11A292F30E08F2F1B
:101460000E94D11A423081F4223031051CF42F5FE2
:101470003F4F11C08823B9F429303105A1F02F5F07
:101480003F4F2093BE040FC0443069F4211531054D
:1014900051F021503040880F982F990F990F980FD5
:1014A000920F9093BE048091BE04882309F043C03C
:1014B00081E08093BE040895623041F48091BF04BE
:1014C0008A35C8F58091BF04865F09C0643099F5FC
:1014D0008091BF048A3078F18091BF048A50809354
:1014E000BF0408955AE0822F652F0E94D11A292F38
:1014F00030E08E2F0E94D11A423071F4293031052C
:10150000D1F02F5F3F4F880F982F990F990F980FA9
:10151000920F9093BF040895443069F4211531056A
:1015200051F021503040880F982F990F990F980F44
:10153000920F9093BF040895FC018681680F711D7E
:1015400061507040DB018C919581891720F485836F
:1015500021E030E002C020E030E0C9010895809130
:10156000FD02882349F08DE060E04DE351E00E94E8
:101570009D031092FD0208958DE060E04FE351E07D
:101580000E949D0381E08093FD0208954F925F9237
:101590006F927F928F929F92AF92BF92CF92DF9283
:1015A000EF92FF920F931F93DF93CF9300D000D061
:1015B0000F92CDB7DEB789E08093180387E0809360
:1015C000100388E0809311038BE0809312030E9444
:1015D0006C0705EE402E01E0502E10E7A12E11E021
:1015E000B12EB9E78B2EB1E09B2EA3EBCA2EA1E062
:1015F000DA2E08E010E0F5E06F2EE6E8EE2EE1E0EE
:10160000FE2E81E060E00E94C9020E94A8038823A8
:1016100029F581E060E00E94C90285EE91E061E475
:1016200071E00E94E71B80E060E045EE51E00E941F
:101630009D0385EE91E060E571E00E94E71B80E08C
:1016400061E045EE51E00E949D034FEF53ED60E3F2
:10165000415050406040E1F700C0000010927D0210
:1016600010927E0210927F021092800228C0809118
:101670007D0290917E02A0917F02B0918002209124
:101680007D0230917E0240917F0250918002622F54
:1016900041E00E941605782E80917D0290917E0295
:1016A000A0917F02B09180020196A11DB11D80938F
:1016B0007D0290937E02A0937F02B093800280917E
:1016C0007D0290917E02A0917F02B09180028F30C6
:1016D0009105A105B10558F2572D5130C9F481E0AB
:1016E00060E00E94C90285EE91E06CE571E00E9425
:1016F000E71B80E060E045EE51E00E949D036FEF44
:1017000079E688E1615070408040E1F700C0000058
:1017100010927D0210927E0210927F02109280023F
:1017200059C080917D0290917E02A0917F02B0917C
:10173000800260E00E94A80520917D0230917E0227
:1017400040917F0250918002ADB7BEB71A970FB695
:10175000F894BEBF0FBEADBFEDB7FEB7319612967F
:101760005C924E921197B382A28284831582268363
:101770003783408751870E94251CEDB7FEB73A9604
:101780000FB6F894FEBF0FBEEDBF81E060E00E948F
:10179000C90280E060E0A2010E949D034FEF54E384
:1017A0006CE0415050406040E1F700C00000809183
:1017B0007D0290917E02A0917F02B09180020196FD
:1017C000A11DB11D80937D0290937E02A0937F02A4
:1017D000B093800280917D0290917E02A0917F0261
:1017E000B091800285309105A105B10508F499CF2B
:1017F00010927D0210927E0210927F02109280025F
:101800001FC080917D0290917E02A0917F02B091D5
:10181000800285559B4FDC011C9280917D02909146
:101820007E02A0917F02B09180020196A11DB11DA0
:1018300080937D0290937E02A0937F02B0938002FA
:1018400080917D0290917E02A0917F02B0918002F2
:101850008A309105A105B105A0F280E090E06AE030
:1018600070E04BEA54E020E00E94A9041092B50415
:1018700010927D0210927E0210927F0210928002DE
:1018800062C080917D0290917E02A0917F02B09112
:10189000800285559B4FFC01208140917D02509133
:1018A0007E0260917F02709180024A835B836C8329
:1018B0007D836DB77EB76A5070400FB6F8947EBFD7
:1018C0000FBE6DBFEDB7FEB73196ADB7BEB712967E
:1018D0005C924E92119793828282248315824A8170
:1018E0005B816C817D8146835783608771870E940D
:1018F000251C6DB77EB7665F7F4F0FB6F8947EBF2D
:101900000FBE6DBF80E061E0A2010E949D038FEFDA
:101910009EE9A4E281509040A040E1F700C00000A1
:1019200080917D0290917E02A0917F02B091800211
:101930000196A11DB11D80937D0290937E02A0931C
:101940007F02B093800280917D0290917E02A091EF
:101950007F02B09180028A309105A105B10508F49B
:1019600090CF20917C02233009F447C3243030F417
:10197000213091F1223008F0CBC00AC0253009F4A3
:10198000CFC5253008F410C4263009F03ACEB4C6CD
:101990008091D504873028F4823090F4882329F090
:1019A00030CE873009F02DCE10C0809105038823FA
:1019B00021F00E94AF0A109205030E94870897C683
:1019C000C09A85B5856085BD04C081E080937C02A6
:1019D000C09A1092D50415CE8091D504843009F4B4
:1019E00052C0853030F4882359F0823009F009CE96
:1019F0003BC0863009F45DC0873009F002CE68C074
:101A000080911A03882329F48091E301882309F443
:101A1000F8CD1092E30110921A0380E060E044E8F0
:101A200051E00E949D034091C10450E074E0440FD6
:101A3000551F7A95E1F741515E4F81E060E00E94C9
:101A40009D0380E061E04FE351E00E949D034091DF
:101A5000C10450E064E0440F551F6A95E1F741501E
:101A60005E4F81E061E064C68091C1048F5F809326
:101A7000C1048091C10467E00E94D11A9093C1040F
:101A800020931A03A6CF8091C104882321F080916E
:101A9000C104815001C086E08093C1048091C104DB
:101AA00067E00E94D11A9093C10481E080931A03E9
:101AB00090CF9091C104913039F0913008F49AC2DE
:101AC000923009F014C602C082E094C284E092C24F
:101AD00010927C021092D504C098C09A85B585609A
:101AE00085BD81E060E029830E94C90282E060E058
:101AF0000E94C9028CE060E00E94C9021092C104F9
:101B000029812093E201209396022093000379CD4E
:101B10008091D504843009F4F5C0853030F48823F1
:101B200059F0823009F06DCD7FC0863009F455C17F
:101B3000873009F066CD5DC28091E301882309F406
:101B400060CD1092E30181E060E00E94C902A8EB41
:101B5000B4E0EBE0F3E088E001900D928150E1F712
:101B60002091BD049091BE048091BF04ADB7BEB773
:101B70001A970FB6F894BEBF0FBEADBFEDB7FEB754
:101B8000319612965C924E921197F382E2822483F0
:101B9000158296831782808711860E94251CEDB7D7
:101BA000FEB73A960FB6F894FEBF0FBEEDBF80E0C9
:101BB00060E045E951E00E949D0383E061E0A201FD
:101BC0000E949D038FE060E00E94C90210927D0296
:101BD00010927E0210927F021092800217C080E164
:101BE00060E00E94C90280917D0290917E02A091E6
:101BF0007F02B09180020196A11DB11D80937D02EC
:101C000090937E02A0937F02B093800280917D0228
:101C100090917E02A0917F02B09180028830910560
:101C2000A105B105E0F2EDCC1092D5048091170327
:101C300062E00E949F092091BD049091BE048091B2
:101C4000BF044DB75EB74A5050400FB6F8945EBF20
:101C50000FBE4DBFEDB7FEB73196ADB7BEB712960A
:101C60005C924E921197F382E282248315829683CE
:101C70001782808711860E94251CEDB7FEB73A9621
:101C80000FB6F894FEBF0FBEEDBF83E061E0A20186
:101C90000E949D0310927D0210927E0210927F029C
:101CA0001092800217C080E160E00E94C90280911A
:101CB0007D0290917E02A0917F02B09180020196F8
:101CC000A11DB11D80937D0290937E02A0937F029F
:101CD000B093800220917D0230917E0240917F027C
:101CE0005091800280911703B801681B7109CB01E4
:101CF000AA2797FDA095BA2F281739074A075B072F
:101D000090F27FCC1092D5048091170364E00E947A
:101D10009F092091BD049091BE048091BF04ADB78E
:101D2000BEB71A970FB6F894BEBF0FBEADBFEDB7E2
:101D3000FEB7319612965C924E921197F382E28230
:101D40002483158296831782808711860E94251C22
:101D5000EDB7FEB73A960FB6F894FEBF0FBEEDBFD3
:101D600083E061E0A2010E949D0310927D02109227
:101D70007E0210927F021092800217C080E160E024
:101D80000E94C90280917D0290917E02A0917F0203
:101D9000B09180020196A11DB11D80937D029093A8
:101DA0007E02A0937F02B093800220917D02309149
:101DB0007E0240917F025091800280911703B8010A
:101DC000681B7109CB01AA2797FDA095BA2F281788
:101DD00039074A075B0790F214CC809117038730CC
:101DE00090F510927D0210927E0210927F02109266
:101DF000800217C084E160E00E94C90280917D02E8
:101E000090917E02A0917F02B09180020196A11D67
:101E1000B11D80937D0290937E02A0937F02B093C8
:101E2000800280917D0290917E02A0917F02B0910C
:101E300080020097A105B105E9F2809117038F5F39
:101E4000809317032FC01092170310927D021092F7
:101E50007E0210927F021092800217C080E160E043
:101E60000E94C90280917D0290917E02A0917F0222
:101E7000B09180020196A11DB11D80937D029093C7
:101E80007E02A0937F02B093800280917D029091A8
:101E90007E02A0917F02B091800287309105A1055A
:101EA000B105E0F280911703823029F08091170389
:101EB000853009F08ECD10927D0210927E02109234
:101EC0007F021092800217C084E160E00E94C90284
:101ED00080917D0290917E02A0917F02B09180025C
:101EE0000196A11DB11D80937D0290937E02A09367
:101EF0007F02B093800280917D0290917E02A0913A
:101F00007F02B09180020097A105B105E9F28091AE
:101F100017038F5F8093170388EB94E06FE672E0FE
:101F20000E949C0A009709F454CD2091BD04909121
:101F3000BE048091BF04ADB7BEB71A970FB6F89430
:101F4000BEBF0FBEADBFEDB7FEB7319612965C9225
:101F50004E921197F382E282248315829683178230
:101F6000808711860E94251CEDB7FEB73A960FB602
:101F7000F894FEBF0FBEEDBF83E061E0A2010E94B6
:101F80009D0310927D0210927E0210927F021092A9
:101F9000800217C080E160E00E94C90280917D024A
:101FA00090917E02A0917F02B09180020196A11DC6
:101FB000B11D80937D0290937E02A0937F02B09327
:101FC000800220917D0230917E0240917F025091EB
:101FD000800280911703B801681B7109CB01AA2701
:101FE00097FDA095BA2F281739074A075B0790F28B
:101FF000F0CC83E080937C0278C38091D504863056
:1020000009F4B0C0873009F4B8C0882309F0F9CAD0
:102010008091E3018823B9F180E060E043EA51E078
:102020000E949D0310927D0210927E0210927F0208
:102030001092800217C080E160E00E94C902809186
:102040007D0290917E02A0917F02B0918002019664
:10205000A11DB11D80937D0290937E02A0937F020B
:10206000B093800280917D0290917E02A0917F02C8
:10207000B091800285309105A105B105E0F2109282
:10208000E3011092170380911903882309F4B9CA58
:1020900080911703882391F582E060E00E94C902D5
:1020A00010927D0210927E0210927F0210928002A6
:1020B00017C084E160E00E94C90280917D02909186
:1020C0007E02A0917F02B09180020196A11DB11DF8
:1020D00080937D0290937E02A0937F02B093800252
:1020E00080917D0290917E02A0917F02B09180024A
:1020F0008A309105A105B105E0F231C082E060E0CF
:102100000E94C90210927D0210927E0210927F02FC
:102110001092800217C084E160E00E94C9028091A1
:102120007D0290917E02A0917F02B0918002019683
:10213000A11DB11D80937D0290937E02A0937F022A
:10214000B093800280917D0290917E02A0917F02E7
:10215000B09180028D309105A105B105E0F2109299
:1021600019034FCA9091170381E0911180E0809389
:10217000170381E0809319032CCC809117038823E7
:1021800031F081E080937C0210921703AEC28091FF
:10219000BD04809310038091BE048093110380914D
:1021A000BF048093120393C28091D504843009F454
:1021B000F7C0853030F4882359F0823009F021CA05
:1021C0007FC0863009F459C1873009F01ACAA5C109
:1021D0008091E301882309F414CA1092E30181E09D
:1021E00060E00E94C902A8EBB4E0EBE0F3E088E015
:1021F00001900D928150E1F72091BC049091BB04B5
:102200008091BA04ADB7BEB71A970FB6F894BEBFA7
:102210000FBEADBFEDB7FEB7319612965C924E92EF
:102220001197D382C2822483158296831782808776
:1022300011860E94251CEDB7FEB73A960FB6F894AA
:10224000FEBF0FBEEDBF80E060E042EC51E00E94B7
:102250009D0383E061E0A2010E949D038FE060E0A6
:102260000E94C90210927D0210927E0210927F029B
:102270001092800217C080E160E00E94C902809144
:102280007D0290917E02A0917F02B0918002019622
:10229000A11DB11D80937D0290937E02A0937F02C9
:1022A000B093800280917D0290917E02A0917F0286
:1022B000B091800288309105A105B105E0F2A1C975
:1022C0001092D5048091930290E062E070E00E9449
:1022D000E8002091BC049091BB048091BA044DB7F2
:1022E0005EB74A5050400FB6F8945EBF0FBE4DBF68
:1022F000EDB7FEB73196ADB7BEB712965C924E926F
:102300001197D382C2822483158296831782808795
:1023100011860E94251CEDB7FEB73A960FB6F894C9
:10232000FEBF0FBEEDBF83E061E0A2010E949D03EE
:1023300010927D0210927E0210927F021092800213
:1023400017C080E160E00E94C90280917D029091F7
:102350007E02A0917F02B09180020196A11DB11D65
:1023600080937D0290937E02A0937F02B0938002BF
:1023700020917D0230917E0240917F025091800237
:1023800080919302B801681B7109CB01AA2797FDC0
:10239000A095BA2F281739074A075B0790F231C971
:1023A0001092D5048091930290E064E070E00E9466
:1023B000E8002091BC049091BB048091BA04ADB7B1
:1023C000BEB71A970FB6F894BEBF0FBEADBFEDB73C
:1023D000FEB7319612965C924E921197D382C282CA
:1023E0002483158296831782808711860E94251C7C
:1023F000EDB7FEB73A960FB6F894FEBF0FBEEDBF2D
:1024000083E061E0A2010E949D0310927D02109280
:102410007E0210927F021092800217C080E160E07D
:102420000E94C90280917D0290917E02A0917F025C
:10243000B09180020196A11DB11D80937D02909301
:102440007E02A0937F02B093800220917D023091A2
:102450007E0240917F025091800280919302B801E8
:10246000681B7109CB01AA2797FDA095BA2F2817E1
:1024700039074A075B0790F2C4C8809193028730FE
:1024800050F484E160E00E94C902809193028F5F62
:10249000809393022FC01092930210927D021092AB
:1024A0007E0210927F021092800217C080E160E0ED
:1024B0000E94C90280917D0290917E02A0917F02CC
:1024C000B09180020196A11DB11D80937D02909371
:1024D0007E02A0937F02B093800280917D02909152
:1024E0007E02A0917F02B091800287309105A10504
:1024F000B105E0F280919302823029F0809193023D
:10250000853009F066CA84E160E00E94C9028091CA
:1025100093028F5F809393025CCA60927C02E5C055
:102520008091D504863009F4B1C0873009F4B9C070
:10253000882309F066C88091E3018823B9F180E01F
:1025400060E043EA51E00E949D0310927D021092E8
:102550007E0210927F021092800217C080E160E03C
:102560000E94C90280917D0290917E02A0917F021B
:10257000B09180020196A11DB11D80937D029093C0
:102580007E02A0937F02B093800280917D029091A1
:102590007E02A0917F02B091800285309105A10555
:1025A000B105E0F21092E301109293028091900243
:1025B000882309F426C880919302882391F582E04C
:1025C00060E00E94C90210927D0210927E02109279
:1025D0007F021092800217C084E160E00E94C9026D
:1025E00080917D0290917E02A0917F02B091800245
:1025F0000196A11DB11D80937D0290937E02A09350
:102600007F02B093800280917D0290917E02A09122
:102610007F02B09180028A309105A105B105E0F2F8
:1026200031C082E060E00E94C90210927D021092E7
:102630007E0210927F021092800217C084E160E057
:102640000E94C90280917D0290917E02A0917F023A
:10265000B09180020196A11DB11D80937D029093DF
:102660007E02A0937F02B093800280917D029091C0
:102670007E02A0917F02B09180028D309105A1056C
:10268000B105E0F2109290020C94010B909193022C
:1026900081E0911180E08093930281E08093900229
:1026A00098C980919302882331F081E080937C0265
:1026B000109293021AC08091BA0480930D03809106
:1026C000BB0480930E038091BC0480930F0381E0D0
:1026D00080937C0260E00E94C90282E060E00E9478
:1026E000C9028CE060E00E94C9021092D50481E02A
:1026F0008093E3010C94010B8091D504882311F0A1
:102700000C94010B8091E301882311F40C94010BCC
:102710001092E30181E060E00E94C90280E060E085
:1027200040ED51E00E949D0380E061E04FED51E0FB
:102730000E949D030C94010BEF92FF920F931F9345
:10274000CF93DF937B018C010E948719EB01BE01BF
:10275000882777FD8095982F0E94BA199B01AC01BC
:10276000C801B7010E94BA1820E030E040E05FE302
:102770000E94461A18160CF42196CE01DF91CF91D3
:102780001F910F91FF90EF900895EF92FF920F939A
:102790001F9364B175B180E090E00E94B819609316
:1027A000CD047093CE048093CF049093D0046091B5
:1027B000CD047091CE048091CF049091D00420E09C
:1027C00030E040E85AE30E944A1A20E030E040EA54
:1027D00050E40E944A1A9B01AC012093C504309337
:1027E000C6044093C7045093C8046091C504709117
:1027F000C6048091C7049091C8042CEC3CEC4CE4D6
:102800005FE30E94BA1827EB33EF4DEF5CE30E94C1
:102810001F199B01AC0120930103309302034093E5
:10282000030350930403E0900103F090020300912E
:102830000303109104036091D6047091D704809132
:10284000D8049091D9040E949C139C01B901882757
:1028500077FD8095982F0E94BA1929EC3EE84DE04B
:102860005BE30E944A1A9B01AC0162E27DEF86E8BD
:102870009FE30E94BA189B01AC01C801B7010E94F6
:102880001F199B01AC012093070330930803409369
:10289000090350930A036091070370910803809124
:1028A000090390910A030E949C131F910F91FF90BE
:1028B000EF9008951F920F920FB60F920BB60F92E2
:1028C00011240F931F932F933F934F935F936F9315
:1028D0007F938F939F93AF93BF93CF93DF93EF93A8
:1028E000FF9380911803823008F47EC01091180382
:1028F00084B78093C404F8948091940290919502D7
:102900008431910550F48091940290919502019642
:10291000909395028093940261C010929502109258
:10292000940280918E0290918F028436910558F521
:102930008091C004882319F08130D9F411C0C0916E
:102940008E02D0918F020E94B407CC0FDD1FCC0FF6
:10295000DD1FC55EDC4F688379838A839B8309C052
:10296000C0918E02D0918F020E94C513C756DD4FD1
:10297000888380918E0290918F02019690938F02AE
:1029800080938E022BC010928F0210928E020091C3
:10299000C004002319F00130F9F412C08BE193E078
:1029A00060E070E00E9445086093D6047093D704FD
:1029B0008093D8049093D90481E0809300030CC0E5
:1029C00080E090E069E972E00E9445080E949C1353
:1029D000809381020093FF020E94310878948091D5
:1029E000C40484BF10931803FF91EF91DF91CF913E
:1029F000BF91AF919F918F917F916F915F914F9117
:102A00003F912F911F910F910F900BBE0F900FBE12
:102A10000F901F9018952F923F924F925F926F9256
:102A20007F928F929F92AF92BF92CF92DF92EF925E
:102A3000FF920F931F93DF93CF93CDB7DEB76397CA
:102A40000FB6F894DEBF0FBECDBF6C017F876E87D7
:102A5000FC0117821682838181FD04C06FC34C85FF
:102A60005D8504C01E010894211C311CF601938170
:102A7000EE85FF8593FD859193FF8191FF87EE871A
:102A8000882309F457C3853241F493FD859193FF60
:102A90008191FF87EE87853259F490E0B6014A8B29
:102AA0005B8B0E94F91B4A895B895D874C87D7CF76
:102AB00010E0FF2400E00032B0F48B3269F08C3279
:102AC00028F4803251F0833271F40BC08D3239F02A
:102AD000803349F401602CC00260046029C00860A2
:102AE00027C0006125C007FD2EC0282F20532A30A3
:102AF00098F406FF08C0812F880F182F110F110FAF
:102B0000180F120F15C08F2D880FF82EFF0CFF0C19
:102B1000F80EF20E00620CC08E3221F406FD0AC3DC
:102B2000006406C08C3611F4006802C0883659F47F
:102B3000EE85FF8593FD859193FF8191FF87EE8759
:102B4000882309F0B8CF982F9554933018F400617A
:102B5000805E06C0982F9556933008F09BC10F7E7B
:102B600006FF16E06FE3E62EE022853619F4F0E466
:102B7000EF2A07C0863619F420E8E22A02C01111B4
:102B80001150E7FE06C01C3340F4912E939427E0C9
:102B90000BC0183030F4212F06C027E03CE3932E01
:102BA00003C027E017E09924CA0104969D878C870B
:102BB000FA016081718182819381A101092D0E94B6
:102BC000041B5C016980262D30E0398B288B60FE68
:102BD00003C0388933FF06C0E1FC06C0E2FE06C030
:102BE00000E205C00DE203C00BE201C000E08889ED
:102BF00099898C7090700097C1F1002311F084E0E6
:102C000001C083E08F1558F4F81AE3FC09C080E294
:102C100090E0B6010E94F91BFA94C9F701C0FF24A5
:102C2000002329F0802F90E0B6010E94F91B8889CB
:102C300083FD03C000E910E00EC00CE810E00BC0FB
:102C4000A114B10409F0805290E0B6010E94F91B72
:102C50000F5F1F4F05C0AE2CBB2490E1A922BB24FF
:102C6000F8018491882361F762C2E7FE0EC09A0CD6
:102C7000F889F4FF04C08A81813309F49A94191405
:102C800054F5292D293050F52DC0E6FC2BC0812F9D
:102C900090E08A159B054CF03CEFA3163FEFB3067E
:102CA00024F080E8E82A01C01150112349F0E2E045
:102CB000F0E0EC0FFD1FE10FF11D80818033A1F3E7
:102CC000E7FE10C0912E9394812F90E0A816B906CC
:102CD00044F41A1907C09924939404C098E0992EDB
:102CE00001C010E0E7FE07C01A141B043CF4950174
:102CF0002F5F3F4F05C025E030E002C021E030E00B
:102D0000002311F02F5F3F4F112329F0812F90E016
:102D10000196280F391F8F2D90E02817390714F4DA
:102D2000F21A01C0FF244E2C5524C2018970907004
:102D3000009749F406C080E290E0B6010E94F91BBA
:102D4000FA94FF20C1F7002329F0802F90E0B6010C
:102D50000E94F91B43FC09C006C080E390E0B60165
:102D60000E94F91BFA94FF20C1F7E7FE46C0350127
:102D7000B7FE02C06624772425010894411C511C2B
:102D800046185708420C531CF501E919F1094F0187
:102D9000812F90E000271127081B190BFFEF6F16FA
:102DA000FFEF7F0629F48EE290E0B6010E94F91B46
:102DB000A614B70434F0861497041CF4F201808141
:102DC00001C080E30894610871080894411C511CFB
:102DD000601671062CF090E0B6010E94F91BDECF60
:102DE0006A147B0441F49A81963320F4953319F4E4
:102DF000F889F4FF81E390E049C08A81813311F0C2
:102E00002FEE622290E0B6010E94F91B112389F097
:102E10008EE290E0B6010E94F91B02E0F101E00FA2
:102E2000F11D0F5F808190E0B6010E94F91B1150E7
:102E3000A9F744FE03C085E490E002C085E690E077
:102E4000B6010E94F91BB7FC05C0A114B10441F4FE
:102E500064FE06C0B094A194B108B3948DE201C0A1
:102E60008BE290E0B6010E94F91B80E305C08F5F02
:102E7000E6EFFFEFAE0EBF1EFAE0AF16B104BCF7EF
:102E800090E0B6010E94F91BC501C096B6010E94F0
:102E9000F91B4DC1833631F0833789F0833509F052
:102EA00059C022C09A012E5F3F4F3D872C87FA01FF
:102EB00080818983310181E0A82EB12C13C09A0151
:102EC0002E5F3F4F3D872C87FA016080718006FF9F
:102ED00003C0612F70E002C06FEF7FEFC3010E945B
:102EE000EE1B5C010F7714C09A012E5F3F4F3D87A8
:102EF0002C87FA016080718006FF03C0612F70E0AB
:102F000002C06FEF7FEFC3010E94DC1B5C01006811
:102F100003FD1CC006C080E290E0B6010E94F91BD0
:102F2000FA948F2D90E0A816B906A8F30FC0F3010C
:102F300007FD859107FF81913F0190E0B6010E9456
:102F4000F91BF110FA940894A108B108A114B10476
:102F500071F7EDC0843611F0893661F507FF0BC0BB
:102F60009A012C5F3F4F3D872C87FA016081718168
:102F7000828193810CC09A012E5F3F4F3D872C8741
:102F8000FA0160817181882777FD8095982F0F76EF
:102F900097FF08C090958095709561957F4F8F4FF2
:102FA0009F4F0068A1012AE030E00E94551C982E36
:102FB000921841C0853721F40F7E2AE030E020C00E
:102FC000097F8F36A9F0803720F4883509F0B2C028
:102FD0000BC0803721F0883709F0ACC001C0006118
:102FE00004FF09C0046007C004FF08C0066006C0F3
:102FF00028E030E005C020E130E002C020E132E00E
:1030000007FF0AC0CA0104969D878C87FA01608178
:1030100071818281938109C0CA0102969D878C8744
:10302000FA016081718180E090E0A1010E94551C4D
:10303000982E92180F7706FF09C00E7F911630F474
:1030400004FF06C002FD04C00F7E02C0E92C01C0CF
:10305000E12E802F90E004FF0CC0FE01E90DF11D70
:103060002081203311F4097E09C0E39402FF06C0D9
:1030700004C086789070009709F0E394A02EBB24DA
:1030800003FD14C000FF0FC0EF1428F4192D1F0D0D
:103090001E19EF2C08C0192D06C080E290E0B60181
:1030A0000E94F91BE394EF14C0F304C0EF1410F472
:1030B000FE1801C0FF24A4FE0FC080E390E0B6011B
:1030C0000E94F91BA2FE1FC0A1FE03C088E590E08C
:1030D00010C088E790E00DC0C50186789070009719
:1030E00091F0A1FC02C080E201C08BE207FD8DE2FD
:1030F00090E0B6010E94F91B06C080E390E0B601A3
:103100000E94F91B11509116C0F39A94F101E90D38
:10311000F11D808190E0B6010E94F91B9920A9F76A
:1031200006C080E290E0B6010E94F91BFA94FF20ED
:10313000C1F795CCF6012681378102C02FEF3FEF12
:10314000C90163960FB6F894DEBF0FBECDBFCF9115
:10315000DF911F910F91FF90EF90DF90CF90BF9084
:10316000AF909F908F907F906F905F904F903F9027
:103170002F9008955058BB27AA270ED04DC13ED19D
:1031800030F043D120F031F49F3F11F41EF433C1ED
:103190000EF4E095E7FB29C1E92F4FD180F3BA1770
:1031A000620773078407950718F071F49EF567C1ED
:1031B0000EF4E0950B2EBA2FA02D0B01B901900152
:1031C0000C01CA01A0011124FF27591B99F0593F96
:1031D00050F4503E68F11A16F040A22F232F342FDE
:1031E0004427585FF3CF469537952795A795F0402C
:1031F0005395C9F77EF41F16BA0B620B730B840B41
:10320000BAF09150A1F0FF0FBB1F661F771F881FF8
:10321000C2F70EC0BA0F621F731F841F48F4879550
:1032200077956795B795F7959E3F08F0B3CF93953F
:10323000880F08F09927EE0F9795879508950CD081
:10324000EBC0E3D040F0DAD030F021F45F3F19F06A
:10325000CCC0511115C1CFC0F0D098F39923C9F358
:103260005523B1F3951B550BBB27AA27621773078C
:10327000840738F09F5F5F4F220F331F441FAA1F40
:10328000A9F333D00E2E3AF0E0E830D09150504000
:10329000E695001CCAF729D0FE2F27D0660F771FAE
:1032A000881FBB1F261737074807AB07B0E809F090
:1032B000BB0B802DBF01FF2793585F4F2AF09E3F25
:1032C000510568F092C0DCC05F3FECF3983EDCF340
:1032D000869577956795B795F7959F5FC9F7880F9E
:1032E000911D9695879597F90895E1E0660F771FF0
:1032F000881FBB1F621773078407BA0720F0621B81
:10330000730B840BBA0BEE1F88F7E095089504D079
:103310006894B111B5C0089598D088F09F5790F087
:10332000B92F9927B751A0F0D1F0660F771F881FEA
:10333000991F1AF0BA95C9F712C0B13081F09FD029
:10334000B1E008959CC0672F782F8827B85F39F0C7
:10335000B93FCCF3869577956795B395D9F73EF449
:1033600090958095709561957F4F8F4F9F4F0895F1
:10337000E89409C097FB3EF490958095709561950F
:103380007F4F8F4F9F4F9923A9F0F92F96E9BB27C5
:103390009395F695879577956795B795F111F8CF41
:1033A000FAF4BB0F11F460FF1BC06F5F7F4F8F4FAC
:1033B0009F4F16C0882311F096E911C0772321F0A2
:1033C0009EE8872F762F05C0662371F096E8862F3A
:1033D00070E060E02AF09A95660F771F881FDAF791
:1033E000880F9695879597F9089597F99F6780E8D4
:1033F00070E060E008959FEF80EC089500240A9447
:103400001616170618060906089500240A941216BF
:103410001306140605060895092E0394000C11F4F2
:10342000882352F0BB0F40F4BF2B11F460FF04C09F
:103430006F5F7F4F8F4F9F4F089557FD9058440FF8
:10344000551F59F05F3F71F04795880F97FB991F03
:1034500061F09F3F79F087950895121613061406C0
:10346000551FF2CF4695F1DF08C01616170618064D
:10347000991FF1CF86957105610508940895E89428
:10348000BB2766277727CB0197F9089566D008F404
:103490008FEF08950BD0C0CFB1DF28F0B6DF18F062
:1034A000952309F0A2CFA7CF1124EACFC6DFA0F35E
:1034B000959FD1F3950F50E0551F629FF001729FC9
:1034C000BB27F00DB11D639FAA27F00DB11DAA1FE8
:1034D000649F6627B00DA11D661F829F2227B00D35
:1034E000A11D621F739FB00DA11D621F839FA00DC0
:1034F000611D221F749F3327A00D611D231F849F10
:10350000600D211D822F762F6A2F11249F57504066
:103510008AF0E1F088234AF0EE0FFF1FBB1F661F01
:10352000771F881F91505040A9F79E3F510570F0BA
:103530005CCFA6CF5F3FECF3983EDCF386957795A2
:103540006795B795F795E7959F5FC1F7FE2B880FB5
:10355000911D9695879597F90895990F0008550F35
:10356000AA0BE0E8FEEF16161706E807F907C0F009
:1035700012161306E407F50798F0621B730B840B11
:10358000950B39F40A2661F0232B242B252B21F4EB
:1035900008950A2609F4A140A6958FEF811D811D8B
:1035A0000895991B79E004C0991F961708F0961B9F
:1035B000881F7A95C9F780950895AA1BBB1B51E116
:1035C00007C0AA1FBB1FA617B70710F0A61BB70B93
:1035D000881F991F5A95A9F780959095BC01CD0138
:1035E000089597FB092E07260AD077FD04D0E5DF62
:1035F00006D000201AF4709561957F4F0895F6F774
:10360000909581959F4F0895283008F027E0332743
:10361000DA01990F311D87FD9160009661057105F2
:1036200039F432602E5F3D9330E32A95E1F7089537
:103630009F3F30F080387105610509F03C5F3C5FC9
:103640003D93913008F08068911DDF93CF931F93D5
:103650000F93FF92EF92192F987F9695E92F9695E9
:103660009695E90FFF27E251FF4F99273327EE2464
:10367000FF24A701E70105900894079428F4360F6A
:10368000E71EF81E491F511D660F771F881F991FDF
:103690000694A1F70590079428F4E70EF81E491F39
:1036A000561FC11D770F881F991F661F0694A1F72B
:1036B0000590079428F4F80E491F561FC71FD11D07
:1036C000880F991F661F771F0694A1F7059007942E
:1036D00020F4490F561FC71FD81F990F661F771F69
:1036E000881F0694A9F784911095177041F0D6951C
:1036F000C79557954795F794E7941A95C1F7E4E96C
:10370000F0E068941590159135916591959105902B
:103710007FE27395E118F10A430B560BC90BD009F0
:10372000C0F7E10CF11E431F561FC91FD01D7EF4C8
:10373000703311F48A95E6CFE894015030F0080F09
:103740000AF40027021708F4202F2395022F7A335A
:1037500028F079E37D932A95E9F710C07D932A95A7
:1037600089F6069497956795379517951794E118FC
:10377000F10A430B560BC90BD00998F023957E91A3
:1037800073957A3308F070E37C932013B8F77E9139
:1037900070617D9330F0839571E37D9370E32A959A
:1037A000E1F71124EF90FF900F911F91CF91DF91DE
:1037B000992787FD90950895FC0105906150704010
:1037C0000110D8F7809590958E0F9F1F0895FB01EB
:1037D000DC0101900D920020E1F70895FC01615099
:1037E000704001900110D8F7809590958E0F9F1F23
:1037F00008950F931F93CF93DF938C01EB018B817F
:1038000081FF1BC082FF0DC02E813F818C819D8175
:103810002817390764F4E881F9810193F983E88373
:1038200006C0E885F985802F0995009731F48E81CF
:103830009F8101969F838E8302C00FEF1FEFC80107
:10384000DF91CF911F910F9108950F931F93DF93F5
:10385000CF93CDB7DEB72E970FB6F894DEBF0FBE6D
:10386000CDBF0D891E8986E08C831A8309838FEF73
:103870009FE79E838D839E01275E3F4FCE01019679
:103880006F89788DA9010E940B15EF81F885E00FF3
:10389000F11F10822E960FB6F894DEBF0FBECDBF7B
:1038A000CF91DF911F910F910895FA01AA27283037
:1038B00051F1203181F1E8946F936E7F6E5F7F4FFD
:1038C0008F4F9F4FAF4FB1E03ED0B4E03CD0670F79
:1038D000781F891F9A1FA11D680F791F8A1F911DCC
:1038E000A11D6A0F711D811D911DA11D20D009F41C
:1038F00068943F912AE0269F11243019305D31935E
:10390000DEF6CF010895462F4770405D4193B3E046
:103910000FD0C9F7F6CF462F4F70405D4A3318F0ED
:10392000495D31FD4052419302D0A9F7EACFB4E09E
:10393000A6959795879577956795BA95C9F7009756
:103940006105710508959B01AC010A2E06945795F7
:10395000479537952795BA95C9F7620F731F841F4E
:0A396000951FA01D0895F894FFCFF5
:10396A0030303A303000543D30302E3000435F481A
:10397A003D383825005F3100253032642F2530323A
:10398A00642F253032642C0025303264002530340F
:10399A002E316600543D002532640025003A00208D
:1039AA00004572726F723A206269747261746500BE
:1039BA002020746F6F206869676821006572726FD2
:1039CA0072207768696C652077726974696E67001E
:1039DA0025642061742025640025336420617420E5
:1039EA00253264002D00253032642F253032642FB1
:1039FA00253032640045646974696E6720646174B5
:103A0A00653A00436F6E6665726D693F2053692F90
:103A1A004E6F00253032643A253032643A2530320E
:103A2A00640045646974696E672074696D653A005B
:103A3A00456469742074696D657A6F6E653A003100
:103A4A003D000101010000000000000000000031FB
:103A5A002E54696D657A6F6E652020202020003211
:103A6A002E4461746520202020202020202000334D
:103A7A002E54696D6520202020202020202000342B
:103A8A002E555342207472616E736665722000353A
:103A9A002E68656C6C6F20202020202020200036A4
:103AAA002E776F726C64202020202020202000377F
:103ABA002E6F7374692020202020202020200020CF
:103ACA002020202020202020202020202020001F0D
:0C3ADA001D1F1E1F1E1F1F1E1F1E1F0091
:00000001FF
